:020000040800F2
:1050000000500020899B00085D9200085F92000814
:1050100069920008739200087D9200080000000069
:10502000000000000000000000000000879200085F
:1050300089920008000000008B9200088D92000801
:10504000DD9B0008DD9B0008DD9B0008E194000863
:10505000DD9B0008DD9B0008ED9200080D93000821
:105060002D9300086193000881930008DD9B0008E0
:10507000DD9B0008DD9B0008DD9B000849950008CA
:10508000DD9B0008DD9B00089D920008DD9B000869
:105090004D950008DD9B0008DD9B0008A1930008EA
:1050A000DD9B0008DD9B0008DD9B0008699400087B
:1050B000B1940008C1940008D1940008BD92000882
:1050C000CD920008DD9B0008DD9B0008DD92000802
:1050D000DD9B0008DD9B0008AD920008DD9B000809
:1050E000F193000809950008DD9B0008000000000E
:1050F00000000000000000000000000000000000B0
:0C51000000000000000000005FF808F153
:1051100081F0004102E000BF83F0004330B54FEA68
:1051200041044FEA430594EA050F08BF90EA020FD5
:105130001FBF54EA000C55EA020C7FEA645C7FEA68
:10514000655C00F0E2804FEA5454D4EB5555B8BF8B
:105150006D420CDD2C4480EA020281EA030382EAFC
:10516000000083EA010180EA020281EA0303362D8E
:1051700088BF30BD11F0004F4FEA01314FF4801C61
:105180004CEA113102D0404261EB410113F0004F73
:105190004FEA03334CEA133302D0524263EB43032A
:1051A00094EA050F00F0A780A4F10104D5F1200EC8
:1051B0000DDB02FA0EFC22FA05F2801841F1000123
:1051C00003FA0EF2801843FA05F359410EE0A5F1F7
:1051D00020050EF1200E012A03FA0EFC28BF4CF028
:1051E000020C43FA05F3C01851EBE37101F00045DE
:1051F00007D54FF0000EDCF1000C7EEB00006EEBEB
:105200000101B1F5801F1BD3B1F5001F0CD3490874
:105210005FEA30004FEA3C0C04F101044FEA4452CB
:1052200012F5800F80F09A80BCF1004F08BF5FEA52
:10523000500C50F1000041EB045141EA050130BD32
:105240005FEA4C0C404141EB010111F4801FA4F1D5
:105250000104E9D191F0000F04BF01460020B1FA2A
:1052600081F308BF2033A3F10B03B3F120020CDA62
:105270000C3208DD02F1140CC2F10C0201FA0CF040
:1052800021FA02F10CE002F11402D8BFC2F1200CA5
:1052900001FA02F120FA0CFCDCBF41EA0C0190405B
:1052A000E41AA2BF01EB0451294330BD6FEA0404A4
:1052B0001F3C1CDA0C340EDC04F11404C4F120028F
:1052C00020FA04F001FA02F340EA030021FA04F3A1
:1052D00045EA030130BDC4F10C04C4F1200220FAF8
:1052E00002F001FA04F340EA0300294630BD21FA36
:1052F00004F0294630BD94F0000F83F4801306BFFC
:1053000081F480110134013D4EE77FEA645C18BFEF
:105310007FEA655C29D094EA050F08BF90EA020F86
:1053200005D054EA000C04BF1946104630BD91EA7E
:10533000030F1EBF0021002030BD5FEA545C05D181
:105340004000494128BF41F0004130BD14F58004C0
:105350003CBF01F5801130BD01F0004545F0FE4134
:1053600041F470014FF0000030BD7FEA645C1ABF69
:10537000194610467FEA655C1CBF0B46024650EAA0
:10538000013406BF52EA033591EA030F41F40021CC
:1053900030BD00BF90F0000F04BF0021704730B552
:1053A0004FF4806404F132044FF000054FF0000127
:1053B00050E700BF90F0000F04BF0021704730B5E8
:1053C0004FF4806404F1320410F0004548BF4042BD
:1053D0004FF000013EE700BF42004FEAE2014FEA12
:1053E00031014FEA02701FBF12F07F4393F07F4FED
:1053F00081F06051704792F0000F14BF93F07F4F1F
:10540000704730B54FF4607401F0004521F0004161
:1054100020E700BF50EA010208BF704730B54FF0E7
:1054200000050AE050EA010208BF704730B511F0EC
:10543000004502D5404261EB41014FF4806404F124
:1054400032045FEA915C3FF4DCAE4FF003025FEAA6
:10545000DC0C18BF03325FEADC0C18BF033202EB2E
:10546000DC02C2F1200300FA03FC20FA02F001FA88
:1054700003FE40EA0E0021FA02F11444C1E600BF27
:1054800070B54FF0FF0C4CF4E06C1CEA11541DBFDA
:105490001CEA135594EA0C0F95EA0C0F00F0DEF8A5
:1054A0002C4481EA030621EA4C5123EA4C5350EA8A
:1054B000013518BF52EA033541F4801143F48013DB
:1054C00038D0A0FB02CE4FF00005E1FB02E506F06C
:1054D0000042E0FB03E54FF00006E1FB03569CF0C1
:1054E000000F18BF4EF0010EA4F1FF04B6F5007FC7
:1054F00064F5407404D25FEA4E0E6D4146EB060639
:1055000042EAC62141EA55514FEAC52040EA5E50C1
:105510004FEACE2EB4F1FD0C88BFBCF5E06F1ED86B
:10552000BEF1004F08BF5FEA500E50F1000041EBA2
:10553000045170BD06F0004646EA010140EA02004F
:1055400081EA0301B4EB5C04C2BFD4EB0C0541EA71
:10555000045170BD41F480114FF0000E013C00F386
:10556000AB8014F1360FDEBF002001F0004170BDAA
:10557000C4F10004203C35DA0C341BDC04F11404C3
:10558000C4F1200500FA05F320FA04F001FA05F24F
:1055900040EA020001F0004221F0004110EBD3701C
:1055A00021FA04F642EB06015EEA430E08BF20EA48
:1055B000D37070BDC4F10C04C4F1200500FA04F3EB
:1055C00020FA05F001FA04F240EA020001F000417D
:1055D00010EBD37041F100015EEA430E08BF20EAF0
:1055E000D37070BDC4F1200500FA05F24EEA020E38
:1055F00020FA04F301FA05F243EA020321FA04F067
:1056000001F0004121FA04F220EA020000EBD3701D
:105610005EEA430E08BF20EAD37070BD94F0000F1D
:105620000FD101F00046400041EB010111F4801F51
:1056300008BF013CF7D041EA060195F0000F18BF02
:10564000704703F00046520043EB030313F4801F3E
:1056500008BF013DF7D043EA0603704794EA0C0FF8
:105660000CEA135518BF95EA0C0F0CD050EA41060E
:1056700018BF52EA4306D1D181EA030101F000418B
:105680004FF0000070BD50EA410606BF10461946B3
:1056900052EA430619D094EA0C0F02D150EA0136BF
:1056A00013D195EA0C0F05D152EA03361CBF104600
:1056B00019460AD181EA030101F0004141F0FE419F
:1056C00041F470014FF0000070BD41F0FE4141F423
:1056D000780170BD70B54FF0FF0C4CF4E06C1CEA23
:1056E00011541DBF1CEA135594EA0C0F95EA0C0FD8
:1056F00000F0A7F8A4EB050481EA030E52EA033593
:105700004FEA013100F088804FEA03334FF08055B3
:1057100045EA131343EA12634FEA022245EA1115E0
:1057200045EA10654FEA00260EF000419D4208BF91
:10573000964244F1FD0404F5407402D25B084FEA3E
:105740003202B61A65EB03055B084FEA32024FF4EA
:1057500080104FF4002CB6EB020E75EB030E22BF47
:10576000B61A754640EA0C005B084FEA3202B6EB07
:10577000020E75EB030E22BFB61A754640EA5C00B6
:105780005B084FEA3202B6EB020E75EB030E22BF46
:10579000B61A754640EA9C005B084FEA3202B6EB47
:1057A000020E75EB030E22BFB61A754640EADC0006
:1057B00055EA060E18D04FEA051545EA16754FEA68
:1057C00006164FEAC30343EA52734FEAC2025FEA86
:1057D0001C1CC0D111F4801F0BD141EA00014FF015
:1057E00000004FF0004CB6E711F4801F04BF0143E6
:1057F0000020B4F1FD0C88BFBCF5E06F3FF6AFAE02
:10580000B5EB030C04BFB6EB020C5FEA500C50F191
:10581000000041EB045170BD0EF0004E4EEA113114
:1058200014EB5C04C2BFD4EB0C0541EA045170BD1B
:1058300041F480114FF0000E013C90E645EA060E5F
:105840008DE60CEA135594EA0C0F08BF95EA0C0F8D
:105850003FF43BAF94EA0C0F0AD150EA01347FF4D5
:1058600034AF95EA0C0F7FF425AF104619462CE7AC
:1058700095EA0C0F06D152EA03353FF4FDAE10460F
:10588000194622E750EA410618BF52EA43067FF460
:10589000C5AE50EA41047FF40DAF52EA43057FF4F0
:1058A000EBAE12E74FF0FF3C06E000BF4FF0010CFB
:1058B00002E000BF4FF0010C4DF804CD4FEA410C5F
:1058C0007FEA6C5C4FEA430C18BF7FEA6C5C1BD02C
:1058D00001B050EA410C0CBF52EA430C91EA030FAD
:1058E00002BF90EA020F0020704710F1000F91EA0A
:1058F000030F58BF994208BF90422CBFD8176FEAD8
:10590000E37040F0010070474FEA410C7FEA6C5CA5
:1059100002D150EA013C07D14FEA430C7FEA6C5CAC
:10592000D6D152EA033CD3D05DF8040B704700BFD8
:105930008446104662468C461946634600E000BF26
:1059400001B5FFF7B7FF002848BF10F1000F01BDF8
:105950004DF808EDFFF7F4FF0CBF012000205DF8C3
:1059600008FB00BF4DF808EDFFF7EAFF34BF012048
:1059700000205DF808FB00BF4DF808EDFFF7E0FFE1
:1059800094BF012000205DF808FB00BF4DF808ED32
:10599000FFF7CEFF94BF012000205DF808FB00BF99
:1059A0004DF808EDFFF7C4FF34BF012000205DF87B
:1059B00008FB00BF4FEA410212F5001215D211D5C3
:1059C0006FF47873B3EB625212D94FEAC12343F0FC
:1059D000004343EA505311F0004F23FA02F018BF7E
:1059E000404270474FF00000704750EA013005D147
:1059F00011F0004008BF6FF0004070474FF000000A
:105A0000704700BF4A0011D212F5001211D20DD515
:105A10006FF47873B3EB62520ED44FEAC12343F0B4
:105A2000004343EA505323FA02F070474FF000005E
:105A3000704750EA013002D14FF0FF3070474FF00D
:105A4000000070474FEA4102B2F1E04324BFB3F5D2
:105A5000001CDCF1FE5C0DD901F0004C4FEAC002E5
:105A60004CEA5070B2F1004F40EB830008BF20F0C9
:105A70000100704711F0804F21D113F13872BCBF83
:105A800001F00040704741F480114FEA5252C2F1D8
:105A90001802C2F1200C10FA0CF320FA02F018BF21
:105AA00040F001004FEAC1234FEAD32303FA0CFC74
:105AB00040EA0C0023FA02F34FEA4303CCE77FEA03
:105AC000625307D150EA01331EBF4FF0FE4040F44D
:105AD0004000704701F0004040F0FE4040F40000FC
:105AE000704700BF80F0004002E000BF81F000413D
:105AF00042001FBF5FEA410392EA030F7FEA226C74
:105B00007FEA236C6AD04FEA1262D2EB1363C1BF03
:105B1000D218414048404140B8BF5B42192B88BF72
:105B2000704710F0004F40F4000020F07F4018BF95
:105B3000404211F0004F41F4000121F07F4118BFB5
:105B4000494292EA030F3FD0A2F1010241FA03FC5D
:105B500010EB0C00C3F1200301FA03F100F0004345
:105B600002D5494260EB4000B0F5000F13D3B0F10D
:105B7000807F06D340084FEA310102F10102FE2A7C
:105B800051D2B1F1004F40EBC25008BF20F00100EC
:105B900040EA03007047490040EB000010F4000F9A
:105BA000A2F10102EDD1B0FA80FCACF1080CB2EB2D
:105BB0000C0200FA0CF0AABF00EBC250524218438C
:105BC000BCBFD0401843704792F0000F81F4000131
:105BD00006BF80F400000132013BB5E74FEA410304
:105BE0007FEA226C18BF7FEA236C21D092EA030F70
:105BF00004D092F0000F08BF0846704790EA010FEA
:105C00001CBF0020704712F07F4F04D1400028BF16
:105C100040F00040704712F100723CBF00F50000F8
:105C2000704700F0004343F0FE4040F4000070472E
:105C30007FEA226216BF08467FEA236301464202DA
:105C400006BF5FEA412390EA010F40F480007047ED
:105C50004FF0000304E000BF10F0004348BF404293
:105C60005FEA000C08BF704743F0964301464FF0CF
:105C700000001CE050EA010208BF70474FF000032B
:105C80000AE000BF50EA010208BF704711F000436C
:105C900002D5404261EB41015FEA010C02BF84463C
:105CA0000146002043F0B64308BFA3F18053A3F59B
:105CB0000003BCFA8CF2083AA3EBC25310DB01FAE2
:105CC00002FC634400FA02FCC2F12002BCF1004F66
:105CD00020FA02F243EB020008BF20F001007047F7
:105CE00002F1200201FA02FCC2F1200250EA4C004B
:105CF00021FA02F243EB020008BF20EADC70704791
:105D00004FF0FF0C1CEAD0521EBF1CEAD15392EA9E
:105D10000C0F93EA0C0F6FD01A4480EA010C40027A
:105D200018BF5FEA41211ED04FF0006343EA5010D4
:105D300043EA5111A0FB01310CF00040B1F5000F16
:105D40003EBF490041EAD3715B0040EA010062F1C5
:105D50007F02FD2A1DD8B3F1004F40EBC25008BFAF
:105D600020F00100704790F0000F0CF0004C08BFCD
:105D700049024CEA502040EA51207F3AC2BFD2F19A
:105D8000FF0340EAC250704740F400004FF00003A8
:105D9000013A5DDC12F1190FDCBF00F000407047E2
:105DA000C2F10002410021FA02F1C2F1200200FA20
:105DB00002FC5FEA310040F1000053EA4C0308BFE7
:105DC00020EADC70704792F0000F00F0004C02BF38
:105DD000400010F4000F013AF9D040EA0C0093F0B3
:105DE000000F01F0004C02BF490011F4000F013B0D
:105DF000F9D041EA0C018FE70CEAD15392EA0C0F7B
:105E000018BF93EA0C0F0AD030F0004C18BF31F0E5
:105E1000004CD8D180EA010000F00040704790F0BB
:105E2000000F17BF90F0004F084691F0000F91F05F
:105E3000004F14D092EA0C0F01D142020FD193EA25
:105E40000C0F03D14B0218BF084608D180EA0100AD
:105E500000F0004040F0FE4040F40000704740F089
:105E6000FE4040F4400070474FF0FF0C1CEAD05257
:105E70001EBF1CEAD15392EA0C0F93EA0C0F69D0B3
:105E8000A2EB030280EA010C49024FEA402037D01E
:105E90004FF0805343EA111143EA10130CF0004015
:105EA0008B4238BF5B0042F17D024FF4000C8B4205
:105EB00024BF5B1A40EA0C00B3EB510F24BFA3EBE5
:105EC000510340EA5C00B3EB910F24BFA3EB9103B5
:105ED00040EA9C00B3EBD10F24BFA3EBD10340EA0F
:105EE000DC001B0118BF5FEA1C1CE0D1FD2A3FF655
:105EF00050AF8B4240EBC25008BF20F0010070470A
:105F00000CF0004C4CEA50207F32C2BFD2F1FF03AC
:105F100040EAC250704740F400004FF00003013ADD
:105F200037E792F0000F00F0004C02BF400010F481
:105F3000000F013AF9D040EA0C0093F0000F01F095
:105F4000004C02BF490011F4000F013BF9D041EAB7
:105F50000C0195E70CEAD15392EA0C0F08D14202EA
:105F60007FF47DAF93EA0C0F7FF470AF084676E7BD
:105F700093EA0C0F04D14B023FF44CAF08466EE796
:105F800030F0004C18BF31F0004CCAD130F0004264
:105F90007FF45CAF31F000437FF43CAF5FE700BFBC
:105FA0004FEA4002B2F1FE4F0FD34FF09E03B3EB26
:105FB00012620DD94FEA002343F0004310F0004F66
:105FC00023FA02F018BF404270474FF000007047BC
:105FD00012F1610F01D1420205D110F0004008BF5B
:105FE0006FF0004070474FF00000704742000ED243
:105FF000B2F1FE4F0BD34FF09E03B3EB126209D404
:106000004FEA002343F0004323FA02F070474FF0B9
:106010000000704712F1610F01D1420202D14FF02E
:10602000FF3070474FF00000704700BF844641EAE0
:10603000000313F0030349D1403A23D30B680360F4
:106040004B6843608B688360CB68C3600B690361F6
:106050004B6943618B698361CB69C3610B6A0362DE
:106060004B6A43628B6A8362CB6AC3620B6B0363C6
:106070004B6B43638B6B8363CB6BC36340304031AB
:10608000403ADBD230320BD30B6803604B6843607D
:106090008B688360CB68C36010301031103AF3D244
:1060A0000C3205D351F8043B40F8043B043AF9D2D2
:1060B000043208D0D2071CBF11F8013B00F8013BA5
:1060C00001D30B8803806046704700BF082A13D3B2
:1060D0008B07B1D010F00303AED0C3F10403D21A82
:1060E000DB071CBF11F8013B00F8013BA4D331F8DA
:1060F000023B20F8023B9FE7043AD9D3013A11F85A
:10610000013B00F8013BF9D20B7803704B784370E8
:106110008B78837060467047014B0360704700BF07
:10612000285A0108024A4261024A0260704700BFD1
:10613000285A0108405A010810B5034B0446036071
:1061400000F098FF204610BD285A010810B5044BF6
:1061500004464361034B036000F08CFF204610BDF2
:10616000285A0108405A010808B50A20002101F008
:106170000BFB0B20002101F007FB0E20002101F09A
:1061800003FB0F20002101F0FFFA1020002101F095
:10619000FBFA1120002101F0F7FA0020014601F07E
:1061A000F3FABDE808400120002101F0EDBA00003B
:1061B0002DE9F043142889B0054600F2A680544F1B
:1061C000182404FB0074A368002B00F09E80A07BC1
:1061D000E0B1042840F099804E48A289008800FB75
:1061E0000111FF2091FBF0F189B20AB999868CE088
:1061F000042A01D1198788E0082A01D1998784E00F
:106200000C2A40F08280A3F840107EE0414E424BC1
:10621000B6F800801A6808FB0111404B0120B2FB60
:10622000F3F9FF2391FBF3F8014607F06FFB2846D3
:10623000042101F0A9FAA36809F1FF39B3F1804FF5
:106240001FFA89F91FFA88F802D10120014609E0F6
:10625000334A934208BF022003D0324A934203D10B
:106260000420012107F05EFB182404FB0574338829
:10627000A068002601A9ADF80830ADF80A60ADF8B5
:106280000660ADF8049007F037FC6023ADF81030DD
:106290000123ADF81230ADF81860ADF81680A6896C
:1062A00046B9A06804A907F071FCA068082107F0AE
:1062B000ADFD1FE0042E08D1A06804A907F0AAFCD8
:1062C000A068082107F0AAFD14E0082E08D1A068F4
:1062D00004A907F0E3FCA068314607F0A9FD09E036
:1062E0000C2E07D1A06804A907F01AFDA0680821A8
:1062F00007F0A6FD182303FB05750121A86807F028
:1063000079FDA868012107F052FD09B0BDE8F083CE
:1063100020000020000000207C03002000366E01D9
:10632000000400400008004038B503460C460B202E
:1063300019461546FFF73CFF21460E20FFF738FFB0
:1063400029460F20BDE83840FFF732BF024B1A68DC
:1063500001321A60704700BFD80B0020064B5A6804
:10636000904201DC013005E0821A012A02D09968CE
:106370000A449A6058607047D80B00200000000063
:1063800070B52D4EF068FFF727F827A3D3E9002357
:10639000FFF776F8044630690D46FFF71DF824A391
:1063A000D3E90023FFF76CF802460B462046294646
:1063B000FEF7B4FEFFF746FBF060FFF70DF81AA3F7
:1063C000D3E90023FFF75CF80446B0690D46FFF7F8
:1063D00003F817A3D3E90023FFF752F802460B4650
:1063E00020462946FEF79AFEFFF72CFB7061F06904
:1063F000FEF7F2FF0CA3D3E90023FFF741F80446B0
:10640000306A0D46FEF7E8FF09A3D3E90023FFF742
:1064100037F802460B4620462946FEF77FFEFFF777
:1064200011FBF06170BD00BF666666666666EE3F92
:106430009A9999999999A93FD80B0020AFF30080B8
:1064400037B501F027FA1B4CA36A6062C01AB0F599
:106450007A7F2CDDFEF7AEFF0022174BFFF73AF9EB
:10646000FFF7F0FA05462068FFF7F6FB2946FFF72D
:10647000FBFC2062FEF7B0FF0B46022102460091B2
:106480000E4801F0EDFDE06AFFF7E6FB2946FFF755
:10649000EBFC2061A068FFF7DFFB2946FFF7E4FC77
:1064A000636AA061A3620023E362A360236003B078
:1064B00030BD00BFD80B002000408F40381F0020A7
:1064C00010B501F0E7F9084C2063FFF74DFE3223C9
:1064D0006363A363E36323646364A3640520BDE88B
:1064E000104001F0D9B900BFD80B0020052001F001
:1064F000D3B9000030B58BB00446FFF727FF5B48E7
:10650000002118220EF0BAFD2346584C03F118055D
:1065100018685968224603C20833AB421446F7D1C3
:10652000534C684601F014FC636D206E1A0E8DF812
:1065300004201A148DF805201A128DF806208DF803
:106540000730FFF70BFF94F84C202346012A4DD863
:1065500001F0A0F9236D6066464902A8A36601F028
:1065600025FC9DF80D309DF80C201B0443EA0263C6
:106570009DF80F2006A813439DF80E2043EA02233E
:10658000E366E3692367E368A3676369636700F011
:10659000E3FE04F17C000699089AFFF747FD364BAD
:1065A00004F194000493019B04A90593334B9A884A
:1065B00001F02AFF04F1640202F1300504F533749E
:1065C000134603CBAB42206061601A4604F1080415
:1065D000F6D12B48302200F50E7101F06EFF2848ED
:1065E00001F02DFF06A801F0B1FD3DE0022A3BD1EC
:1065F00094F85820216C8A4209D194F85900616CB2
:10660000884204D194F85A00A16C88422CD0D86DED
:1066100093F85910164C93F85A3098B1656BA364EF
:10662000C4F8FC52A56B2264C4F80053E56B6164A6
:10663000C4F80453C4F8080301F02CF9D4F8083363
:1066400018440FE0C4F8FC22C4F80013C4F8043363
:1066500022646164A3646263A163E363C4F8080312
:1066600001F018F9C4F80C030BB030BD240C002065
:10667000D80B0020C81D0020285A01080000002067
:106680006C0C002070B51B4C04F1940001F075FFF8
:106690002646054660B3182816D0182390FBF3F45D
:1066A00003FB140525BBA5420DDA1348182200F59B
:1066B0001F7101F00FFF1148FFF71CFF01F0EAF80E
:1066C00001353063EFE770BD00212A4604F54470C0
:1066D0000EF0D4FC04F544712A4604F1940001F054
:1066E000F9FE04F54470FFF705FF01F0D3F82063CD
:1066F00070BD00BFD80B00206C0C0020E80E0020FD
:106700002DE9F04F87B0FFF73BFEA34B196C5A6B96
:106710009846914209D15A6C9B6B9A4205D1D8F8A0
:106720004820D8F83C309A4217D001F0B3F8D8F896
:106730000C43994EA04204D8D6F80833002B40F001
:106740003981D8F84030C8F83430D8F84430C8F827
:106750003830D8F84830C8F83C3001F09BF88F4BFF
:106760009A689946904209D298F8280318B10020F7
:10677000FF210246C3E00146FF22C0E001F08AF893
:10678000D8F83020D9F80C10801A8842824B40F299
:10679000B08001F07FF8FEF7FDFD0022804BFEF790
:1067A00099FF0CF0ADFE8B46824601F073F8FEF7C0
:1067B000F1FD71A3D3E90023FEF78CFF0CF0A0FEDE
:1067C000CDE9000101F066F8FEF7E4FD0022744B0C
:1067D000FEF780FF0CF094FE0D46044601F05AF8D7
:1067E000FEF7D8FD66A3D3E90023FEF773FF0CF094
:1067F00087FE002206460F4620462946694BFEF7D3
:106800003FFE0022674BFEF789FC5FA3D3E900231C
:10681000FEF736FE002204460D4630463946614BEF
:10682000FEF72EFE00225F4BFEF778FC58A3D3E95B
:106830000023FEF725FE02460B4620462946FEF7BA
:106840006DFCCDE9020101F025F8FEF7A3FD4AA396
:10685000D3E90023FEF73EFF0022534BFEF75EFC18
:106860000CF04EFE002206460F464E4B504659464F
:10687000FEF706FE00224B4BFEF750FC0022494B70
:10688000FEF7FEFD002204460D46464BDDE9000101
:10689000FEF7F6FD0022434BFEF740FC0022414B81
:1068A000FEF7EEFD02460B4620462946FEF736FC73
:1068B000FFF7C8F8FFF79AFB0022C4B2394B304605
:1068C0003946FEF7DDFD0022364BFEF727FC00229D
:1068D000344BFEF7D5FD02460B46DDE90201FEF71B
:1068E0001DFCFFF7AFF8FFF781FB0022C1B2204685
:1068F00005E093F8340093F8381093F83C20FFF744
:1069000013FD04A8294998F8284301F04FFA9DF88F
:106910001430002B40F0D0809DF81530002B40F053
:10692000CB809DF81630002B40F0C6809DF81730C4
:10693000002B40F0C180184A82F8283398F8283399
:1069400033B14CB9B9F81010194801F0E8FD03E073
:1069500014B1174801F0A7FD98F8283313B1FFF7D9
:1069600091FE01E0FFF7C2FDFFF76AFD07B0BDE849
:10697000F08F00BFAFF30080000000000088C3402C
:1069800000000000006CA1409A9999999999B93F2B
:106990009A9999999999D93FD80B00200000002025
:1069A00000408F400000E03F00C08240C81D002032
:1069B0006C0C002000F06EFF201AFFF749F9044626
:1069C000D6F80803FFF748F901462046FFF74CFACE
:1069D00001464FF07E50FFF789F80746FEF7FCFCB2
:1069E00002460B46FEF74CFD04460D464FF07E5026
:1069F0003946FFF77BF8FEF7EFFC02460B46FEF741
:106A00003FFD02460B4620462946FEF787FB02461D
:106A10000B4620462946FEF75DFEFFF713F80446B5
:106A2000D6F8FC02FFF718F90546306CFFF714F9A9
:106A30002946FFF75BF8FFF7B3FAFFF70DF9214698
:106A4000FFF75EF901462846FFF752F8FFF7A8FA6C
:106A50007063D6F80003FFF7FFF80546706CFFF788
:106A6000FBF82946FFF742F8FFF79AFAFFF7F4F828
:106A70002146FFF745F901462846FFF739F8FFF7A9
:106A80008FFAB063D6F80403FFF7E6F80546B06C5A
:106A9000FFF7E2F82946FFF729F8FFF781FAFFF739
:106AA000DBF82146FFF72CF901462846FFF720F8CE
:106AB000FFF776FAF06350E6012388F828333DE7C4
:106AC000F7B50F4D002405F54B760E4F23462146B2
:106AD00022460094304601F049F93A460A493046C8
:106AE0000CF0E0FC9435094B28461C7001F0E8FDE1
:106AF000074928463A4603B0BDE8F0400CF0D2BC46
:106B0000D80B00207810002019610008E21F002037
:106B100025610008013101EB420291420BD0030FC5
:106B2000092B94BF3033373301F8013C00230001B7
:106B300001F8023BF1E770471F4B10B51A88032A92
:106B400004D804200146188006F010FC4FF00060C5
:106B50004FF4A04106F000FC0124184B18482146D0
:106B60001C7006F00FFE05F08FFC05F075F921464C
:106B7000402006F0BFFE6FF07F4005F0DFFAE7200F
:106B800005F058FB0F4B1C7005F0B0F97D2006F0A6
:106B9000D5FE18B10C4B1C7006F0E4FE40F6B83080
:106BA00005F0FEF905F054FF06F0DEF9074A01236F
:106BB0001370074A137010BD5820002034200020A5
:106BC00000043000641F0020FC290020EC1F00207E
:106BD000E21F002038B52F4C2388042B04D8052150
:106BE0000420218006F0C2FB2B4D2B7813B12B48DB
:106BF00002F026F92B7853B12388052B05D8254BB5
:106C000006210420198006F0B1FB02F09DF92B78D3
:106C100063B1234B1B784BB9224B1B7833B1224B0A
:106C20001B781BB9214B1B78002BE3D0204B1B7822
:106C3000002BDFD11F4B1B78002BDBD11B4B1B78AC
:106C4000012B0FD01C4B6BB12388062B05D8114BA1
:106C500007210420198006F089FBFFF731FC134B54
:106C600001221A70154B002BC4D02388072B05D89E
:106C7000084B08210420198006F078FBFFF740FD3F
:106C80002388082BB6D8034B09210420198006F06D
:106C90006DFBAFE758200020EC1F00209174000826
:106CA000A11F0020E21F0020621F0020100F002003
:106CB000631F0020FC290020C16400080167000850
:106CC000F8B5524B1A6812B11A68013A1A60504B63
:106CD000504D1B783BB1504B1B78002B28D04F4BAD
:106CE000002B47D124E04E4C2368264613B123687D
:106CF000013B0FE04B4B1B78D3B94B4B1B78BBB917
:106D00004A4B1B78A3B94A4F3B782BB1E72005F0DB
:106D100005FB142323600BE02B78002B2DD1E720FB
:106D200005F0B6FA434B1B78002B34D03223336086
:106D30002B7833B1404C23781BB92EE05A680132CE
:106D40005A603E4B1A68B2F57A7F0FD300221A6060
:106D500006F070FD3A4B4FF6FF711A888A4254D004
:106D600019800420BDE8F84006F000BB1A68013223
:106D70001A60F8BD00F0D6FBDAE7324B1B78002B27
:106D8000CDD04FF6FF7005F0D9F9E72005F052FAA3
:106D900001233B70CCE76423C9E7234B1B788BB1FD
:106DA000294B47F22F5259689142C7D9BFF34F8FF1
:106DB000264A274BD16801F4E0610B43D360BFF34F
:106DC0004F8FFEE7174D2B7803F0FF0633B930469F
:106DD00005F0BAFB40F6B73398420DD8002005F015
:106DE000B3FB41F657339842ABD9002005F0B4FB12
:106DF000184B01221A70A4E7304605F0ADFB23784A
:106E0000002B9ED101232B709BE7F8BD042A0020A4
:106E100014200020EC1F0020AC1200202575000873
:106E2000002A0020921F0020631F0020651F002001
:106E3000641F0020611F0020A11F0020082A0020DD
:106E400058200020621F0020100F002000ED00E0FD
:106E50000400FA05901F002008B5094B186005F0E2
:106E60009DFD002005F0E6FD064805F019F805F047
:106E7000ADFD05F0CBFDBDE8084007F059BC00BFF3
:106E800088020020A0860100074B1B68052B08D153
:106E9000064B1A7A012A04D1987A1B7BC01AC0B219
:106EA00070470020704700BF5C200020100F0020BA
:106EB0000D4B10B51B68052B13D10C4C237A012BFD
:106EC0000FD16289A389D31A012B04D10023032097
:106ED000237207F084FDA3895A1CA2811C44A07B65
:106EE00010BD4FF0FF3010BD5C200020100F0020BF
:106EF00008B50C4B1B68052B12D10B4B1A6D99185A
:106F00000132B2F5807F08BF002281F854001A6573
:106F100005F012FC20B16420BDE8084004F0C0BFB9
:106F200008BD00BF5C200020100F0020F8B5234BE7
:106F300093F85421012A3FD0D3F85821196DB2F5A6
:106F4000807F04BF0022C3F85821D3F858411B4A60
:106F50008C4203D1002382F85431F8BD8CBFC4F5B4
:106F60008071C4EB0101C2F85C11D3F85C61134D70
:106F7000402EA2B207D94034403EC5F85841C5F86A
:106F80005C61402706E034440021B7B2C5F858419F
:106F9000C5F85C110A4801241044C0213A4683F820
:106FA000544107F097FC2046394607F09BFD2046E8
:106FB000BDE8F84007F000BDF8BD00BF100F00208D
:106FC000640F0020094B10B593E8140008331B68C8
:106FD000D0180AD006490822FFF79CFD2046054933
:106FE0000422BDE81040FFF795BD10BDE8F7FF1F74
:106FF000370200204702002013B5084C0021009101
:107000000A460B46204600F0B1FE0549054A2046D7
:1070100002B0BDE810400CF045BA00BF701000206F
:10702000196100087810002038B504460D46AC42BE
:1070300003D254F8043B9847F9E738BD08B5074830
:107040000749FFF7F1FF07480749FFF7EDFFBDE8E4
:10705000084006480649FFF7E7BF00BFDC89010882
:10706000DC890108DC890108388A0108388A0108AE
:10707000388A01080DF0C4BC08B5072006F098F85E
:10708000FEE70000074A08B5136818441060064A76
:10709000904204D9082006F08BF80DF077FB1846D3
:1070A00008BD00BF14000020004800204FF0FF3052
:1070B00070470120704708B50C2006F079F8FEE70C
:1070C000014B1868704700BF7C100020064B024639
:1070D000582000FB013101F1080303CB106051601F
:1070E00018689060704700BF7C100020014BD3F8F7
:1070F000640170477C100020064B0246142000FB00
:10710000013101F5B67303CB1060516018689060CF
:10711000704700BF7C10002038B50546064C28B1EA
:1071200005F0AEF8012384F8303238BD05F056F88A
:1071300084F8305238BD00BF7C1000200E4B2DE982
:10714000F041D3F8647180460024BC4211DA142562
:107150006543094E414606F5B67028440C220EF0F0
:10716000CDFA20B93544D5F86801BDE8F081013485
:10717000EBE70020BDE8F0817C100020044B0122E9
:107180001A70044B00224FF4C0201A6005F0E6BCD0
:10719000631F0020140F0020034A00231370034ACA
:1071A000136005F039BD00BF631F0020140F0020DD
:1071B000024B00221A6005F0F9BC00BF140F00203A
:1071C0002DE9F04788B0804668460D4601F000F88A
:1071D0001E4B0024D3F800A054452DDA55B3582691
:1071E00066431A4F414607F1080030440C2207F16C
:1071F00004090EF083FAE8B928460EF04FFA06F1BA
:107200001003402834BF02464022294609EB030000
:10721000FEF70CFF3E44012386F85830694604A867
:10722000746800F0F7FF04A8A047044604A800F023
:107230008DFF03E00134CFE74FF0FF34684600F0E4
:1072400085FF204608B0BDE8F08700BF7C10002015
:1072500010B5064C206803F0DBF82368013303D037
:10726000431E5842584110BD012010BD1800002097
:1072700038B50B4B05461B780C466BB9094B1B7890
:1072800053B9FFF7E5FF034630B9074A29461068AE
:10729000224604F0AFF838BD4FF0FF3038BD00BFD4
:1072A000A01F0020A11F0020180000202DE9F041A0
:1072B000264B86B01B7880460F46002B41D1244BCD
:1072C0001B78002B3DD1FFF7C3FF0446002838D1BF
:1072D000204D8DF80C008DF80D008DF80E008DF806
:1072E0000F00286806AA460902EB8606012100F075
:1072F0001F02914056F80C2C01300A4346F80C2C22
:1073000041F28832059204AA009203A9224623463C
:10731000049403F045FF002815DD2B6806AA5909DF
:1073200002EB810151F80C5C03F01F02154115F0CE
:10733000010008D0184641463A46234603F0D0FFE4
:1073400001E04FF0FF3006B0BDE8F081A01F002043
:10735000A11F002018000020F0B5144985B0064692
:1073600000F036FF124B01AC93E8070084E80700F9
:107370000025675D30463B0903F13001392988BF9C
:1073800003F1570107F00F0700F066FF07F1300126
:10739000392988BF07F157013046013500F05CFFFD
:1073A0000C2DE6D1304605B0F0BD00BF3686010891
:1073B000E8F7FF1F30B51F48ADF57B7D07F0FBFBFD
:1073C000002834D11C4B17A805931C4B61AD0693C4
:1073D0001B4B049007931B4B0EAC08931A4B039561
:1073E00009931A4B0A931A4B0B931A4B0C931A4B93
:1073F0000D931A4B0E931A4B0F931A4B10931A4B73
:1074000011931A4B12931A4B13931A4B14931A4B52
:1074100015931A4B169305F045FC284605F048FCD9
:1074200000940448164903AA05AB07F0CBFB0DF501
:107430007B7D30BDB012002071720008AD72000873
:107440007D71000899710008E1CC0008B171000855
:1074500019710008957800083D830008C170000884
:10746000CD700008C1710008ED700008F9700008C7
:10747000317700083D710008BDCC0008D1CC000870
:10748000E8F7FF1F014808F0D1BA00BFB012002092
:1074900030B502208DB00146112203F095FD051E86
:1074A00028DB07A8144907F0DDFC0223ADF80C30F7
:1074B00016238DF80E3033238DF80F30E0238DF82E
:1074C000103000238DF8113001238DF81230BB23CA
:1074D0008DF81330032403AB009310230193284647
:1074E00007A91322002303F08FFF013CF3D12846A4
:1074F00003F09AFD0DB030BDE8F7FF1F38B5084C1A
:10750000FFF758FF204607F059FB204607F033FFEE
:107510000546FFF7BDFF204607F09CFE284638BD14
:10752000B012002038B5114CD4F8585B2DB1D4F806
:10753000583B013BC4F8583B38BDD4F85C3B0C4A7F
:1075400052F8230004F022FEE72004F073FE6423C7
:10755000084AC4F8583BD4F85C3B52680133934264
:10756000C4F85C3BA8BFC4F85C5B38BD7C1000204D
:10757000D0590108180000207FB502200121062201
:1075800003F022FD041E24DB0223ADF800300023AB
:107590008DF8023035238DF803304FF4FA5008236C
:1075A0008DF804308DF805308DF806308DF80730F1
:1075B00001F03EFC694610220546204603F0C2FD5C
:1075C0000646284601F034FC204603F02DFD3046E7
:1075D00001E04FF0FF3004B070BD000010B5064C64
:1075E0002068002805DB03F01FFD4FF0FF33236008
:1075F00010BD002010BD00BF18000020F0B5A7B0DE
:10760000FFF7ECFF02200121062203F0DDFC324FE0
:107610000028386050DB314D0223A5F8603B16236B
:1076200085F8623B05A8332385F8633B05F006FB2C
:10763000002300939DF814303BB1012B17D0284B49
:1076400001AC03F1100E224602E0069B009313E00A
:1076500018685968264603C6083373453446F7D17F
:107660000FCA06AC07C424F8023B1B0C23700A2483
:10767000009B0BB9013C22D1009B0BB9194B009325
:10768000009B4FF4FA501A0E85F8642B1A0C85F8FB
:10769000652B1A0A85F8673B85F8662B01F0C8FB55
:1076A000114904461022386803F04CFD0546204677
:1076B00001F0BEFB28460CE04FF0FF3009E006A8C1
:1076C0007E210EF075F86A4681B206A803F000FD2F
:1076D000CEE727B0F0BD00BF180000207C100020CE
:1076E0006C84010804E5D036DC1B00200F4B2DE92B
:1076F000F041D3F8647180460024BC4211DA1425AD
:1077000065430A4E414606F5B67028440C220DF03A
:10771000F5FF20B9354495F87801BDE8F0810134D2
:10772000EBE74FF0FF30BDE8F08100BF7C10002098
:1077300008B5FFF7DBFF013808289DBF024BC018D2
:10774000007F022008BD00BFD059010837B50B4C9F
:10775000002104F537650B4600910A46284600F0E3
:1077600005FB28460649074A0BF09CFE04F50D7000
:1077700003B0BDE8304007F009BA00BF7C1000201C
:10778000196100087810002014282DE9F3410446FF
:107790000E4675D8FF2973D000F0A0FC18B1A4F1F3
:1077A0000D03022B6CD900F067FA08B1012C67D9E0
:1077B00001F098F818B1A4F11203012B60D9182335
:1077C0006343314DEA18EF58304BB2F804809F42C2
:1077D00001D1042003E02E4B9F4203D10820012158
:1077E00006F094F8ADF80480062E45D8DFE806F0E0
:1077F000040F171F27313C0010238DF80730032397
:107800008DF80630182303FB0454002333E00423CF
:107810008DF80730182303FB045401232BE0482381
:107820008DF80730182303FB0454022323E0282398
:107830008DF80730182303FB045403231BE018239F
:1078400003228DF8073003FB04548DF8062004232F
:1078500011E01C238DF8073003238DF80630182320
:1078600003FB0454052306E000238DF8073018239A
:1078700003FB04540623A373384601A905F02AFF2D
:1078800002B0BDE8F08100BF2000002000080140E8
:10789000000C014005F05EBA30B54FF47A7385B044
:1078A0001C4C0093236805460344236005F052FAFC
:1078B000019005F0BFFF05F04DFA0290029A019B7E
:1078C000D31A0393039B002B03DA019B029A134400
:1078D0000393039BAB421AD20F4B1B78002BE8D0CB
:1078E0000E4B1B78002BE4D1039A009B9A4203D2E3
:1078F0002368B3F57A7FDCD3039B03F57A73009397
:1079000001F022FB064B1B78002BF9D1D1E705B023
:1079100030BD00BF9C1F0020EC1F0020A11F0020D5
:10792000631F002013B5084C002100910A460B4646
:10793000204600F01BFA0549054A204602B0BDE882
:1079400010400BF0AFBD00BF201C002019610008E3
:107950007810002038B5184B05461C8803F5806365
:107960001B88A4B29BB22BB94EF6EE62A21A18BFC6
:10797000012205E0F4B94EF6EE629B1A5A425A41D2
:1079800092020E4B02F1006404F5804413449C42C1
:107990000ED22268013209D1204605F07FFE04286C
:1079A00009D1A01C294605F079FE38BD0434EEE764
:1079B000802038BDAB2038BD00400008FE430008E1
:1079C00008B5084805F04CFE04280AD105480021F6
:1079D00005F064FE042804D1BDE80840024805F023
:1079E0003FBE08BD0040000800440008104B10B521
:1079F0001C8803F580631B88A4B29BB21CB10BB139
:107A0000AB2010BD01240B4BA40223440A4A22449C
:107A100093420AD91A8892B2824204D133F8023CC6
:107A200000200B8010BD043BF0E7012010BD00BF1B
:107A300000400008FE43000802400008F8B5444E2C
:107A400005F0CEFD434D34884EF6EE61A4B22B888E
:107A50008C429BB24FF6FF7210D0944202D0002CA1
:107A600073D142E00BB930466CE08B426DD13046A9
:107A700005F0F6FD04286AD1284632E04BBB1C46CF
:107A80001646354B354A1B8832F814509BB2AB4230
:107A900008BFA6B233B29C4203D10134642CF0D1AA
:107AA0000FE02E4F284607F1C801FFF79FFF01287E
:107AB000F3D02846B7F8C810FFF74CFF0428ECD0E5
:107AC000F8BD2348002105F0E9FD04283FD12148F5
:107AD00038E0934239D1284605F0C2FD042836D15A
:107AE0003046002105F0DAFDF8BD73B3934201D1B1
:107AF000284627E016461A4B184A1B8832F81450BD
:107B00009BB2AB4208BFA6B233B29C4203D1013450
:107B1000642CF0D10FE0114F284607F1C801FFF7A0
:107B200065FF0128F3D02846B7F8C810FFF712FF09
:107B30000428ECD0F8BD0748002105F0AFFD04286B
:107B400005D1034805F08CFDF8BDFFF739FFF8BDFE
:107B5000004000080044000806400008281C0020DF
:107B60000644000810B50446FFF768FF0023044AE6
:107B700022F813300133642BF9D1204610BD00BF29
:107B8000281C00200148FFF7EDBF00BFF21C0020B9
:107B9000024B18785B78C01A704700BFF41C0020B5
:107BA000064B5A781978914204D99918013288788D
:107BB0005A7070474FF0FF30704700BFF41C002030
:107BC000044B5A781978914286BF9B1898784FF0E9
:107BD000FF307047F41C002070470000014B036029
:107BE000704700BF405A010810B5034B04460360BC
:107BF000FFF740FA204610BD405A0108F8B5094B7E
:107C0000054693F82230164653B10C468F18BC42F5
:107C100006D02B6828469B6814F8011B9847F6E7A6
:107C20003046F8BDF41C002010B50C4B012293F82F
:107C300022408CB193F823401F2C02D942600020CF
:107C400010BD93F824001C1884F82510411CC9B2FB
:107C500083F8241083F82310104610BDF41C002074
:107C6000002242604FF47A728260014A02607047DB
:107C7000005A010870477047014B93F8590070474C
:107C8000F41C002073B50E4C002104F164050D4E68
:107C90000B4600910A46284600F068F86C343246DC
:107CA000094928460BF0FEFB2046FFF7D9FF07499C
:107CB0002046324602B0BDE870400BF0F3BB00BF77
:107CC000F41C00207810002019610008DD7B0008FA
:107CD00008B5034B53F8203003B1984708BD00BFE7
:107CE000701D002013B5084C002100910A460B4678
:107CF000204600F03BF80549054A204602B0BDE8A1
:107D000010400BF0CFBB00BFB01D00201961000870
:107D1000781000202DE9F041002407460E46254644
:107D20003B1919790A22304600F0F2F82E218046DC
:107D3000304600F094F801344044032C0544EFD160
:107D40003046F9790A2200F0E3F82844BDE8F081D2
:107D500010B5054A0446002140F8042B04220DF01A
:107D60008DF9204610BD00BF285A010830B5837137
:107D7000034D9DF80C30056001714271C37130BD37
:107D8000285A01080548064B06490360064A0023A5
:107D9000037143718371C3710BF084BBB81D002064
:107DA000285A0108196100087810002037B5064CE0
:107DB0000546E178A278637824780094FFF7D6FF2F
:107DC000284603B030BD00BFA81F002013B5084CE3
:107DD000002100910A460B462046FFF7C7FF0549E0
:107DE000054A204602B0BDE810400BF05BBB00BF67
:107DF000C01D00201961000878100020014B0360AD
:107E0000704700BF405A0108F8B506460C468F1867
:107E10000025BC4207D0336830469B6814F8011B2C
:107E200098470544F5E72846F8BD000010B5034B18
:107E300004460360FFF71EF9204610BD405A0108B2
:107E400038B505460C46084641B10DF027FC2B68B5
:107E50000246DB6828462146984738BD38BD08B53C
:107E600003689B68984708BD38B50D210546FFF7A4
:107E7000F6FF0A2104462846FFF7F1FF204438BDEB
:107E800030B500238BB08DF82430012A98BF0A2228
:107E90000DF12304B1FBF2F303FB1211CDB2092D56
:107EA00094BF30353735EDB2214604F801590BB196
:107EB0001946EFE7FFF7C4FF0BB030BDF8B5064633
:107EC0000D46144622B90368C9B29B689847F8BDAD
:107ED0000A2A0CD100290BDA2D21FFF7C0FF6942D5
:107EE000074622463046FFF7CBFF3844F8BDD2B2F2
:107EF000BDE8F840FFF7C4BF10B522B90268C9B2A7
:107F00009268904710BDD2B2BDE81040FFF7B8BFED
:107F1000FFF7F2BF2DE9F84319460646104614460E
:107F20001D469DF820700BF0C3FA10B93046444945
:107F300007E0204629460BF0BBFA012805D141494C
:107F40003046FFF77DFFBDE8F883204629464FF015
:107F500060423D4BFDF724FD10B130463B49F0E750
:107F6000204629464FF06042394BFDF7FBFC0028C4
:107F7000F3D12046294600220023FDF7F3FC40B14F
:107F800030462D21FFF76BFF05F1004380461D466B
:107F900000E080462F4B4FF0000900225FFA89F184
:107FA000B9420AD21046194600222B4BFDF792FB2C
:107FB00009F1010902460B46F0E720462946FDF784
:107FC000ADF80D460446FDF71DFD8146FDF7E2F9CB
:107FD00002460B4620462946FDF79EF80A22044633
:107FE0000D4630464946FFF74BFF804427B13046E7
:107FF0001A49FFF725FF8044F7B1174B00222046AE
:108000002946FDF73DFA0D460446FDF7D3FC8146AF
:108010000A2249463046FFF751FF80444846FDF7A3
:10802000C9F902460B4620462946FDF775F8013F7F
:1080300004460D46FFB2DFE74046BDE8F88300BFC7
:108040007C84010880840108FFFFEF4184840108DB
:10805000FFFFEFC10000E03F000024401B85010846
:1080600037B59DF8181004460091FFF753FF0546F9
:108070002046FFF7F9FE284403B030BD13B5084C85
:10808000002100910A460B462046FFF76FFE054986
:10809000054A204602B0BDE810400BF003BA00BF0D
:1080A000D01D0020196100087810002013B5084C7D
:1080B000002100910A460B462046FFF757FE05496E
:1080C000054A204602B0BDE810400BF0EBB900BFF6
:1080D000D81D00201961000878100020014B587D40
:1080E000704700BFE01D00207047000013B5084C2A
:1080F000002100910A460B462046FFF737FE05494E
:10810000054A204602B0BDE810400BF0CBB900BFD5
:10811000F81D0020196100087810002013B5084CE4
:10812000002100910A460B462046FFF71FFE054935
:10813000054A204602B0BDE810400BF0B3B900BFBD
:10814000041E0020196100087810002010B50446B4
:1081500000680CF055FC204610BD10B504460068C0
:1081600008B10CF04DFC00232360A360636010BDD8
:1081700038B504460D46006801310CF0EDFF10B132
:1081800084E82100012038BD036810B5044613B10E
:1081900043688B4207D22046FFF7EAFF20B1A3686D
:1081A0000BB922681370012010BD70B50E46114640
:1081B00004461546FFF7E8FF18B92046FFF7CDFF44
:1081C00004E0A560206831460DF00AFA204670BD33
:1081D00038B50023044603604360836003730D4693
:1081E00039B108460DF05AFA294602462046FFF7F3
:1081F000DCFF204638BD884210B50B46044607D048
:10820000096819B19A68FFF7D0FF01E0FFF7A5FFF1
:10821000204610BD10B50023044603604360836010
:108220000373FFF7E8FF204610BD70B5044685686C
:108230000E4609B9002070BD62B115442946FFF70A
:10824000A3FF0028F6D02068A368314618440DF03B
:10825000C7F9A560012070BD07B500238DF8041093
:10826000012201A98DF80530FFF7DFFF03B05DF8AB
:1082700004FB000013B5084C002100910A460B4690
:108280002046FFF773FD0549054A204602B0BDE8C8
:1082900010400BF007B900BF0C1E00201961000848
:1082A0007810002013B5084C002100910A460B46B7
:1082B0002046FFF75BFD0549054A204602B0BDE8B0
:1082C00010400BF0EFB800BF141E00201961000829
:1082D0007810002038B5184C94F92C305BB394F822
:1082E0002D3043B305F066FB94F82C2094F82D5004
:1082F00051B2002995FBF1F106DD01290BDC013AB1
:1083000084F82C20002307E0013104DB013284F8DB
:108310002C20022300E0012394F82D20013A84F858
:108320002D20C41805F078FB204605F055FBBDE86C
:10833000384005F071BB38BD1C1E002010B5044646
:1083400005F038FB001B00F17F02FE2A08D905F07A
:1083500063FB204605F040FBBDE8104005F05CBB28
:10836000054A80EAE073A3EBE0735B0082F82C001F
:1083700082F82D3010BD00BF1C1E002013B5084C24
:10838000002100910A460B462046FFF7EFFC054905
:10839000054A204602B0BDE810400BF083B800BF8C
:1083A0004C1E0020196100087810002013B5084CFD
:1083B000002100910A460B462046FFF7D7FC0549ED
:1083C000054A204602B0BDE810400BF06BB800BF74
:1083D000581E0020196100087810002008B50368B5
:1083E0009B6B984708BD0000024A02608A694260A0
:1083F000704700BF285A0108808B7047B0F83622BA
:10840000B0F83402101A70474B6802218283C1838E
:1084100080F82120110AC3F30722836180F82230FB
:1084200080F82320C3F307421B0E80F82530102369
:1084300080F8201080F82420036301207047012079
:10844000704713B5026802AB03F8011DD4681946E2
:108450000122A04702B010BD036810B51B69044695
:10846000984740B1B4F834325A1CA4F834221C4462
:1084700094F8340010BD4FF0FF3010BD036810B504
:108480001B690446984728B1B4F834321C4494F868
:10849000340010BD4FF0FF3010BD0023A0F834327F
:1084A000A0F83632704710B50446007C082801D089
:1084B00002F0BAFD0823237410BD13B5034603F17F
:1084C0001E04007C00941B6B0193002302F09CFFB0
:1084D00002B010BD036870B51B6904460E46154610
:1084E0009847C0B1236820461B699847854204D944
:1084F000236820461B6998470546B4F83412304675
:10850000214434312A46FDF791FDB4F834322B442E
:10851000A4F8343201E04FF0FF35284670BD7FB536
:1085200004460D4600F070FA0228064620D10146A6
:10853000112202F049FD23682074DB692046984728
:1085400000211022658268460CF098FD2B0A207CE1
:1085500069461022ADF800608DF802308DF80350A6
:1085600002F088FD002805DA236820465B6A9847F8
:10857000002000E0012004B070BD30B5036887B072
:108580001B6904469847054600285CD100F03CFA78
:10859000022858D1207C082855D0430906AA02EBAE
:1085A0008303012100F01F0291408DF80C508DF8DB
:1085B0000D508DF80E508DF80F5053F80C2C0130E3
:1085C0000A4343F80C2C41F28833059304AB009323
:1085D00003A92A462B46049502F0E2FD002832DD6D
:1085E000207C06AB420903EB820252F80C2C00F00F
:1085F0001F0342FA03F3DB0725D504F11E030093A2
:1086000004F13003019304F134014FF400722B465E
:1086100002F071FE002816DD94F8202094F8213035
:10862000A4F8345243EA0223A38394F82230A4F836
:108630003602237694F82330637694F82430A376B8
:1086400094F82530E376236820461B69984707B0E5
:1086500030BD00002DE9F04188B006460F46904637
:1086600000F0D2F902284FF0000422D108AD3846BC
:1086700045F8144D0DF012F82A4681B2384602F042
:1086800027FDA04215DD039B04A8DAB20092190E63
:10869000C3F30742C3F30723FFF768FB3368304691
:1086A0009C6A064B06A90693059B42460793A04782
:1086B00000E0204608B0BDE8F08100BF285A01085C
:1086C000002310B543604FF47A738360044B044673
:1086D0000360082303741430FFF73AFB204610BDF3
:1086E000585A010813B5084C002100910A460B4660
:1086F0002046FFF73BFB0549054A204602B0BDE88E
:1087000010400AF0CFBE00BF601E002019610008B3
:1087100078100020014B0360704700BF405A0108E9
:108720000369186C5B6CC01A00F03F007047036966
:10873000196C5A6C91421ABF5A6C985C4FF0FF301A
:1087400070470369196C5A6C914207D05A6C985C57
:108750005A6C013202F03F025A6470474FF0FF300A
:108760007047000010B5034B04460360FEF782FC1F
:10877000204610BD405A0108436910B50446196CE3
:108780005A6C9142FBD1237E13B90023237610BD8E
:108790000348402105F08DFB0028F6D1F3E700BF28
:1087A0000044004070B504460E462C4840F2277144
:1087B00005F085FB20B963691A6C5B6C9A4211D194
:1087C00063691D6C013505F03F0563695A6C95427C
:1087D0000FD0EFF31082D20732D5196C5A6C914248
:1087E00007D12DE01D4840F22771012205F041FB21
:1087F000E6E71A4840F2277105F061FB0028E4D053
:108800001648802105F055FB0028DED0134840F2C1
:108810002771002205F02DFB636910485A6C511C2A
:108820005964995C05F03DFB63690C485A6C40F251
:10883000277102F03F025A64012205F01AFBC4E7D7
:108840001A6C06489E54636940F227711D64012525
:1088500025762A4605F00DFB284670BD00440040F1
:1088600010B51E4840F2255105F029FB78B11B4890
:1088700005F01BFB1A4BC0B25A6D996D013202F024
:108880003F028A4203D0596D5A651944087513484E
:1088900040F2277105F013FBF8B1114CD4F89C207D
:1088A000D4F8A0309A4207D1BDE810400B4840F2FE
:1088B0002771002205F0DDBAD4F8A03007485A1C11
:1088C000234493F85C10C4F8A02005F0EAFAD4F829
:1088D000A03003F03F03C4F8A03010BD00440040B6
:1088E000681E0020014B187C704700BF681E0020E6
:1088F000F7B5164C002504F1A406154F2B46294662
:108900002A4600953046FFF731FA3A46304611497B
:108910000AF0C8FD4FF47A73C4F8B4300E4B0F4917
:10892000C4F8AC3004F11403C4F8BC3004F1AC005A
:1089300004F15C033A46C4F8B050C4F8C03084F87F
:10894000C45003B0BDE8F0400AF0ACBD681E002082
:108950007810002019610008A85A0108158700083E
:1089600070474FF0FF307047014B0360704700BF06
:10897000405A010810B5034B04460360FEF77AFB2A
:10898000204610BD405A0108FEF792BA08B5FEF71E
:108990007BFA08BD08B50846FEF7AAFA012008BD13
:1089A000002242604FF47A728260014A026070478E
:1089B000D05A01080846FEF74FBA000037B50D4CF3
:1089C00000210D4D0B4600910A462046FFF7CEF9D7
:1089D0002A460A49204608340AF064FD2046FFF77B
:1089E000DFFF074920462A4603B0BDE830400AF0C1
:1089F00059BD00BF301F0020781000201961000809
:108A00006989000870470000054B1B7803F0FF00E0
:108A10002BB1044B1B78002B14BF022001207047A0
:108A2000911F0020601F002037B50B4C00210B4D1B
:108A30000B4600910A462046FFF798F92A46204641
:108A400007490AF02FFD074904F108002A4603B040
:108A5000BDE830400AF026BD481F002078100020F5
:108A600019610008058A0008002303601846704752
:108A700000230360184670470023036018467047C0
:108A80002DE9F0410B7890B004460D4616462BB107
:108A9000032A54D8DFE802F002113C3C20460CF0D7
:108AA000FDFD0123024600200093019002900390F7
:108AB00004900590214603463DE008460CF0EEFD8B
:108AC00000264FEA50088DF81E60464505F1020564
:108AD00008AF0FD015F8023C07A88DF81C3015F828
:108AE000013C002110228DF81D300CF011FFB8550B
:108AF0000136EAE720460CF0D1FD002302460120B2
:108B00008DE841000293039304970593214612E0F8
:108B10000CF0C4FD074628460CF0C0FD01211822C8
:108B20001E234FF0020E8DE80E400590049530464E
:108B300021463A46002302F09FFD044B1870034B78
:108B400001225A7010B0BDE8F08100BF541F002010
:108B5000034610B548F21004A34208464CD00DDC81
:108B600048F20102934224D048F2020293422AD0F2
:108B7000992B64D1324B01229A7410BD48F28004C3
:108B8000A3420FD0B3F5084F49D048F240008342CA
:108B900055D12B4C04F11400FDF748FAA36A0133B8
:108BA000A36210BD264B01229A70DA7000221A715E
:108BB00010BD234C01236371FEF76CFE00F5EA4003
:108BC0003030A06010BD1E4C637963B1FEF762FEC9
:108BD00000F5EA403030A0604FF47F4003F0AEFA79
:108BE000E72003F027FB0023637123736373A373F0
:108BF000E3732374637410BD0A7D114B62B99A60EC
:108C00004FF47F4001221A731A7403F097FABDE8FB
:108C10001040E72003F00EBB00221A7310BD0021A4
:108C200000F0F3FF0121044601F036F8054B1B6804
:108C30009C4204D1024B0022DA739A735A7310BD1E
:108C4000541F0020180000201FB54FF461504FF44E
:108C500061610A2200238DE80F00064B44F6206272
:108C60001A60684601A902AA03AB01F0D7FC05B05F
:108C70005DF804FB102000201FB500230093019332
:108C80000293039301A8694602AA03AB01F08CFC8E
:108C900005B05DF804FB000070B500210A4C0E2001
:108CA00001F08EFD102510210E2001F089FD2A46CD
:108CB000204600210CF0E2F9294623460E2000222E
:108CC000BDE8704001F030BD801F002030B5524D2E
:108CD00000249FB0FF20AC70EC706C706C712C7332
:108CE000AC746C73AC73EC732C7403F027FAE7204C
:108CF00003F0A0FA21462246204602F099FC2B46BA
:108D0000012103F82D4F0E200A4601F00DFD6B796D
:108D1000012B05D1642003F0BBF801F0DDF8F6E784
:108D200010210C2001F04CFD3C4802F009F93C48B0
:108D300002F0F2FD012002F0D3FD6846394900F04F
:108D4000E9FDAB786A78344C1A4317D194F83C307B
:108D5000002B57D0FF2002F075FD002852D11A24B5
:108D6000013C06D0E72003F093FA322003F090F89C
:108D7000F6E7FFF791FF85F83C40E2E7E72003F0D4
:108D800059FA04F12C030E200121002201F09EFC6F
:108D9000A37813B102F0E0FD20702B78012101339C
:108DA00085F82C300022204B0E2001F0BDFC002065
:108DB00001240146012202F03BFC214622461B4BC6
:108DC0000E2085F82D4001F0AFFC02F0B5FB6420C9
:108DD00003F05EF8002002F079FB85F83D404FF487
:108DE0007F4000242C7403F0A9F9E72003F022FA55
:108DF00048F2042002F042FDFFF726FF85F83E40CE
:108E00001FB030BDE72003F043FAFA2003F040F82A
:108E1000684600F0DBFD94E7541F0020F05A01087B
:108E20001C020020818A0008801F0020811F002072
:108E3000024B1A6818601046704700BF10200020CF
:108E40007FB5364C0025206403F0D8FC03F018FCF5
:108E5000334B344A0093344B34490193344B3548F7
:108E60000293354B0393354B02F018FB642003F05B
:108E70000FF8002002F02AFB012348F2042084F8B6
:108E80003D30257402F0FAFC2D4B1A881E46012A4B
:108E900031D00E2010212A4604F12C0301F016FCDB
:108EA000102828D123791D4DABB995F82C301BB96A
:108EB000012385F83E300EE095F82D0058B90146A3
:108EC000012202F0B5FB01212B4603F82D1F0E20D5
:108ED0000A4601F029FC2379BBB9104B93F83E30C8
:108EE0009BB1184801F052FCFFF7C6FE04B0BDE884
:108EF0007040FFF7A9BEFF2002F0A4FCFFF7CCFEF4
:108F00000023338003F0D2FDCCE74FF47F4003F021
:108F100015F9E72003F08EF9E3E700BF541F0020A6
:108F200039C70008718A00084DC70008698A00081F
:108F3000B9C70008518B0008E1C70008798A00080A
:108F40006A030020981F00202DE9F341AE4C04F085
:108F500071FC0023A36494F84C304BB994F84D3065
:108F600033B9A3687BB3FEF795FCA36898422AD374
:108F700094F83D30A44D002B40D000266E71AE60B9
:108F80002E732E6585F84C60012785F83D606E7361
:108F9000AE73EE736E7402F0CFFA6FF07F402F74F1
:108FA00003F0CCF8E72003F045F9642002F070FFED
:108FB00095F83E3013B3304602F088FA85F83D70DC
:108FC000FFF784FE1AE094F83D308F4DB3B92B794A
:108FD0002BB9FEF75FFC00F5EA403030A8600020B6
:108FE00002F074FA012384F83D304FF47F400023EF
:108FF000237403F0A3F8E72003F01CF994F83E3043
:10900000814E13B1FFF762FE05E033791BB1337B6C
:1090100003F0FF05FBB1E2787B4B012A13D11A7BE9
:10902000012A10D15B79012B0DD1032577480CF073
:1090300035FB013D82B27549012002F0F1F915F0CE
:10904000FF05F3D1E570237B6F4DE3B195F84D300B
:10905000002B74D017E029462A462846B56002F056
:10906000E7FA6B480CF01AFB6A4F804638460CF062
:1090700015FB00970190791F032042462B4602F012
:1090800071FA3571C7E794F8573023B1624800216F
:109090003A220BF0F3FF94F88E205B4B32B95A7BE7
:1090A000002A58D19B7B002B55D1BBE01A7BFAB12B
:1090B00093F84D20E2B95A7B002A5CD018E02B4689
:1090C00003F82F2F0E200121032201F02DFB002693
:1090D0004FF6FF70267403F031F8E72003F0AAF88A
:1090E000FEF78CFAB042484D65DB01232E656B73A9
:1090F000637B454D002B00F09580AB7BBBB9FEF741
:10910000FDF9002811D002DA4FF47F0007E00128B2
:1091100001D1424803E0022803D14FF0FF1003F0D1
:109120000DF8E72003F086F801E00123AB73FEF7AA
:10913000A9F9002876D1E073A073607372E095F806
:109140005730002BA7D1642002F0A2FE05F1540095
:1091500001F0AAFA9FE7FEF741FA00234FF47F409F
:10916000E373A373637302F0E9FFE72002B0BDE885
:10917000F04103F05FB85B7C002BA8D04FF47F0078
:1091800002F0DCFF637C204D03F0FF02002B96D041
:10919000E72003F04FF84FF4FA7002F079FEE72071
:1091A00003F056F84FF4FA7002F072FE6B7C013B4C
:1091B000DBB26B74E6E795F84C309BBB2B6D01334B
:1091C000022B2B6504BF012385F84C30FEF7D4F940
:1091D00000280ADA236D0133022B236503D10A4BE1
:1091E000012283F84C20022300E003236374637C94
:1091F0000E2084F82F300121094B032201F094FA4C
:109200000023637374E700BF541F00201F02002077
:10921000260200202B020020A81F00200060FF0073
:10922000831F002002B0BDE8F08100BF13B5084CD9
:10923000002100910A460B462046FEF797FD05499E
:10924000054A204602B0BDE810400AF02BB900BF25
:10925000E41F00201961000878100020704708B54D
:10926000012003F0A5FFFEE708B5032003F0A0FFEF
:10927000FEE708B5042003F09BFFFEE708B50520D4
:1092800003F096FFFEE770477047704708B503F09C
:1092900059FDBDE80840FDF713BD000008B5024BBD
:1092A0000BB1AFF3008008BD0000000008B5024B11
:1092B0000BB1FFF7D5FA08BD6188000808B5024B6D
:1092C0000BB1FEF7D7FC08BD757C000808B5024B52
:1092D0000BB1FEF7D0FC08BD777C000808B5024B47
:1092E0000BB1FEF701FF08BDE980000808B50120B9
:1092F00004F062F938B1012004F06CF9024B13B1AB
:109300000020FEF7E5FC08BDD17C000808B502206E
:1093100004F052F938B1022004F05CF9024B13B1A9
:109320000120FEF7D5FC08BDD17C000808B504205B
:1093300004F042F978B1042004F04CF90020064B07
:109340000146188003F02CF8BDE8084003481021BE
:10935000012204F046BD08BD30200020002C014051
:1093600008B5082004F028F938B1082004F032F9D3
:10937000024B13B10320FEF7ABFC08BDD17C000803
:1093800008B5102004F018F938B1102004F022F9C3
:10939000024B13B10420FEF79BFC08BDD17C0008F2
:1093A00008B5202004F008F938B1202004F012F9A3
:1093B0000E4B13B10520FEF78BFC402004F0FCF8A7
:1093C00038B1402004F006F9084B13B10620FEF72F
:1093D0007FFC802004F0F0F838B1802004F0FAF827
:1093E000024B13B10720FEF773FC08BDD17C0008C7
:1093F00008B54FF4005004F0DFF840B14FF40050CE
:1094000004F0E8F8174B13B10D20FEF761FC4FF4A0
:10941000804004F0D1F840B14FF4804004F0DAF815
:10942000104B13B10E20FEF753FC4FF4004004F034
:10943000C3F840B14FF4004004F0CCF8094B13B12D
:109440000F20FEF745FC4FF4006004F0B5F838B18A
:109450004FF4006004F0BEF8BDE8084002F0A2BC82
:1094600008BD00BFD17C000808B50F48102104F0EA
:10947000F1FCC0B10C48102104F0F7FC002003F00F
:1094800053F828B9094B1A880A3292B21A8008BDDB
:1094900005481021002204F0A4FCBDE8084000208B
:1094A000012102F07DBF08BD002C014030200020CA
:1094B00008B5024B1B6803B1984708BDF01F002098
:1094C00008B5024B5B6803B1984708BDF01F002048
:1094D00008B5024B9B6803B1984708BDF01F0020F8
:1094E00008B5012004F0AEFA50B1012004F0BAFA38
:1094F000044B0BB1FEF7EEFEBDE8084004F08CBA59
:1095000008BD00BFD582000808B5022004F09AFA11
:10951000B0B10C4B00224FF400301A7004F05AF82E
:10952000012004F0B1F910B1012004F0B7F904F002
:1095300073FA022004F096FABDE8084004F06CBA11
:1095400008BD00BFA11F002002F0BEBB00F064B840
:1095500038B514490B78012B23D1134A13680BB982
:109560000B7038BD114C402B206881B205D94030BA
:10957000403B20601360402504E09DB2034423601B
:10958000002313600A482A460844C02105F0A2F9C6
:109590000120294605F0A6FABDE83840012005F073
:1095A0000BBA38BD641000206C1000206810002039
:1095B000640F002008B5094B01221A70084B0022E5
:1095C00003201A8005F0BCFA064B024618804FF4BF
:1095D00088710548BDE8084005F094B9180F0020CF
:1095E0001C0F00201A0F00201E0F0020084B1B68C4
:1095F000052B0BD1074B1A68052A02F1010101D096
:109600001960704700221A60FDF790BC704700BFD8
:109610005C200020FC1F002070B52B4D2B4C2B68CC
:109620002B4E9BB22380228833881340990508D59E
:109630004FF6FF532B60A3780133DBB2A370FFF723
:10964000D5FF2288338813401A0401D505F08CF821
:109650002288338813405B0505D54FF6FF332B6016
:109660001C4B5B689847228833881A40900444BF9B
:109670004DF6FF722A6022881340D90405D54EF6B4
:10968000FF732B60002003F051FD228833881340C4
:109690001A050BD5104B1B7813B103F027FD02E020
:1096A000022003F043FD4FF2FF732B6022883388C2
:1096B0001340DB0507D54FF6FF632B600720BDE89D
:1096C000704003F033BD70BD445C004000200020BA
:1096D000482A00209002002090030020034B9B7A30
:1096E00013B1034B05221A60704700BF242A0020E3
:1096F0005C200020014B04221A6070475C2000208F
:10970000034B1A78202A04BF00221A70704700BF4A
:109710000420002070470000212810B508D1114B0B
:109720001B681B7803F07F03212B10D0022010BD93
:109730002028FBD10B4B0C4A1B681B78107003F0E0
:109740007F03212B094B18BF00230BB9EEE7084B11
:10975000044A0024126820469361548298472046A8
:1097600010BD00BF442A002004200020C19700083B
:10977000A9970008074B1B681B7803F07F03212B78
:1097800006D100F0DF0002280CBF00200220704745
:1097900002207047442A002021B9022834BF00204B
:1097A000022070470220704720B9034B08221B6833
:1097B0001A82704701487047442A0020880200201E
:1097C00020B9034B08221B681A8270470148704772
:1097D000442A00208802002010B5FDF7F3FB054B5A
:1097E00000241B689C7203F069FC05F0BFF9024B72
:1097F0001C6010BD442A00205C200020334B344AFA
:109800001B68D27910B500245A729C72DC72204613
:1098100005F08AF820464FF4007105F08DF82046D7
:10982000102105F097F82046402105F02FF98021FE
:10983000204605F01BF9204605F0E4F8254B2046AC
:1098400093F8341005F05CF9204605F0C8F80120C3
:10985000214605F071F80120C02105F007F901202B
:10986000202105F077F80120214605F08CF8022030
:109870004FF4C06105F060F802204FF4807105F0EC
:10988000F5F80220214605F07EF80220202105F09F
:1098900061F80320214605F04FF803204FF488714A
:1098A00005F0F4F80320402105F02AF903204FF4D5
:1098B000405105F068F80320214605F04BF820469A
:1098C00004F0E6FE044B01221A6010BD442A002079
:1098D0005D5B0108880200205C200020014904F043
:1098E000D3BC00BFC0020020014904F0CDBC00BFC2
:1098F000C8020020054B1B68DB78042B04D8044900
:1099000001EBC30104F0C0BC00207047442A0020D2
:10991000D002002038B504460D46FFF741F8204636
:1099200025614FF41651FFF745F8204638BD70B554
:1099300006460D46002428460BF0B0FE844208D2AD
:10994000295D3046FFF726F8012002F0A1FA013424
:10995000F1E770BD2DE9F04104460E469046002522
:109960002046FFF713F80028FADD2046FFF70CF831
:109970004545C1B206D10023337020461249FFF796
:10998000D6FF15E00D29F6D00A29F4D0082901D018
:109990007F2904D1002DE3D0771E013D02E0771C22
:1099A000317001352046EDB2FEF7F4FF3E46D7E7B1
:1099B0002046FEF7EBFF002803DD2046FEF7E4FF1C
:1099C000F6E7BDE8F08100BF34860108F0B585B048
:1099D0000446FEF7DBFF002840F39B802046FEF79D
:1099E000D3FFC0B2772867D104F1140600212122E9
:1099F000304604F135050BF041FB41220021284699
:109A00000BF03CFB04F17607002384F87630204607
:109A100041497B70FFF78BFF204631462022FFF73C
:109A200099FF20463D49FFF782FF01222046394633
:109A3000FFF790FF94F87630A3F13002032AF0D8B4
:109A4000312B0BD120463649FFF771FF20463549AF
:109A5000FFF76DFF20463449FFF769FF94F8762041
:109A6000B2F1300708D020463049FFF760FF2046AA
:109A700029464022FFF76EFF20462D49FFF757FF8A
:109A800023693A4630462946984720462949FFF738
:109A90004EFF20462849FFF74AFF20462749FFF797
:109AA00046FF20462649FFF742FF20462549FFF79B
:109AB0003EFF2046244927E069282AD1234B01ADE7
:109AC00093E8070085E8070020462149FFF72FFFAC
:109AD0000026AF5D20463B0903F13001392988BFDC
:109AE00003F1570107F00F07FEF754FF07F13001AC
:109AF000392988BF07F1570120460136FEF74AFF92
:109B00000C2EE6D11349204605B0BDE8F040FFF722
:109B10000EBF05B0F0BD00BF888401088F84010826
:109B2000BC840108F28401081D85010863850108D1
:109B30006E850108B1850108D185010804860108F8
:109B40003786010876860108A7860108E8F7FF1F17
:109B5000BD8601083486010813B5084C0021009128
:109B60000A460B462046FEF701F90549054A2046FC
:109B700002B0BDE8104009F095BC00BF08200020ED
:109B80001961000878100020002100F004B80E4B85
:109B90005B58435004310D480D4B42189A42FFF474
:109BA000F6AF0C4A00F003B8002342F8043B0A4B1E
:109BB0009A42FFF4F9AF03F007FAFCF7BDFFFDF797
:109BC0003DFAFDF707F87047388A010800000020C9
:109BD000D80B0020D80B0020542A0020FFF7FEBF2E
:109BE0000B0A017043700B0C090E8370C1700430B6
:109BF00070470170090A41700230704743185A7863
:109C0000435C03EB022080B2704710B543189A788A
:109C1000DC78415C120402EB046258780A4402EBDF
:109C2000002010BD73B544790023022C01930FD09E
:109C3000032C19D0012C2BD1164D2B692E4623B1A4
:109C40002B6901A898470246B8B9B16801201BE00A
:109C5000104DEB682E4623B1EB6801A898470246E9
:109C600058B9B16802200FE00A4D6B692E464BB11E
:109C70006B6901A89847024620B1A9682046BDF843
:109C8000043003E0B16803200022134600F028FCF2
:109C900002B070BD8C210020072830B512D80129F0
:109CA00010D8EFF3108472B60125854001FA00F058
:109CB000054B1A6822EA050202431A602346DB07B5
:109CC00000D462B630BD00BF1803002070B501217A
:109CD00086B00546FFF792FF4304044629D5B0F548
:109CE000824F26D128460521FFF788FF05EB80002B
:109CF000EE1D0024C51DAE4206D030460221FFF7FE
:109D00007DFF04360444F6E7724B1A8E224492B269
:109D10001A86DA6B1444DC63D96B9A6B914240F07B
:109D2000CA8093F84020002A00F0C5809B699920E2
:109D300031E024F4FF4020F07F0080B2002800F0E2
:109D4000978048F210039C4228D00CD8B4F5004FFD
:109D500040F2BC8048F202039C4215D948F2040349
:109D60009C4211D0B2E048F280039C420CD004D84F
:109D700048F240039C424FD0A8E0B4F5024F03D014
:109D8000B4F5084F6BD0A1E0524B9A69002A00F05D
:109D900092809B69204600210A4667E00023EA186A
:109DA00052790DF803200133042BF8D16B7A05F1B9
:109DB0000D008DF80430AB7A8DF80530EB7A8DF814
:109DC00006302B7B8DF80730002300AA1A44C15CB3
:109DD0000133042B1172F8D105F11100002300AA00
:109DE0001A44C15C0133042B1173F8D105F115003D
:109DF000002300AA1A44C15C0133042B1174F8D16A
:109E00002B798DF81430334B9A69002A53D09B6913
:109E100020466946152229E0053500212846FFF72E
:109E2000F4FE042100902846FFF7EFFE0821019080
:109E30002846FFF7EAFE0C2102902846FFF7E5FED0
:109E4000102103902846FFF7E0FE224B04909A6908
:109E5000002A30D09B6920466946142206E01D4B3B
:109E60009A6942B39B692046691D0122984722E006
:109E700041F203039C4205D0A4F580530E3B9BB2F4
:109E8000012B1AD86C1D20460421FFF7BEFE393085
:109E90001CD12A790F4B00212046DA62FFF7B5FE6C
:109EA000042105462046FFF7B0FE393003D128468D
:109EB0000121FFF7F1FE012009E0064B1B889BB250
:109EC0009C4204D0B4F5805FF5D100E0002006B0DC
:109ED00070BD00BF8C21002070B50E4C6688B6B2F4
:109EE000B6B1606805782B1F5D425D412DB1FFF76B
:109EF000EDFE003018BF012000E02846064618B9E4
:109F000035B194F841301BB90023638001F0F2FDB4
:109F1000304670BD8C2100202DE9F04F85B00446FD
:109F20008A46914602F016FF00250190DFF808836B
:109F3000B8F8023046469BB2002B40F0938003F005
:109F400079FC02F007FF0290029A019BD31A039357
:109F5000039B002B03DA019B029A13440393B54B36
:109F60001B68002BE2D0039A9A42DFD3338841F278
:109F700007029BB2934227D841F20602934261D274
:109F800040F2022293425DD00FD80C2B08D8082B48
:109F900058D2002B4FD0062B88BF00235AD851E04F
:109FA0000D2B4CD040F201220BE041F20202934211
:109FB0004BD8B3F5805F45D8B3F5017F3FD940F268
:109FC0000722934237D13AE041F21102934236D050
:109FD00014D841F20B02934234D005D841F2090261
:109FE00093422FD031D82AE041F20F0293422CD075
:109FF00028D841F20D02934227D01CE042F206021B
:10A0000093421CD007D8B3F5005F14D942F2040282
:10A01000934221D813E0B3F5804F00F0F38105D8C7
:10A02000A3F50053083B012B09D904E044F20B02CD
:10A03000934200F0E7810B2003F0BAF8E2E1FF233E
:10A040002370DFE14FF0FF3304E04FF0FF33236074
:10A050006360D7E12360D5E1204600213A220BF06E
:10A060000DF8CFE1D8F804603378042B40F07D81FF
:10A0700001213046FFF7C2FD05463046FFF726FEB8
:10A080000146002840F0668141F207039D4206F137
:10A09000050752D841F206039D4280F0AC8040F2A1
:10A0A00002239D4200F0A78011D80C2D09D8082D5D
:10A0B00080F0A180002D00F04D81062D00F2E88097
:10A0C00099E00D2D00F0948040F201237EE041F2F2
:10A0D00002039D4218D8B5F5805F00F28C80B5F57B
:10A0E000017F40F2858040F207239D4240F032819B
:10A0F0003379384604F8013B0021FFF786FD01461D
:10A100002046FFF76DFD25E141F204039D4200F07A
:10A11000958040F2AB8000213846FFF776FD0421A0
:10A1200020603846FFF771FD083444F8040C06F14E
:10A130000D03224606F11D0175E041F211039D4217
:10A1400056D02BD841F20B039D4254D01CD841F27B
:10A1500009039D424FD000F2968000213846FFF758
:10A1600054FD042120603846FFF74FFD0821606050
:10A170003846FFF74AFD0C21A0603846FFF745FD41
:10A1800004F10C0BE060E4E041F20F039D426DD05E
:10A1900037D841F20D039D4250D0DBE042F2050377
:10A1A0009D4200F0998007D841F212039D4235D0BC
:10A1B000B5F5005F1CD8CDE042F209039D4208D8F6
:10A1C00042F208039D4213D242F206039D420FD091
:10A1D000C0E044F20B039D4240F0BC8073793846E6
:10A1E0000121A8F83030FFF709FDA8F83200B1E0EE
:10A1F00033792370AEE038460021FFF706FD20607A
:10A20000A8E000213846FFF700FDA3464BF8040BF9
:10A2100004213846FFF7F9FC60609AE03846FFF702
:10A22000EDFC208096E053F8040B8B4242F8040BBF
:10A23000F9D18FE0102000208C2100200021384629
:10A24000FFF7E3FC042120603846FFF7DEFC08211D
:10A2500060603846FFF7D9FCE36804F1080B393336
:10A26000A06076D10121FFF717FD72E0002138468A
:10A27000FFF7CBFC042120603846FFF7C6FC08340A
:10A2800044F8040C66E0337923713B68236061E095
:10A2900000213846FFF7B9FC042120603846FFF75B
:10A2A000B4FC082160603846FFF7A8FC0A21A060D2
:10A2B0003846FFF7A3FC0C3444F8020C06F11103F6
:10A2C000224606F1350153F8040B8B4242F8040B89
:10A2D000F9D11B8813803DE073185B796354013119
:10A2E0000429F9D106F109000023C15CE218013309
:10A2F000042B1171F9D106F10D000023C15CE218A5
:10A300000133042B1172F9D106F111000023C15C55
:10A31000E2180133042B1173F9D106F11500002363
:10A32000C15CE2180133042B1174F9D106F1190054
:10A330000023C15CE2180133062B1175F9D106F137
:10A340001F000023C15CE2180133202B9176F9D164
:10A3500000E05C46B8F800202C4B92B2954237D111
:10A3600000221A8083F8412032E0B8F836309BB2E0
:10A3700073B33046032196F802B0FFF73FFC07465F
:10A38000BAF1000F0CD00421701DFFF73EFC02460D
:10A39000C9F8000006F115015046D2B2FBF746FE9F
:10A3A000CBEB07077B1EB3F5806F07D20BF10501DE
:10A3B000204631443A46FBF739FE01E04FF0FF37C3
:10A3C000B9F1000F01D089F800700023A8F83630E9
:10A3D0000023A8F8023001F08DFB3378042B05D15F
:10A3E000B5F5805F02D13046FFF71CFCB8F80030AD
:10A3F0009BB2002B7FF49AAD044BDB8E9BB2002BFB
:10A400007FF494AD002005B0BDE8F08F8C210020D2
:10A4100007284FF001030FD8EFF3108272B603FA4A
:10A4200000F0064B1968134608420CBF00200120BB
:10A43000DB0702D462B67047184670471803002045
:10A44000034B1880084600210A46FFF765BD00BF90
:10A450008C21002010B5034B0124DC86BDE81040A0
:10A46000FFF75ABD8C21002038B50346154601225E
:10A470004A710C46881D1946FFF7BBFB291D057064
:10A48000204601F0A7FB002038BD38B5BDF81450B8
:10A490000C462B44D518ADB202216171A071E27156
:10A4A000294604F10800FFF7A4FB691D204689B284
:10A4B00001F090FB002038BD38B513440C469DB226
:10A4C00002216171A0712946E27104F10800FFF7D1
:10A4D00090FB691D204689B2BDE8384001F07ABB87
:10A4E0002DE9F84F1C4604F1020B032301F1070983
:10A4F0001FFA8BFB88710D464B714846594616462C
:10A50000FFF777FBB4F57A7F824605F10B0812D886
:10A510002146FFF76EFB21465046FFF76AFB3146A6
:10A5200040462246FBF782FDA11D284689B2BDE8C0
:10A53000F84F01F04FBB4FF47A77B4FBF7F30BEB16
:10A54000430189B2FFF755FB39465046FFF751FBEF
:10A55000314640463A46FBF769FDA4F57A74284631
:10A5600040F2EE31A4B23E4401F034FBB4F57A7F00
:10A5700084BFA4F57A74A7B2A84688BF4FF47A7452
:10A58000314628F8054F4846224698BF0027FBF77A
:10A590004DFDA11C404689B2264401F01BFB0FB1C2
:10A5A0003C46E3E7BDE8F88FF7B51E46FF238DF87C
:10A5B0000730194B00259C68475D63190135042D50
:10A5C0005F72F9D100200D5C2318013004285D73FF
:10A5D000F9D10021505C6318013104295874F9D174
:10A5E00004F115000021FFF7FBFA0022B35C83544D
:10A5F0000132042AFAD12146142242F20100FFF767
:10A6000033FF42F201000DF10701FFF719FF9DF939
:10A61000070003B0F0BD00BF8C2100202DE9F341FD
:10A620001F46FF238DF807301E4B0646D3F80880DF
:10A6300033680C46013B082B9CBF0A2333600B6830
:10A6400008F10900013B082B9CBF0A230B6013682B
:10A650001546013B082B9CBF0A2313603B68013B56
:10A66000082B9CBF0A233B603168FFF7B9FA2168C9
:10A67000FFF7B6FA2968FFF7B3FA3968FFF7B0FABF
:10A680004146142242F20900FFF7EEFE42F20900B1
:10A690000DF10701FFF7D4FE9DF9070002B0BDE8F8
:10A6A000F08100BF8C21002010B5074B044699684B
:10A6B00042F205000022FFF7D7FE214642F20500D4
:10A6C000BDE81040FFF7BCBE8C2100202DE9F3410E
:10A6D0001F4602ACFF2304F8053D124B86469D68D9
:10A6E0000E4605F1090071469046FFF779FA3146AA
:10A6F000FFF776FA4146FFF773FA29460C2240F23B
:10A700000120FFF7B1FE214640F20120FFF798FE3D
:10A710003846002101AAFFF79DFE019802B0BDE86E
:10A72000F08100BF8C2100202DE9F341984602AD55
:10A730004FF0FF3345F8043D134B86469E680C46A8
:10A7400006F10A0071461746FFF74AFA0C21FFF797
:10A7500047FA2146FFF744FA3946FFF741FA4146E6
:10A76000224606F11A00FBF761FC31461022A3B223
:10A770009020FFF7A1FE40F202202946FFF760FE7D
:10A78000019802B0BDE8F0818C21002013B50B4B7D
:10A7900004469968002240F20720FFF765FE40F268
:10A7A00007206946FFF74CFE9DF803309DF8000036
:10A7B00023709DF80430637002B010BD8C2100201E
:10A7C00037B50E4A034694680D4604F10900194650
:10A7D000FFF706FA2946FFF703FA2146082240F25E
:10A7E0000320FFF741FE40F203200DF10701FFF7C0
:10A7F00027FE9DF8070003B030BD00BF8C2100206C
:10A800002DE9F0430023CA5CC2540133102BFAD166
:10A810000022344B467B991891F801800178847BA3
:10A8200088EA01089919C97A90F80CC088EA0108E9
:10A830001919CF7A417880F810804F40C17B477456
:10A840005D1895F80B908578634489EA050593F8BF
:10A850000B90C378FFB289EA030390F804908574E3
:10A8600088EA090890F80590EDB287EA090790F8A0
:10A870000690C37485EA090590F80790DBB283EA75
:10A88000090390F8089080F814805FFA88F888EA45
:10A89000090890F809904775FFB287EA090790F810
:10A8A0000A908575EDB285EA090590F80B90C3759D
:10A8B000DBB283EA0903013288EA0C0C7E406C406B
:10A8C00059400A2A80F8188047768576C37680F842
:10A8D0001CC046778477C17700F1100099D1BDE89C
:10A8E000F08300BFB25B010810F0800F4FEA400018
:10A8F00018BF80F01B00C0B2704700002DE9F04F78
:10A9000091F8A03090F800A042788AEA030A80F813
:10A9100000A091F8A13097B053404370827807931C
:10A9200091F8A23090F8049053408370C278059358
:10A9300091F8A33046795340C370069391F8A43040
:10A94000827989EA030980F8049091F8A53090F89B
:10A9500008805E40467191F8A630477A5340837173
:10A96000C279089391F8A73004465340C3710C9301
:10A9700091F8A8304FF0000B88EA030880F80880AF
:10A9800091F8A9305F404772827A91F8AA3053401B
:10A9900083720993C07A91F8AB3094F80CC04340AD
:10A9A000E3720D9391F8AC3094F80DE08CEA030C4F
:10A9B00084F80CC091F8AD30A57B8EEA030E84F8C4
:10A9C0000DE091F8AE30E27B5D40A57391F8AF30B9
:10A9D0005A40464BE2739A449AF80B0191F890A0C2
:10A9E000994480EA0A00207099F80BA191F894909C
:10A9F00098448AEA090984F8049098F80B9191F830
:10AA000098809C4489EA080884F808809CF80B81A7
:10AA100091F89CC09E4488EA0C0C84F80CC09EF807
:10AA20000BC191F891E01F448CEA0E0E97F80BC110
:10AA300091F89D701E448CEA0707677396F80B71B6
:10AA400091F899601D447E406672079E0D981E44E1
:10AA500096F80B7191F8956084F801E07E4066717C
:10AA6000059E18441E4496F80B7191F89A60774041
:10AA7000089E1E4496F80BE191F89E608EEA060649
:10AA8000DDF824E09E449EF80BC191F892E08CEA38
:10AA90000E0E84F802E095F80BE191F89650A7723B
:10AAA0008EEA0505A571069DA6731D4495F80B61F8
:10AAB00091F89F5075400C9E1E4496F80B7191F8CA
:10AAC000936013447E40E67090F80B6191F8970014
:10AAD0007040E07193F80B2191F89B30CDF81CB0D9
