:020000040800F2
:1050000000500020C19B00084D9200084F920008FC
:1050100059920008639200086D9200080000000099
:10502000000000000000000000000000779200086F
:1050300079920008000000007B9200087D92000831
:10504000159C0008159C0008159C0008E1940008B8
:10505000159C0008159C0008ED9200080D930008AF
:105060002D9300086193000881930008159C0008A7
:10507000159C0008159C0008159C0008499500081F
:10508000159C0008159C00088D920008159C0008CE
:105090004D950008159C0008159C0008A193000878
:1050A000159C0008159C0008159C000869940008D0
:1050B000B1940008C1940008D1940008BD92000882
:1050C000CD920008159C0008159C0008DD92000890
:1050D000159C00089D920008AD920008159C0008E0
:1050E000F193000809950008159C000800000000D5
:1050F00000000000000000000000000000000000B0
:0C51000000000000000000005FF808F153
:1051100081F0004102E000BF83F0004330B54FEA68
:1051200041044FEA430594EA050F08BF90EA020FD5
:105130001FBF54EA000C55EA020C7FEA645C7FEA68
:10514000655C00F0E2804FEA5454D4EB5555B8BF8B
:105150006D420CDD2C4480EA020281EA030382EAFC
:10516000000083EA010180EA020281EA0303362D8E
:1051700088BF30BD11F0004F4FEA01314FF4801C61
:105180004CEA113102D0404261EB410113F0004F73
:105190004FEA03334CEA133302D0524263EB43032A
:1051A00094EA050F00F0A780A4F10104D5F1200EC8
:1051B0000DDB02FA0EFC22FA05F2801841F1000123
:1051C00003FA0EF2801843FA05F359410EE0A5F1F7
:1051D00020050EF1200E012A03FA0EFC28BF4CF028
:1051E000020C43FA05F3C01851EBE37101F00045DE
:1051F00007D54FF0000EDCF1000C7EEB00006EEBEB
:105200000101B1F5801F1BD3B1F5001F0CD3490874
:105210005FEA30004FEA3C0C04F101044FEA4452CB
:1052200012F5800F80F09A80BCF1004F08BF5FEA52
:10523000500C50F1000041EB045141EA050130BD32
:105240005FEA4C0C404141EB010111F4801FA4F1D5
:105250000104E9D191F0000F04BF01460020B1FA2A
:1052600081F308BF2033A3F10B03B3F120020CDA62
:105270000C3208DD02F1140CC2F10C0201FA0CF040
:1052800021FA02F10CE002F11402D8BFC2F1200CA5
:1052900001FA02F120FA0CFCDCBF41EA0C0190405B
:1052A000E41AA2BF01EB0451294330BD6FEA0404A4
:1052B0001F3C1CDA0C340EDC04F11404C4F120028F
:1052C00020FA04F001FA02F340EA030021FA04F3A1
:1052D00045EA030130BDC4F10C04C4F1200220FAF8
:1052E00002F001FA04F340EA0300294630BD21FA36
:1052F00004F0294630BD94F0000F83F4801306BFFC
:1053000081F480110134013D4EE77FEA645C18BFEF
:105310007FEA655C29D094EA050F08BF90EA020F86
:1053200005D054EA000C04BF1946104630BD91EA7E
:10533000030F1EBF0021002030BD5FEA545C05D181
:105340004000494128BF41F0004130BD14F58004C0
:105350003CBF01F5801130BD01F0004545F0FE4134
:1053600041F470014FF0000030BD7FEA645C1ABF69
:10537000194610467FEA655C1CBF0B46024650EAA0
:10538000013406BF52EA033591EA030F41F40021CC
:1053900030BD00BF90F0000F04BF0021704730B552
:1053A0004FF4806404F132044FF000054FF0000127
:1053B00050E700BF90F0000F04BF0021704730B5E8
:1053C0004FF4806404F1320410F0004548BF4042BD
:1053D0004FF000013EE700BF42004FEAE2014FEA12
:1053E00031014FEA02701FBF12F07F4393F07F4FED
:1053F00081F06051704792F0000F14BF93F07F4F1F
:10540000704730B54FF4607401F0004521F0004161
:1054100020E700BF50EA010208BF704730B54FF0E7
:1054200000050AE050EA010208BF704730B511F0EC
:10543000004502D5404261EB41014FF4806404F124
:1054400032045FEA915C3FF4DCAE4FF003025FEAA6
:10545000DC0C18BF03325FEADC0C18BF033202EB2E
:10546000DC02C2F1200300FA03FC20FA02F001FA88
:1054700003FE40EA0E0021FA02F11444C1E600BF27
:1054800070B54FF0FF0C4CF4E06C1CEA11541DBFDA
:105490001CEA135594EA0C0F95EA0C0F00F0DEF8A5
:1054A0002C4481EA030621EA4C5123EA4C5350EA8A
:1054B000013518BF52EA033541F4801143F48013DB
:1054C00038D0A0FB02CE4FF00005E1FB02E506F06C
:1054D0000042E0FB03E54FF00006E1FB03569CF0C1
:1054E000000F18BF4EF0010EA4F1FF04B6F5007FC7
:1054F00064F5407404D25FEA4E0E6D4146EB060639
:1055000042EAC62141EA55514FEAC52040EA5E50C1
:105510004FEACE2EB4F1FD0C88BFBCF5E06F1ED86B
:10552000BEF1004F08BF5FEA500E50F1000041EBA2
:10553000045170BD06F0004646EA010140EA02004F
:1055400081EA0301B4EB5C04C2BFD4EB0C0541EA71
:10555000045170BD41F480114FF0000E013C00F386
:10556000AB8014F1360FDEBF002001F0004170BDAA
:10557000C4F10004203C35DA0C341BDC04F11404C3
:10558000C4F1200500FA05F320FA04F001FA05F24F
:1055900040EA020001F0004221F0004110EBD3701C
:1055A00021FA04F642EB06015EEA430E08BF20EA48
:1055B000D37070BDC4F10C04C4F1200500FA04F3EB
:1055C00020FA05F001FA04F240EA020001F000417D
:1055D00010EBD37041F100015EEA430E08BF20EAF0
:1055E000D37070BDC4F1200500FA05F24EEA020E38
:1055F00020FA04F301FA05F243EA020321FA04F067
:1056000001F0004121FA04F220EA020000EBD3701D
:105610005EEA430E08BF20EAD37070BD94F0000F1D
:105620000FD101F00046400041EB010111F4801F51
:1056300008BF013CF7D041EA060195F0000F18BF02
:10564000704703F00046520043EB030313F4801F3E
:1056500008BF013DF7D043EA0603704794EA0C0FF8
:105660000CEA135518BF95EA0C0F0CD050EA41060E
:1056700018BF52EA4306D1D181EA030101F000418B
:105680004FF0000070BD50EA410606BF10461946B3
:1056900052EA430619D094EA0C0F02D150EA0136BF
:1056A00013D195EA0C0F05D152EA03361CBF104600
:1056B00019460AD181EA030101F0004141F0FE419F
:1056C00041F470014FF0000070BD41F0FE4141F423
:1056D000780170BD70B54FF0FF0C4CF4E06C1CEA23
:1056E00011541DBF1CEA135594EA0C0F95EA0C0FD8
:1056F00000F0A7F8A4EB050481EA030E52EA033593
:105700004FEA013100F088804FEA03334FF08055B3
:1057100045EA131343EA12634FEA022245EA1115E0
:1057200045EA10654FEA00260EF000419D4208BF91
:10573000964244F1FD0404F5407402D25B084FEA3E
:105740003202B61A65EB03055B084FEA32024FF4EA
:1057500080104FF4002CB6EB020E75EB030E22BF47
:10576000B61A754640EA0C005B084FEA3202B6EB07
:10577000020E75EB030E22BFB61A754640EA5C00B6
:105780005B084FEA3202B6EB020E75EB030E22BF46
:10579000B61A754640EA9C005B084FEA3202B6EB47
:1057A000020E75EB030E22BFB61A754640EADC0006
:1057B00055EA060E18D04FEA051545EA16754FEA68
:1057C00006164FEAC30343EA52734FEAC2025FEA86
:1057D0001C1CC0D111F4801F0BD141EA00014FF015
:1057E00000004FF0004CB6E711F4801F04BF0143E6
:1057F0000020B4F1FD0C88BFBCF5E06F3FF6AFAE02
:10580000B5EB030C04BFB6EB020C5FEA500C50F191
:10581000000041EB045170BD0EF0004E4EEA113114
:1058200014EB5C04C2BFD4EB0C0541EA045170BD1B
:1058300041F480114FF0000E013C90E645EA060E5F
:105840008DE60CEA135594EA0C0F08BF95EA0C0F8D
:105850003FF43BAF94EA0C0F0AD150EA01347FF4D5
:1058600034AF95EA0C0F7FF425AF104619462CE7AC
:1058700095EA0C0F06D152EA03353FF4FDAE10460F
:10588000194622E750EA410618BF52EA43067FF460
:10589000C5AE50EA41047FF40DAF52EA43057FF4F0
:1058A000EBAE12E74FF0FF3C06E000BF4FF0010CFB
:1058B00002E000BF4FF0010C4DF804CD4FEA410C5F
:1058C0007FEA6C5C4FEA430C18BF7FEA6C5C1BD02C
:1058D00001B050EA410C0CBF52EA430C91EA030FAD
:1058E00002BF90EA020F0020704710F1000F91EA0A
:1058F000030F58BF994208BF90422CBFD8176FEAD8
:10590000E37040F0010070474FEA410C7FEA6C5CA5
:1059100002D150EA013C07D14FEA430C7FEA6C5CAC
:10592000D6D152EA033CD3D05DF8040B704700BFD8
:105930008446104662468C461946634600E000BF26
:1059400001B5FFF7B7FF002848BF10F1000F01BDF8
:105950004DF808EDFFF7F4FF0CBF012000205DF8C3
:1059600008FB00BF4DF808EDFFF7EAFF34BF012048
:1059700000205DF808FB00BF4DF808EDFFF7E0FFE1
:1059800094BF012000205DF808FB00BF4DF808ED32
:10599000FFF7CEFF94BF012000205DF808FB00BF99
:1059A0004DF808EDFFF7C4FF34BF012000205DF87B
:1059B00008FB00BF4FEA410212F5001215D211D5C3
:1059C0006FF47873B3EB625212D94FEAC12343F0FC
:1059D000004343EA505311F0004F23FA02F018BF7E
:1059E000404270474FF00000704750EA013005D147
:1059F00011F0004008BF6FF0004070474FF000000A
:105A0000704700BF4A0011D212F5001211D20DD515
:105A10006FF47873B3EB62520ED44FEAC12343F0B4
:105A2000004343EA505323FA02F070474FF000005E
:105A3000704750EA013002D14FF0FF3070474FF00D
:105A4000000070474FEA4102B2F1E04324BFB3F5D2
:105A5000001CDCF1FE5C0DD901F0004C4FEAC002E5
:105A60004CEA5070B2F1004F40EB830008BF20F0C9
:105A70000100704711F0804F21D113F13872BCBF83
:105A800001F00040704741F480114FEA5252C2F1D8
:105A90001802C2F1200C10FA0CF320FA02F018BF21
:105AA00040F001004FEAC1234FEAD32303FA0CFC74
:105AB00040EA0C0023FA02F34FEA4303CCE77FEA03
:105AC000625307D150EA01331EBF4FF0FE4040F44D
:105AD0004000704701F0004040F0FE4040F40000FC
:105AE000704700BF80F0004002E000BF81F000413D
:105AF00042001FBF5FEA410392EA030F7FEA226C74
:105B00007FEA236C6AD04FEA1262D2EB1363C1BF03
:105B1000D218414048404140B8BF5B42192B88BF72
:105B2000704710F0004F40F4000020F07F4018BF95
:105B3000404211F0004F41F4000121F07F4118BFB5
:105B4000494292EA030F3FD0A2F1010241FA03FC5D
:105B500010EB0C00C3F1200301FA03F100F0004345
:105B600002D5494260EB4000B0F5000F13D3B0F10D
:105B7000807F06D340084FEA310102F10102FE2A7C
:105B800051D2B1F1004F40EBC25008BF20F00100EC
:105B900040EA03007047490040EB000010F4000F9A
:105BA000A2F10102EDD1B0FA80FCACF1080CB2EB2D
:105BB0000C0200FA0CF0AABF00EBC250524218438C
:105BC000BCBFD0401843704792F0000F81F4000131
:105BD00006BF80F400000132013BB5E74FEA410304
:105BE0007FEA226C18BF7FEA236C21D092EA030F70
:105BF00004D092F0000F08BF0846704790EA010FEA
:105C00001CBF0020704712F07F4F04D1400028BF16
:105C100040F00040704712F100723CBF00F50000F8
:105C2000704700F0004343F0FE4040F4000070472E
:105C30007FEA226216BF08467FEA236301464202DA
:105C400006BF5FEA412390EA010F40F480007047ED
:105C50004FF0000304E000BF10F0004348BF404293
:105C60005FEA000C08BF704743F0964301464FF0CF
:105C700000001CE050EA010208BF70474FF000032B
:105C80000AE000BF50EA010208BF704711F000436C
:105C900002D5404261EB41015FEA010C02BF84463C
:105CA0000146002043F0B64308BFA3F18053A3F59B
:105CB0000003BCFA8CF2083AA3EBC25310DB01FAE2
:105CC00002FC634400FA02FCC2F12002BCF1004F66
:105CD00020FA02F243EB020008BF20F001007047F7
:105CE00002F1200201FA02FCC2F1200250EA4C004B
:105CF00021FA02F243EB020008BF20EADC70704791
:105D00004FF0FF0C1CEAD0521EBF1CEAD15392EA9E
:105D10000C0F93EA0C0F6FD01A4480EA010C40027A
:105D200018BF5FEA41211ED04FF0006343EA5010D4
:105D300043EA5111A0FB01310CF00040B1F5000F16
:105D40003EBF490041EAD3715B0040EA010062F1C5
:105D50007F02FD2A1DD8B3F1004F40EBC25008BFAF
:105D600020F00100704790F0000F0CF0004C08BFCD
:105D700049024CEA502040EA51207F3AC2BFD2F19A
:105D8000FF0340EAC250704740F400004FF00003A8
:105D9000013A5DDC12F1190FDCBF00F000407047E2
:105DA000C2F10002410021FA02F1C2F1200200FA20
:105DB00002FC5FEA310040F1000053EA4C0308BFE7
:105DC00020EADC70704792F0000F00F0004C02BF38
:105DD000400010F4000F013AF9D040EA0C0093F0B3
:105DE000000F01F0004C02BF490011F4000F013B0D
:105DF000F9D041EA0C018FE70CEAD15392EA0C0F7B
:105E000018BF93EA0C0F0AD030F0004C18BF31F0E5
:105E1000004CD8D180EA010000F00040704790F0BB
:105E2000000F17BF90F0004F084691F0000F91F05F
:105E3000004F14D092EA0C0F01D142020FD193EA25
:105E40000C0F03D14B0218BF084608D180EA0100AD
:105E500000F0004040F0FE4040F40000704740F089
:105E6000FE4040F4400070474FF0FF0C1CEAD05257
:105E70001EBF1CEAD15392EA0C0F93EA0C0F69D0B3
:105E8000A2EB030280EA010C49024FEA402037D01E
:105E90004FF0805343EA111143EA10130CF0004015
:105EA0008B4238BF5B0042F17D024FF4000C8B4205
:105EB00024BF5B1A40EA0C00B3EB510F24BFA3EBE5
:105EC000510340EA5C00B3EB910F24BFA3EB9103B5
:105ED00040EA9C00B3EBD10F24BFA3EBD10340EA0F
:105EE000DC001B0118BF5FEA1C1CE0D1FD2A3FF655
:105EF00050AF8B4240EBC25008BF20F0010070470A
:105F00000CF0004C4CEA50207F32C2BFD2F1FF03AC
:105F100040EAC250704740F400004FF00003013ADD
:105F200037E792F0000F00F0004C02BF400010F481
:105F3000000F013AF9D040EA0C0093F0000F01F095
:105F4000004C02BF490011F4000F013BF9D041EAB7
:105F50000C0195E70CEAD15392EA0C0F08D14202EA
:105F60007FF47DAF93EA0C0F7FF470AF084676E7BD
:105F700093EA0C0F04D14B023FF44CAF08466EE796
:105F800030F0004C18BF31F0004CCAD130F0004264
:105F90007FF45CAF31F000437FF43CAF5FE700BFBC
:105FA0004FEA4002B2F1FE4F0FD34FF09E03B3EB26
:105FB00012620DD94FEA002343F0004310F0004F66
:105FC00023FA02F018BF404270474FF000007047BC
:105FD00012F1610F01D1420205D110F0004008BF5B
:105FE0006FF0004070474FF00000704742000ED243
:105FF000B2F1FE4F0BD34FF09E03B3EB126209D404
:106000004FEA002343F0004323FA02F070474FF0B9
:106010000000704712F1610F01D1420202D14FF02E
:10602000FF3070474FF00000704700BF014B036026
:10603000704700BFD8720108024A034942610160FB
:10604000704700BFD8720108F0720108034B10B509
:106050000446036000F0A6FF204610BDD872010878
:1060600008B50A20002101F053FB0B20002101F0AC
:106070004FFB0E20002101F04BFB0F20002101F00F
:1060800047FB1020002101F043FB1120002101F00B
:106090003FFB0020014601F03BFB01200021BDE851
:1060A000084001F035BB00002DE9F041142888B00C
:1060B000054600F2A780554B182404FB0034A36862
:1060C000002B00F09F80A07BE0B1042840F09A8074
:1060D0004F480288501C4143FF2291FBF2F1A289F4
:1060E00088B20AB998868DE0042A01D1188789E020
:1060F000082A01D1988785E00C2A40F08380A3F814
:1061000040007FE0434A444F1668B6FBF7F8404E24
:1061100008F1FF3330881FFA83F8421C4A430120FC
:10612000FF2192FBF1F7014607F00EFC04212846FF
:1061300001F0EEFAA468BFB2B4F1804F02D10120A1
:10614000014608E0354B02209C4203D0344884428B
:1061500003D10420012107F003FC2C49182202FB83
:1061600005143688A068ADF8086001A90026ADF8CE
:106170000480ADF80A60ADF8066007F0E5FC602326
:106180000120ADF81030ADF81200ADF81860ADF890
:106190001670A68904F1080846B9A06804A907F09A
:1061A0001DFDA068082107F059FE1FE0042E08D14C
:1061B000A06804A907F056FDA068082107F056FE64
:1061C00014E0082E08D1A06804A907F08FFDA0688C
:1061D000314607F055FE09E00C2E07D1A06804A94E
:1061E00007F0C6FDA068082107F052FE07491822F3
:1061F00002FB05150121A86807F024FEA86801210B
:1062000007F0FDFD08B0BDE8F08100BF20000020D0
:1062100000000020BC03002000366E010004004096
:106220000008004038B503460C460B2019461546B9
:10623000FFF73AFF0E202146FFF736FF0F202946D1
:10624000BDE83840FFF730BF024B1A68501C186099
:10625000704700BF8C040020064B5A68904201DC56
:10626000013005E0821A012A02D099688A189A60E2
:10627000586070478C04002070B52D4EF068FFF711
:10628000ABF827A3D3E90023FFF7FAF804463069F7
:106290000D46FFF7A1F824A3D3E90023FFF7F0F898
:1062A00002460B4620462946FEF738FFFFF7CAFB99
:1062B000F060FFF791F81AA3D3E90023FFF7E0F8A5
:1062C0000446B0690D46FFF787F817A3D3E900230A
:1062D000FFF7D6F802460B4620462946FEF71EFF7A
:1062E000FFF7B0FB7061F069FFF776F80CA3D3E914
:1062F0000023FFF7C5F80446306A0D46FFF76CF837
:1063000009A3D3E90023FFF7BBF802460B4620465A
:106310002946FEF703FFFFF795FBF06170BD00BF54
:10632000666666666666EE3F9A9999999999A93F5D
:106330008C040020AFF3008037B501F075FA1A4CD9
:10634000A36A6062C01AB0F57A7F2CDDFFF732F8DD
:106350000022164BFFF7BEF9FFF774FB05462068D5
:10636000FFF77AFC2946FFF77FFD2062FFF734F83C
:106370000B460221024600910D4801F03DFEE06A05
:10638000FFF76AFC2946FFF76FFD2061A068FFF761
:1063900063FC2946FFF768FDA061606A0022A062E5
:1063A000E262A26022603EBD8C04002000408F406B
:1063B000E417002010B501F037FA084C2063FFF70E
:1063C0004FFE322305206363A363E36323646364A6
:1063D000A364BDE8104001F029BA00BF8C0400207E
:1063E000052001F023BA0000044B054910B504460E
:1063F0004361016000F0D6FD204610BDD87201084F
:10640000F0720108F7B50F4D002405F14C060E4F50
:106410002346214622460094304601F071FC3A465C
:106420000A4930460DF07EF85435094B28461C7059
:1064300002F014F9074928463A4603B0BDE8F04097
:106440000DF070B88C040020280900202D60000891
:106450008E1800203960000830B58BB00446FFF775
:10646000F3FE6148002118220EF00CFE5E48234620
:1064700004F11805024659681868083303C2AB4294
:106480001046F7D1594C684601F02CFCD4F8941210
:1064900008120B0E0A148DF80600D4F8A0028DF82D
:1064A00007108DF804308DF80520FFF7D5FE94F81D
:1064B0008C12012952D801F0B7F9D4F89052C4F8DF
:1064C000A4024B4902A8C4F8A85201F03BFC9DF875
:1064D0000D309DF80C0019049DF80F2041EA00656D
:1064E0009DF80E00154345EA0023E169E5686269FD
:1064F00006A8C4F8AC32C4F8B012C4F8B852C4F854
:10650000B42200F0D3FE04F52F700699089A0EF01D
:1065100096FD384D3848019B049004A904F15400BD
:10652000AA88059301F03EFF04F5297104F535743E
:1065300025460B4603CB616020600834AB42194608
:10654000F7D12E48302200F5207101F09EFF2B4834
:1065500001F043FF06A801F0C5FD42E0022940D149
:1065600094F89832226C934209D194F89902616CA4
:10657000884204D194F89A02A26C904231D01B4C0C
:10658000D4F89C22BAB1606BA16BC4F80403C4F8C0
:106590000813E06B236494F89A1294F89932C4F8C3
:1065A0001023C4F80C036364A16401F03DF9D4F82E
:1065B0001023801813E094F8990294F89A12C4F802
:1065C0000433C4F80803C4F80C1323646064A164A2
:1065D0006363A063E163C4F8102301F025F9C4F8F4
:1065E00014030BB030BD00BF180700208C0400203E
:1065F0007816002000000020D8720108E004002076
:1066000070B51C4C04F1540001F055FF054678B3F9
:10661000182819D0182390FBF3F603FB16053DBB91
:10662000B54210DA134C182204F5467104F15400F7
:1066300001F006FF04F54670FFF70EFF01F0F4F8D5
:1066400001352063ECE770BD00212A4604F5467051
:106650000EF018FD04F546712A4604F1540001F0CD
:10666000EFFE04F54670FFF7F7FE01F0DDF820635A
:1066700070BD00BF8C0400202DE9F74FA44CFFF73C
:10668000FBFD226C636B9A4207D1606CA16B884260
:1066900003D1A56CE26B954212D001F0C5F8D4F895
:1066A00014439B4EA04204D8D6F81033002B40F080
:1066B0003B819748016C426C836C41638263C36386
:1066C00001F0B2F8934DAC68A042914C09D294F815
:1066D000300318B10020FF210246C6E00146FF2228
:1066E000C3E001F0A1F8216BEA68401A904240F241
:1066F000B68001F099F8FEF74DFE0022864BFEF7BA
:10670000E9FF0CF049FF0D46044601F08DF8FEF755
:1067100041FE75A3D3E90023FEF7DCFF0CF03CFF3C
:106720008B46824601F080F8FEF734FE00227A4B59
:10673000FEF7D0FF0CF030FF0F46064601F074F86C
:10674000FEF728FE6AA3D3E90023FEF7C3FF0CF08F
:1067500023FF002280468946304639466F4BFEF7BC
:106760008FFE00226D4BFEF7D9FC63A3D3E9002313
:10677000FEF786FE002206460F46684B4046494615
:10678000FEF77EFE0022654BFEF7C8FC5CA3D3E952
:106790000023FEF775FE02460B4630463946FEF7EB
:1067A000BDFC06460F4601F03FF8FEF7F3FD4EA391
:1067B000D3E90023FEF78EFF0022594BFEF7AEFC13
:1067C0000CF0EAFE0022554BFEF75AFE0022534B16
:1067D000FEF7A4FC0022514BFEF752FE02460B4688
:1067E00030463946FEF79AFC47A3D3E90023FEF76B
:1067F00047FEFFF727F9FFF7F9FB2946C6B200224B
:106800002046464BFEF73CFE0022444BFEF786FC3A
:106810000022424BFEF734FE002204460D463F4B59
:1068200050465946FEF72CFE00223C4BFEF776FC04
:1068300000223A4BFEF724FE02460B46204629462C
:10684000FEF76CFC30A3D3E90023FEF719FEFFF737
:10685000F9F8FFF7CBFB3146C2B2002005E094F80F
:10686000340094F8381094F83C20294CFFF7DAFCF7
:106870002C49684694F8305301F064FA9DF80430CE
:106880002146002B40F0D2809DF80500002840F002
:10689000CD809DF80620002A40F0C8809DF8073082
:1068A000002B40F0C38084F83033194890F830133F
:1068B00031B14DB9174A5430118A01F06AFE03E034
:1068C00015B1543001F0EDFD114B93F8300310B1C8
:1068D000FFF796FE01E0FFF783FDFFF72DFDBDE812
:1068E000FE8F00BFAFF30080000000000088C340AF
:1068F00000000000006CA1409A9999999999B93FBC
:106900009A9999999999D93F0000000000E06F4049
:106910008C0400200000002000408F400000E03F79
:1069200000C082407816002000F07EFF201AFFF79A
:106930008FF90746D6F81003FFF78EF9014638465F
:10694000FFF792FA01464FF07E50FFF7CFF8074667
:10695000FEF742FD02460B46FEF792FD04460D4649
:106960004FF07E503946FFF7C1F8FEF735FD02467D
:106970000B46FEF785FD02460B4620462946FEF7EC
:10698000CDFB02460B4620462946FEF7A3FEFFF745
:1069900059F80446D6F80403FFF75EF90546306C53
:1069A000FFF75AF92946FFF7A1F8FFF7F9FAFFF7C1
:1069B00053F92146FFF7A4F901462846FFF798F856
:1069C000FFF7EEFA7063D6F80803FFF745F90546BE
:1069D000706CFFF741F92946FFF788F8FFF7E0FAF6
:1069E000FFF73AF92146FFF78BF901462846FFF7F2
:1069F0007FF8FFF7D5FAB063D6F80C03FFF72CF950
:106A00000546B06CFFF728F92946FFF76FF8FFF746
:106A1000C7FAFFF721F92146FFF772F90146284628
:106A2000FFF766F8FFF7BCFAF06349E6012081F84A
:106A300030033AE7AFF3008010B5013100239342F1
:106A40000ED0040F092C01D8303400E0373401F89F
:106A5000014C01330024000101F8024BDBB2EEE7E8
:106A600010BD00001F4B10B51A88032A04D804205B
:106A70000146188006F08AFC4FF000604FF4A041F8
:106A800006F07AFC1848012421460470174806F0E5
:106A900091FE05F017FD05F0FFF92146402006F0B4
:106AA00047FF6FF07F4005F063FBE72005F0DCFB5C
:106AB0000F490C7005F038FA7D2006F05DFF18B123
:106AC0000C4B1C7006F06CFF40F6B83005F084FAF1
:106AD00005F0D6FF06F050FA074A08490120107069
:106AE000087010BD04190020E018002000043000D8
:106AF0000C1800207C220020981800208E180020FE
:106B0000304B10B51A88042A04D8052104201980B6
:106B100006F03CFC2C48017811B12C4802F088F9B1
:106B2000294C237853B127480288052A04D8062126
:106B30000180042006F02AFC02F0FEF9217861B100
:106B4000234C23784BB92348027832B122490C7880
:106B50001CB9224B18780028E2D0214A117800296C
:106B6000DED1204C2378002BDAD11C480278012A90
:106B70000FD01D4969B1134C2388062B04D8072177
:106B80000420218006F002FCFFF714FC134A0120C8
:106B9000107016490029C3D00A4C2388072B04D84B
:106BA00008210420218006F0F1FBFFF765FD208815
:106BB0000828B5D8034A09210420118006F0E6FB15
:106BC000AEE700BF0419002098180020E573000804
:106BD0004D1800208E1800200A180020C007002041
:106BE0000B1800207C220020B5630008796600089D
:106BF000524B70B51A6812B11868411E1960504B9B
:106C00001A783AB14F4A1078002829D04E49002905
:106C100049D125E04D4C206810B12368591E0FE082
:106C20004B490B78E3B94B4A1078C8B94A490B78FD
:106C3000B3B94A4D2A782AB1E72005F08FFB142119
:106C400021600DE04648017800292FD1E72005F0AA
:106C500039FB44483D4B0178002935D032221A6077
:106C60003F4B1A7832B1404D287818B92EE0416870
:106C70004B1C43603D490B68B3F57A7F0FD300236B
:106C80000B6006F0F5FD3A484FF6FF7102888A4224
:106C900053D001800420BDE8704006F077BB08683F
:106CA000421C0A6070BD00F001FCD9E7314B1A7834
:106CB000002ACBD04FF6FF7005F05AFAE72005F016
:106CC000D3FA01202870CBE76422C8E721490B786A
:106CD00093B1294847F22F5243689342C7D9BFF373
:106CE0004F8F264C2648E56805F4E06646EA000228
:106CF000E260BFF34F8FFEE7154E347834B920467B
:106D000005F040FC40F6B73290420DD8002005F067
:106D100039FC41F657318842ACD9002005F03AFCE5
:106D2000184B01201870A5E7204605F033FC2A789F
:106D3000002A9FD1012131709CE770BD8422002080
:106D4000C01800205C0B0020AD74000880220020D9
:106D50003C1800200B1800200D1800200C180020F3
:106D600098180020091800204D18002088220020C3
:106D7000041900200A180020C007002000ED00E0E0
:106D80000400FA053A18002008B5094B186005F010
:106D900021FE002005F066FE064805F0A1F805F08A
:106DA0002FFE05F04DFEBDE8084007F001BD00BF15
:106DB000C8020020A0860100074B1868052808D1EA
:106DC00006490A7A012A04D1887A0B7BC11AC8B213
:106DD00070470020704700BF08190020C00700203E
:106DE0000D4B10B51868052813D10C4C217A0129D8
:106DF0000FD16289A389D01A012804D10021032070
:106E0000217207F040FEA389E218591C907BA181F2
:106E100010BD4FF0FF3010BD08190020C007002042
:106E200008B50C4B1968052912D10B4B1A6D99182E
:106E300081F85400501CB0F5807F08BF0020186511
:106E400005F098FC20B16420BDE8084005F048B882
:106E500008BD00BF08190020C007002070B5234AF4
:106E600092F85431012B3FD0D2F85801B0F5807F11
:106E700002D10021C2F85811D2F85831126D1B48C6
:106E8000934203D1002180F8541170BD8CBFC3F52B
:106E90008072C3EB0202154CC0F85C21D4F85C513F
:106EA00099B2402D07D94033403DC4F85831C4F859
:106EB0005C51402606E0E8180023AEB2C4F8580141
:106EC000C4F85C310A4A01255018C021324684F8C2
:106ED000545107F04FFD2846314607F055FE28462D
:106EE000BDE8704007F0BEBD70BD00BFC007002008
:106EF00014080020094B10B593E8140008331868F3
:106F000010180AD008220649FFF796FD05492046C9
:106F10000422BDE81040FFF78FBD10BDE8F7FF1F4A
:106F2000770200208702002013B5084C0021009151
:106F30000A460B46204600F0E3FE0549054A204676
:106F400002B0BDE810400CF0EDBA00BF20090020EF
:106F50002D6000082809002038B50D460446AC42D3
:106F600003D254F8043B9847F9E738BD08B5074801
:106F70000749FFF7F1FF07480749FFF7EDFF07480B
:106F80000749BDE80840FFF7E7BF00BF58A4010864
:106F900058A4010858A40108B4A40108B4A4010825
:106FA000B4A401080DF0DCBF08B5072006F00EF907
:106FB000FEE70000074A08B5136807491818884219
:106FC000106004D9082006F001F90DF065FF18469D
:106FD00008BD00BF14000020004800204FF0FF3023
:106FE00070470120704708B50C2006F0EFF8FEE767
:106FF000014B1868704700BF2C090020064B024661
:10700000582000FB013101F1080303CB10605160EF
:1070100018689060704700BF2C090020014BD3F81E
:10702000640170472C090020064B0246142000FB27
:10703000013101F5B67303CB1060516018689060A0
:10704000704700BF2C0900200E4B2DE9F041D3F80A
:10705000647180460024BC4211DA14256543094E50
:107060004146701900F5B6700C220EF017F920B9E0
:107070007519D5F86801BDE8F0810134EBE700200F
:10708000BDE8F0812C0900202DE9F04788B0814649
:1070900068460D4601F068F81E4B0024D3F800A0A6
:1070A00054452DDA55B3582666431A4F494607F121
:1070B000040808EB060004300C220EF0EFF8E8B9E3
:1070C00028460EF0E3F806F11001402834BF0246CE
:1070D000402208EB010029460DF0B1FFBE19012244
:1070E00086F85820694604A8746801F05FF804A87F
:1070F000A047044604A800F0F5FF03E00134CFE701
:107100004FF0FF34684600F0EDFF204608B0BDE8C0
:10711000F08700BF2C09002038B50546064C28B181
:1071200005F0C8F8012384F8303238BD05F070F856
:1071300084F8305238BD00BF2C090020024B0022D9
:107140001A6005F039BD00BFC4070020034A044897
:1071500000231370036005F067BD00BF0B1800200B
:10716000C4070020044B0549002001221A70086062
:107170004FF4C02005F0FABC0B180020C407002013
:1071800073B5002B0CBF6523452306460D461446F8
:10719000009331462A462346014807F021FF7CBD73
:1071A000600B002010B5064C206803F051F92368ED
:1071B000013303D0411E4842484110BD012010BD9B
:1071C00018000020F0B5274B0646187887B00F4608
:1071D000002843D124490A78002A3FD1FFF7E2FF73
:1071E000044600283AD1214D8DF80C002B688DF80B
:1071F0000D008DF80E008DF80F0006A9580901EB5F
:10720000800203F01F01012000FA01F052F80C1C6B
:107210000494014342F80C1C04A841F28832059200
:10722000009003A9581C2246234603F0DBFF0028E8
:1072300016DD2B6806A95D0901EB850050F80C5C92
:1072400003F01F0245FA02F515F0010008D01846B8
:1072500031463A46234604F065F801E04FF0FF302E
:1072600007B0F0BD4C1800204D1800201800002079
:1072700038B50B4B054618780C4668B909490A78A9
:1072800052B9FFF78FFF034630B907482946224617
:10729000006804F0D1F838BD4FF0FF3038BD00BFB2
:1072A0004C1800204D180020180000207FB514490C
:1072B000054600F059FF134A01AB106851680024DD
:1072C00003C39068186001A9665C2846320902F180
:1072D0003001392988BF02F1570106F00F0600F08E
:1072E00087FF06F13001392988BF06F1570128468A
:1072F000013400F07DFF0C2CE5D1284604B070BDB0
:10730000079F0108E8F7FF1F30B51F48ADF57B7DEB
:1073100007F0AAFC002834D11C481D4B06901D4DD7
:107320001D4805931D491E4A1E4B0A950C901E4D83
:107330001E48079108920B931D491E4A1E4B0F953C
:1073400011901E4D1E481F4C0D910E921E491F4A52
:1073500010931F4B1495169061AD17A812911392BC
:107360001593099404900EAC039505F0A3FC2846F0
:1073700005F0A6FC00940448164903AA05AB07F0E3
:107380007AFC0DF57B7D30BD600B0020C5710008D7
:10739000717200083D7100082978000865710008C5
:1073A0004D71000819710008FD6F00081D7000087C
:1073B000D9820008F16F0008897000084970000840
:1073C000E1CC0008F1CC000829700008B97600086B
:1073D000CDCC0008E8F7FF1F014808F0CCBB00BF88
:1073E000600B002030B5022011228DB0014603F061
:1073F00017FE051E28DB154907A807F082FD0223AA
:1074000016200024ADF80C308DF80E003321E02258
:107410000123BB208DF811408DF80F108DF810203E
:107420008DF812308DF813000324102203A9009167
:10743000019200231322284607A904F007F8013C13
:10744000F3D1284603F01AFE0DB030BDE8F7FF1F58
:1074500030B5134C87B0FFF757FF204607F007FC05
:10746000204608F019F80546FFF7BCFF204607F054
:107470009CFD03A803F0A4F99DF80D209DF80C30A5
:107480000092082104A8074A0DF0C6FE064804A988
:107490003C220123FFF774FE284607B030BD00BF31
:1074A000600B00201C9D0108229D010838B5114C7D
:1074B000D4F8585B2DB1D4F8581B4B1EC4F8583B78
:1074C00038BDD4F85C3B0C4A52F8230004F078FE37
:1074D000E72004F0C9FE094A6420D4F85C1BC4F814
:1074E000580B50684B1C8342C4F85C3BA8BFC4F8DF
:1074F0005C5B38BD2C0900207C720108180000205C
:107500007FB502200121062203F08AFD041E23DB41
:1075100000200822022335218DF802004FF4FA5092
:10752000ADF800308DF803108DF804208DF805209B
:107530008DF806208DF8072001F072FC694606469A
:107540001022204603F022FE0546304601F068FC7A
:10755000204603F093FD01E04FF0FF35284604B0CC
:1075600070BD000010B5064C2068002805DB03F054
:1075700085FD4FF0FF33236010BD002010BD00BF1C
:107580001800002030B5A7B0FFF7ECFF0220012162
:10759000062203F045FD334B0028186052DB3248C9
:1075A000022216213324A0F8602B80F8621B80F899
:1075B000634B05A805F04AFB9DF8143000250095A3
:1075C00033B1012B17D0294B01A803F1100502E0BC
:1075D000069A009214E0024659681868083303C2FC
:1075E000AB421046F7D101A906AC0FC907C424F875
:1075F000023B1B0C23700A24009D0DB9013C24D1D1
:10760000009808B91A490091009B174C180A1D0EE2
:107610001A0C84F8660B4FF4FA5084F8673B84F830
:10762000645B84F8652B01F0FBFB0E4905461022D4
:10763000086804F5366103F0A9FD0446284601F008
:10764000EFFB0CE04FF0FF3409E07E2106A80DF0BF
:107650003CFE6A4681B206A803F062FDCCE72046F4
:1076600027B030BD180000202C0900203D9D0108E6
:1076700004E5D0360F4B2DE9F041D3F86471804614
:107680000024BC4211DA142565430A4E41467019A4
:1076900000F5B6700C220DF001FE20B9751995F8B1
:1076A0007801BDE8F0810134EBE74FF0FF30BDE831
:1076B000F08100BF2C09002008B5FFF7DBFF01387F
:1076C000082803D8024B1918087F08BD022008BDFE
:1076D0007C72010837B50B4C002104F537650B4669
:1076E00000910A46284600F00BFB28460649074A47
:1076F0000BF018FF04F50D7003B0BDE8304007F043
:10770000A3BA00BF2C0900202D6000082809002022
:1077100014282DE9F34104460E467CD8FF297AD07F
:1077200000F0A8FC28B10D2C75D00F2C73D00E2CB6
:1077300071D000F06BFA08B1012C6CD901F0DAF8C5
:1077400018B1A4F11203012B65D918206043334D01
:1077500033492F582A188F42B2F8048001D10420EF
:1077600003E0304B9F4203D10820012106F0ECF8E2
:10777000ADF80480062E4AD8DFE806F004121A227B
:107780002A354100254B182101FB043410208DF8C7
:10779000070003220020A0738DF80620083436E08D
:1077A000042118238DF8071003FB045401212DE058
:1077B000482018228DF8070002FB0454022125E01E
:1077C000282118238DF8071003FB045403211DE022
:1077D000124A182303208DF807308DF8060003FBAA
:1077E0000424042112E00D491C230320182202FB6B
:1077F00004148DF807308DF80600052106E01822E4
:1078000002FB045400208DF807000621A1733846BE
:1078100001A905F075FFBDE8FC8100BF2000002034
:1078200000080140000C014005F09CBA1FB5044659
:107830004FF47A731B4800930268A118016005F0A9
:1078400091FA019006F014F805F08CFA0290029873
:10785000019BC21A03920399002903DA0198029B43
:107860001A1803920399A1421BD20F480378002BE8
:10787000E8D00E4A11780029E4D10398009B984281
:1078800004D2084A1168B1F57A7FDBD3039800F57A
:107890007A73009301F050FB054A11780029F9D161
:1078A000D0E71FBD48180020981800204D18002070
:1078B0000B18002013B5084C002100910A460B4616
:1078C000204600F01DFA0549054A204602B0BDE8F1
:1078D00010400BF027BE00BFD01400202D60000820
:1078E0002809002038B5194B05461C88B3F8002438
:1078F000A4B290B228B94EF6EE63E01A18BF012088
:1079000006E00CBB4EF6EE63C41A624252EB040072
:10791000840204F1006201300D4B02F580448202C2
:10792000D01884420ED22268013209D1204605F0D7
:10793000ADFE042809D1A01C294605F0A7FE38BDDC
:107940000434EEE7802038BDAB2038BD004000088D
:10795000FE3F000808B5084805F0B4FE04280AD127
:107960000021054805F092FE042804D10348BDE833
:10797000084005F0A7BE08BD00400008004400080C
:107980000F4B10B51A8893B20E4A128892B21BB1EF
:107990000AB1AB2010BD01239C020B4BE3180B4A2C
:1079A000A21893420AD91A8892B2824204D133F8BB
:1079B000020C0880002010BD043BF0E7012010BD40
:1079C0000040000800440008FE4300080240000890
:1079D000F8B5434E05F01AFE424D34884EF6EE617E
:1079E000A4B22B888C4298B24FF6FF720FD094420B
:1079F00002D0002C42D070E000286AD088426CD1BE
:107A0000304605F05FFE042869D1284632E048BBC5
:107A100004461646344D35492B8831F8145098B237
:107A2000A84208BFA6B232B2944203D10134642CFA
:107A3000F0D10FE02D4F284607F1C801FFF7A0FF56
:107A40000128F3D02846B7F8C810FFF74BFF0428E9
:107A5000ECD0F8BD0021224805F018FE04283ED1E4
:107A6000204837E0904238D1284605F02BFE042804
:107A700035D13046002105F009FEF8BD00282CD094
:107A80009042EDD016461A4D18492B8831F8145003
:107A900098B2A84208BFA6B232B2944203D10134D0
:107AA000642CF0D10FE0114F284607F1C801FFF711
:107AB00067FF0128F3D02846B7F8C810FFF712FF78
:107AC0000428ECD0F8BD0021064805F0DFFD0428AD
:107AD00005D1034805F0F6FDF8BDFFF73BFFF8BD03
:107AE000004000080044000806400008D8140020A8
:107AF0000644000810B50446FFF76AFF0023044A55
:107B000022F813300133642BF9D1204610BD00BF99
:107B1000D81400200148FFF7EDBF00BFA2150020D8
:107B2000024B18785978401A704700BFA4150020FE
:107B3000064B5A781978914204D998180132807806
:107B40005A7070474FF0FF30704700BFA4150020F7
:107B5000054B5A781978914202D998188078704765
:107B60004FF0FF30704700BFA415002070470000A1
:107B7000014B0360704700BFF0720108034B10B562
:107B800004460360FFF70EFA204610BDF0720108AC
:107B9000F8B5094B054693F82200164650B10C463D
:107BA0008F18BC4206D0296828468A6814F8011B41
:107BB0009047F6E73046F8BDA415002010B50C4BF1
:107BC000012293F822408CB193F823401F2C02D954
:107BD0004260002010BD93F824001C1884F8251082
:107BE000411CC8B283F8240083F82300104610BD5E
:107BF000A415002000224260024A4FF47A7181608D
:107C000002607047B072010870477047014B93F8EB
:107C100059007047A415002073B50E4C002104F1E3
:107C200064050D4E0B4600910A46284600F068F8A0
:107C30006C343246094928460BF074FC2046FFF7A5
:107C4000D9FF07492046324602B0BDE870400BF02C
:107C500069BC00BFA4150020280900202D60000881
:107C6000717B000808B5034B53F8200000B1804732
:107C700008BD00BF2016002013B5084C002100915C
:107C80000A460B46204600F03BF80549054A2046C7
:107C900002B0BDE810400BF045BC00BF60160020EC
:107CA0002D600008280900202DE9F0410024074636
:107CB0000E4625463B1919790A22304600F0D7F8BE
:107CC0002E218046304600F094F801344044032CC5
:107CD0000544EFD13046F9790A2200F0C8F8281897
:107CE000BDE8F081054A10B50021044640F8042B98
:107CF00004220DF0C7F9204610BD00BFD87201085C
:107D000030B58371044D9DF80C3004460560017157
:107D10004271C37130BD00BFD8720108054800210F
:107D2000054B017141718171C171044A04490360BD
:107D30000BF0F8BB68160020D87201082809002053
:107D40002D60000837B5054C0546E178A2786378C8
:107D500024780094FFF7D4FF28463EBD5418002035
:107D600013B5084C002100910A460B462046FFF748
:107D7000C7FF0549054A204602B0BDE810400BF098
:107D8000D1BB00BF701600202D600008280900201C
:107D9000014B0360704700BFF0720108F8B506465A
:107DA0000C468F180025BC4207D0336830469A68CD
:107DB00014F8011B90472D18F5E72846F8BD000080
:107DC000034B10B504460360FFF7ECF8204610BDE6
:107DD000F072010838B505460C46084641B10DF071
:107DE00055FA2B680246DB6828462146984738BD7D
:107DF00038BD08B503689A68904708BD38B50D21AD
:107E00000546FFF7F6FF0A2104462846FFF7F1FF73
:107E1000001938BD70B500238AB08DF82430012ACE
:107E200098BF0A220DF12303B1FBF2F505FB1211F5
:107E3000CCB2092C1E4601D8303400E03734E4B20D
:107E400003F801492946002DEED13146FFF7C2FF64
:107E50000AB070BD10B5044622B90268C9B2926872
:107E6000904710BDD2B2BDE81040FFF7D3BFFFF777
:107E7000F1BFF8B506460D46144622B90368C9B2EB
:107E80009A689047F8BD0A2A0CD100290BDA2D21F7
:107E9000FFF7AFFF6942074622463046FFF7BAFFB9
:107EA000C019F8BDD2B2BDE8F840FFF7B3BF00007B
:107EB0002DE9F84319460646104615461C469DF81E
:107EC00020700BF035FB10B93046434907E02846D7
:107ED00021460BF02DFB012805D140493046FFF724
:107EE00079FF804674E0284621464FF060423C4BC3
:107EF000FDF756FD38B9284621464FF06042394B10
:107F0000FDF730FD10B130463749E8E728462146F5
:107F100000220023FDF726FD38B130462D21FFF762
:107F200068FF04F10044804600E080462F4B4FF08C
:107F300000090022B9450CD01046194600222C4BEE
:107F4000FDF7C8FB09F1010902460B465FFA89F902
:107F5000F0E728462146FDF7E1F80D460446FDF717
:107F600051FD8146FDF716FA02460B46204629468A
:107F7000FDF7D2F80A2204460D4630464946FFF77F
:107F800049FF804427B330461A49FFF723FF804456
:107F9000F7B1174B002220462946FDF771FA0D462E
:107FA0000446FDF707FD81460A2249463046FFF7A1
:107FB00060FF80444846FDF7FDF902460B46204627
:107FC0002946FDF7A9F8013F04460D46FFB2DFE759
:107FD0004046BDE8F88300BF4D9D0108519D010852
:107FE000FFFFEF41FFFFEFC1559D01080000E03F9B
:107FF00000002440EC9D010837B59DF81810044698
:108000000091FFF755FF05462046FFF7F7FE2818B9
:108010003EBD000013B5084C002100910A460B46F6
:108020002046FFF76DFE0549054A204602B0BDE82F
:1080300010400BF077BA00BF801600202D600008BA
:108040002809002013B5084C002100910A460B4670
:108050002046FFF755FE0549054A204602B0BDE817
:1080600010400BF05FBA00BF881600202D6000089A
:1080700028090020014B587D704700BF9016002052
:108080007047000013B5084C002100910A460B46CA
:108090002046FFF735FE0549054A204602B0BDE8F7
:1080A00010400BF03FBA00BFA81600202D6000085A
:1080B0002809002013B5084C002100910A460B4600
:1080C0002046FFF71DFE0549054A204602B0BDE8DF
:1080D00010400BF027BA00BFB41600202D60000836
:1080E0002809002010B5044600680CF039FF20462E
:1080F00010BD10B50446006808B10CF031FF002334
:108100002360A360636010BD38B504460D46006867
:1081100001310CF0FFFF10B184E82100012038BDCF
:10812000036810B5044613B14068884207D2204660
:10813000FFF7EAFF20B1A16809B922681170012098
:1081400010BD70B50E46114604461546FFF7E8FF10
:1081500018B92046FFF7CDFF04E0A560206831463E
:108160000DF08CF8204670BD38B50023044603603E
:108170004360836003730D4639B108460DF086F8FD
:10818000294602462046FFF7DCFF204638BD8842DC
:1081900010B50B46044607D0096819B19A68FFF775
:1081A000D0FF01E0FFF7A5FF204610BD002310B56A
:1081B00004460360436083600373FFF7E8FF2046D3
:1081C00010BD70B5044685680E4609B9002070BD23
:1081D00062B155192946FFF7A3FF0028F6D02068A1
:1081E000A3683146C0180DF049F8A560012070BDA4
:1081F00007B500238DF80410012201A98DF8053080
:10820000FFF7DFFF0EBD000013B5084C0021009101
:108210000A460B462046FFF773FD0549054A2046EE
:1082200002B0BDE810400BF07DB900BFBC160020C5
:108230002D6000082809002013B5084C002100918A
:108240000A460B462046FFF75BFD0549054A2046D6
:1082500002B0BDE810400BF065B900BFC4160020A5
:108260002D6000082809002038B51A4C94F92C30EC
:10827000002B2DD094F82D00002829D005F0B8FB54
:1082800094F82C2094F82D5051B2002995FBF1F36D
:1082900006DD012B0BDC511E84F82C10002407E0B6
:1082A000591C04DB013284F82C20022400E0012454
:1082B000084B041993F82D20511E83F82D1005F05A
:1082C000CBFB204605F0A8FBBDE8384005F0C4BB59
:1082D00038BD00BFCC16002010B5044605F088FB61
:1082E000001B00F17F02FE2A08D905F0B5FB2046ED
:1082F00005F092FBBDE8104005F0AEBB054980EAF1
:10830000E073A3EBE07381F82C00580081F82D0096
:1083100010BD00BFCC16002013B5084C0021009101
:108320000A460B462046FFF7EBFC0549054A204666
:1083300002B0BDE810400BF0F5B800BFFC160020FD
:108340002D6000082809002013B5084C0021009179
:108350000A460B462046FFF7D3FC0549054A20464E
:1083600002B0BDE810400BF0DDB800BF08170020D8
:108370002D6000082809002008B503689B6B98470A
:1083800008BD0000024A896902604160704700BF71
:10839000D8720108808B7047B0F83622B0F83402EA
:1083A000101A70474B6802218283C18380F8212014
:1083B000110AC3F30722836180F8201080F822306D
:1083C00080F82320C3F3074110221B0E80F82410ED
:1083D00080F825300263012070470120704713B5F3
:1083E000026802AB03F8011DD46819460122A047B8
:1083F0001CBD036810B519690446884740B1B4F83C
:108400003432E218591C92F83400A4F8341210BD2A
:108410004FF0FF3010BD036810B519690446884756
:1084200028B1B4F83402241894F8340010BD4FF089
:10843000FF3010BD0023A0F83432A0F83632704768
:10844000036870B50E461969044615468847C0B1E1
:108450002068026920469047854204D92568204655
:108460002B6998470546B4F834122A4661183046FD
:1084700034310CF0E4FDB4F834022A18A4F83422A4
:1084800001E04FF0FF35284670BD13B5034603F1F8
:108490001E04007C00941B6B0193002302F0D6FFA6
:1084A0001CBD10B50446007C082801D002F0E6FD92
:1084B0000823237410BD30B5036887B019690446DA
:1084C00088470546002837D100F096FA022833D1B4
:1084D000207C082830D0430906AA02EB830301213F
:1084E00000F01F0201FA02F18DF80C508DF80D50CA
:1084F0008DF80E508DF80F5053F80C2C01301143AD
:1085000043F80C1C04AA41F288330593009203A996
:108510002A462B46049502F065FE00280CDD207CDF
:1085200006AB410903EB810252F80C3C00F01F013D
:1085300043FA01F2D30705D4206801692046884731
:1085400007B030BD04F11E0104F130030091019326
:1085500004F134014FF400722B4602F0EEFE0028C5
:10856000EADD94F8202094F82110A4F8345241EA6E
:10857000022394F82220A383227694F8231094F8FF
:10858000243094F825206176A376E276A4F83602AA
:10859000D2E77FB504460D4600F02EFA02280646C3
:1085A00020D11122014602F03BFD23682074D969D5
:1085B0002046884700211022658268460CF062FD43
:1085C000280A8DF802001022207C6946ADF8006070
:1085D0008DF8035002F078FD002805DA2268204665
:1085E000536A9847002000E0012004B070BD0000ED
:1085F0002DE9F04188B006460F46904600F0FCF9A0
:1086000002284FF0000422D108AD384645F8144D39
:108610000CF03CFE2A4681B2384602F081FDA042B1
:1086200015DD039B04A8DAB2190E0092C3F30742CA
:10863000C3F30723FFF764FB30680749059B846A8F
:1086400006910793304606A94246A04700E020461F
:1086500008B0BDE8F08100BFD872010800230849C6
:1086600010B50822044643604FF47A70A060216080
:10867000227404F11400FFF735FB204610BD00BF43
:108680000873010813B5084C002100910A460B46F7
:108690002046FFF735FB0549054A204602B0BDE8F4
:1086A00010400AF03FBF00BF101700202D600008E7
:1086B00028090020014B0360704700BFF0720108D9
:1086C000426D836DD01A00F03F007047426D836D9C
:1086D0009A4203D0816D4018007D70474FF0FF3003
:1086E0007047426D836D9A4209D0816D4218816D49
:1086F000137D4A1C02F03F018165184670474FF018
:10870000FF307047D0F8A43070B504460E461868A4
:1087100040F2277105F0FDFB28B9D4F89C20D4F86D
:10872000A000824213D1D4F89C506B1C03F03F058B
:10873000D4F8A020954213D0EFF31080C30744D59E
:10874000D4F89C10D4F8A030994209D13DE0D4F877
:10875000A4100122086840F2277105F0B2FBE2E79D
:10876000D4F8A43040F22771186805F0D2FB002835
:10877000DED0D4F8A4208021106805F0C4FB0028C6
:10878000D6D0D4F8A4000022006840F2277105F08A
:1087900098FBD4F8A030D4F8A410E218013308688C
:1087A00092F85C10C4F8A03005F0A5FBD4F8A00046
:1087B000D4F8A42000F03F01C4F8A010106840F2E3
:1087C0002771012205F07DFBB2E7D4F89C20D4F894
:1087D000A410A01880F85C60C4F89C5001250868BB
:1087E000257440F227712A4605F06BFB284670BDC0
:1087F00010B50446D4F89C20D4F8A0309A42F9D1A0
:10880000207C10B90022227410BDD4F8A41008688E
:10881000402105F078FB0028F2D0F3E7034B10B5B8
:1088200004460360FEF7BEFB204610BDF07201084F
:1088300010B540F225510446006805F06AFB70B19E
:10884000206805F05CFBE369C0B21A6C511C01F0B2
:108850003F02596C8A4202D0196C1A64585420683D
:1088600040F2277105F055FBB8B1A3692068196C77
:108870005A6C914206D140F227710022BDE81040A7
:1088800005F01FBB5A6C995C01325A6405F033FB4A
:10889000A069436C03F03F01416410BDF8B50025A9
:1088A0004FF47A730446836045600B4804F15C071B
:1088B0002060482604F11400C4F8A41032468F61E9
:1088C000C86129460CF0DEFB3846294632460CF0DA
:1088D000D9FB25742046F8BD587301080148FFF7FD
:1088E000A7BF00BF1C0200200148FFF7A1BF00BFC7
:1088F0003C020020014B187C704700BF1817002075
:1089000073B50E4C002104F114050D4E0B46009179
:108910000A462846FFF7F4F91C343246284609492E
:108920000AF000FE20460849FFF7B8FF0749204635
:10893000324602B0BDE870400AF0F4BD18170020BE
:10894000280900202D6000081C020020B5860008C0
:1089500070474FF0FF307047014B0360704700BF16
:10896000F0720108034B10B504460360FEF71AFBD2
:10897000204610BDF0720108084608B5FEF750FA0F
:10898000012008BD08B5FEF717FA08BDFEF728BAA2
:1089900000224260024A4FF47A718160026070479F
:1089A000807301080846FEF7EFB9000037B50D4C9B
:1089B00000210D4D0B4600910A462046FFF7A0F915
:1089C0002A460A49204608340AF0ACFD2046FFF743
:1089D000DFFF074920462A4603B0BDE830400AF0D1
:1089E000A1BD00BFDC170020280900202D60000871
:1089F0005989000870470000044B187828B10448D2
:108A00000178002914BF0220012070473B18002084
:108A10000818002037B50B4C00210B4D0B46009178
:108A20000A462046FFF76CF92A46204607490AF015
:108A300079FD074904F108002A4603B0BDE830403B
:108A40000AF070BDF4170020280900202D600008EE
:108A5000F58900080023036018467047002303606F
:108A6000184670470023036018467047034610B548
:108A700048F21004A34208464CD00CDC48F2010234
:108A8000934223D0501C83422AD0992B65D1334B7B
:108A90000121997310BD48F28004A3420FD0B3F5B1
:108AA000084F4AD048F24000834256D12B4C04F183
:108AB00010000CF0C4FA616A4B1C636210BD2748B9
:108AC0000122002102704270817010BD234C0122EE
:108AD000E270FEF7A9FE00F5EA403030606010BD9C
:108AE0001E4CE27862B1FEF79FFE00F5EA4030309E
:108AF00060604FF47F4003F03BFBE72003F0B4FBE2
:108B000016490023CB700B724B728B72CB720B73B6
:108B10004B7310BD087D114B60B9012158604FF4B3
:108B20007F401972197303F023FBE720BDE8104062
:108B300003F09ABB00221A7210BD002101F081F8E7
:108B40000121044601F0C4F8054A1068844204D1AA
:108B500002490023CB728B724B7210BD00180020AB
:108B600018000020F0B50B7891B004460D4616466B
:108B70002BB1032A55D8DFE802F002113C3C204615
:108B80000CF084FB0246012000900020019002902E
:108B9000039004900590214603463DE008460CF002
:108BA00075FB002647088DF81E600235BE4210D0C6
:108BB00015F8021C15F8012C8DF81C108DF81D20DD
:108BC00007A8002110220CF00BFC08AB98550136C9
:108BD000EBE720460CF05AFB01210023024608A8CF
:108BE0008DE84200049002930846039305932146C2
:108BF00012E00CF04BFB074628460CF047FB012126
:108C000018221E234FF0020E8DE80E4005900495A9
:108C1000304621463A46002302F04AFD044981F8D5
:108C20002800034B012283F8292011B0F0BD00BFBA
:108C3000001800201FB50A2200234FF461504FF4A2
:108C400061618DE80F00064B44F620621A606846A9
:108C500001A902AA03AB01F0FFFC05B000BD00BFF3
:108C6000BC1800201FB500230093019302930393C7
:108C700001A8694602AA03AB01F0B6FC05B000BD2D
:108C800070B500210A4C0E2001F0B4FD1025102112
:108C90000E2001F0AFFD00212A4620460CF0F2F92B
:108CA0000E20294600222346BDE8704001F056BD43
:108CB0002A18002030B5564D00249FB0FF202C709C
:108CC0006C7085F82940EC702C72AC736C72AC72CD
:108CD000EC722C7303F04CFAE72003F0C5FA21463E
:108CE0002246204602F0C0FC2B46012103F82B4F00
:108CF0000E200A4601F032FD454BD878012805D1F7
:108D0000642003F0E5F801F009F9F5E710210C20E3
:108D100001F070FD3F4802F03EF93F4802F018FEB6
:108D2000012002F0F9FD68463C4900F00FFE384D85
:108D3000297895F829200A4318D195F83A10002986
:108D40005BD0FF2002F09CFD002856D11A24013C84
:108D500006D0E72003F0B6FA322003F0B9F8F6E7C0
:108D6000FFF78EFF2A4A82F83A40E0E7E72003F057
:108D70007BFA0E200121002205F12A0301F0C2FC3A
:108D80002C781CB102F002FE85F82800204C01214D
:108D900094F828300022581C234603F82A0F0E208E
:108DA00001F0DCFC00200146012202F05DFC0125FF
:108DB000234603F82B5F29462A460E2001F0CEFCFD
:108DC00002F0D8FB642003F083F8002002F09CFB43
:108DD00084F83B504FF47F400025257303F0C8F919
:108DE000E72003F041FA48F2042002F063FDFFF7A8
:108DF00021FF84F83C501FB030BDE72003F062FA39
:108E0000FA2003F065F8684600F012FE8FE700BF15
:108E100000180020A07301085C020020658B000888
:108E2000024B1A6818601046704700BFBC1800203B
:108E300030B5364C85B0206403F0FEFC03F03EFCF8
:108E4000334B34483449354A00930190344B0291F6
:108E500003923449344A354802F03EFB642003F063
:108E600037F80125002002F04FFB84F83B5048F210
:108E700004200025257302F01DFD2D4B18880128C4
:108E800031D00E2010212A4604F12A0301F03AFCC9
:108E9000102828D11D4CA278AAB994F82A301BB901
:108EA000012084F83C000EE094F82B0058B90146EC
:108EB000012202F0D9FB0121234603F82B1F0E20CB
:108EC0000A4601F04BFC11498A78BAB991F83C3056
:108ED000A3B1184801F074FCFFF7C4FE05B0BDE86B
:108EE0003040FFF7A7BEFF2002F0CAFCFFF7C8FE24
:108EF0000F4900240C8003F0EBFDCBE74FF47F40DB
:108F000003F036F9E72003F0AFF9E2E7001800209C
:108F100075C7000889C70008F5C700081DC8000804
:108F2000658A0008558A00085D8A00086D8A000875
:108F3000AA030020441800202DE9F3419A4C04F0C4
:108F400097FC0023A36494F84C0048B994F84D10A2
:108F500031B962687AB3FEF767FC6468A0422AD32D
:108F6000914C94F83B00002840D00025E5706560E6
:108F70002572256584F84C50012684F83B506572B3
:108F8000A572E572657302F0F5FA6FF07F40267303
:108F900003F0EEF8E72003F067F9642002F098FF91
:108FA00094F83C1011B3284602F0AEFA84F83B6006
:108FB000FFF780FE1AE07C4C94F83B30B3B9A07800
:108FC00028B9FEF731FC00F5EA413031616000203C
:108FD00002F09AFA012200234FF47F4084F83B20EC
:108FE000237303F0C5F8E72003F03EF96E4C94F8C4
:108FF0003C2012B1FFF75EFE04E0A37813B1267A9D
:1090000035460EB368484178012914D1047A012C01
:1090100011D1C278012A0ED1032464480CF036F92C
:10902000624982B2012002F01DFA631E13F0FF04B0
:10903000F3D15D4844705C4C217A2346E1B194F849
:109040004D20002A75D017E0314632463046666022
:1090500002F00AFB56480CF019F9564F8046384684
:109060000CF014F900970190791F03204246334613
:1090700002F096FAA670C5E793F8570020B14E4863
:1090800000213A220BF0FEFF474B93F88E2032B9B5
:10909000587A002859D19B7A002B56D1B8E01C7A17
:1090A000FCB193F84D00E0B9597A00295ED018E080
:1090B000234603F82D2F0E200121032201F04EFB41
:1090C000394C00254FF6FF70257303F051F8E72067
:1090D00003F0CAF8FEF756FAA84271DB25650123B2
:1090E0006372314C617A002900F09280A27ABAB999
:1090F000FEF7AEF9002811D002DA4FF47F0007E046
:10910000012801D12D4803E0022803D14FF0FF10C0
:1091100003F02EF8E72003F0A7F801E00120A07289
:10912000FEF75AF9002873D11F4BD8729872587203
:109130006EE094F857100029A6D1642002F0C8FE12
:1091400004F1540001F0CCFA9EE7FEF70BFA164941
:1091500000224FF47F40CA728A724A7203F008F804
:10916000E72002B0BDE8F04103F07EB85D7B002D42
:10917000A6D04FF47F0002F0FBFF0B4C627B002A6D
:1091800096D0E72003F070F84FF4FA7002F0A0FEDA
:10919000E72003F077F84FF4FA7002F099FE657B50
:1091A000691ECAB26273E8E7001800205F0200205F
:1091B000660200206B020020541800200060FF00AF
:1091C00094F84C3023BB206D411C0229216502D14B
:1091D000012284F84C20FEF793F900280E4C09DA9E
:1091E000206D411C0229216502D1012284F84C2006
:1091F000022300E003236373074C0121607B2346B5
:1092000003F82D0F03220E2001F0A8FA002367E7D0
:1092100002B0BDE8F08100BF0018002013B5084C73
:10922000002100910A460B462046FEF769FD0549DC
:10923000054A204602B0BDE810400AF073B900BFED
:10924000901800202D60000828090020704708B5FC
:10925000012003F0BBFFFEE708B5032003F0B6FFD3
:10926000FEE708B5042003F0B1FFFEE708B50520CE
:1092700003F0ACFFFEE770477047704708B503F096
:1092800069FDBDE80840FDF7B3BC000008B5024B1E
:109290000BB1AFF3008008BD0000000008B5024B21
:1092A0000BB1FFF721FB08BDE988000808B5024BA8
:1092B0000BB1FFF713FB08BDDD88000808B5024BB2
:1092C0000BB1FEF7A1FC08BD097C000808B5024BF4
:1092D0000BB1FEF79AFC08BD0B7C000808B5024BE9
:1092E0000BB1FEF7CDFE08BD8180000808B5012056
:1092F00004F076F938B1012004F082F9024B13B181
:109300000020FEF7AFFC08BD657C000808B5022010
:1093100004F066F938B1022004F072F9024B13B17F
:109320000120FEF79FFC08BD657C000808B50420FD
:1093300004F056F978B1042004F062F90020064BDD
:109340000146188003F04CF8044810210122BDE8C2
:10935000084004F06EBD08BDDC180020002C014060
:1093600008B5082004F03CF938B1082004F048F9A9
:10937000024B13B10320FEF775FC08BD657C0008A5
:1093800008B5102004F02CF938B1102004F038F999
:10939000024B13B10420FEF765FC08BD657C000894
:1093A00008B5202004F01CF938B1202004F028F979
:1093B0000E4B13B10520FEF755FC402004F010F9C8
:1093C00038B1402004F01CF9084810B10620FEF71F
:1093D00049FC802004F004F938B1802004F010F931
:1093E000024911B10720FEF73DFC08BD657C00086D
:1093F00008B54FF4005004F0F3F840B14FF40050BA
:1094000004F0FEF8174B13B10D20FEF72BFC4FF4C0
:10941000804004F0E5F840B14FF4804004F0F0F8EB
:10942000104810B10E20FEF71DFC4FF4004004F070
:10943000D7F840B14FF4004004F0E2F8094911B107
:109440000F20FEF70FFC4FF4006004F0C9F838B1AC
:109450004FF4006004F0D4F8BDE8084002F0C2BC4C
:1094600008BD00BF657C000808B50F48102104F056
:1094700019FDC0B10C48102104F01FFD002003F0BD
:1094800071F828B9094B1A880A3290B2188008BDC1
:1094900010210548002204F0CCFC00200121BDE889
:1094A000084002F09DBF08BD002C0140DC180020E0
:1094B00008B5024B186800B1804708BD9C18002011
:1094C00008B5024B586800B1804708BD9C180020C1
:1094D00008B5024B986800B1804708BD9C18002071
:1094E00008B5012004F0D4FA50B1012004F0E2FAEA
:1094F000044B0BB1FEF7B8FEBDE8084004F0ACBA6F
:1095000008BD00BF6982000808B5022004F0C0FA57
:10951000B0B10C4B00224FF400301A7004F070F818
:10952000012004F0CFF910B1012004F0D5F904F0C6
:1095300093FA022004F0BEFABDE8084004F08CBAA9
:1095400008BD00BF4D18002002F0DCBB00F062B87F
:1095500038B514490B78012B23D1134A13680BB982
:109560000B7038BD114C402B206881B205D94030BA
:10957000403B20601360402504E09DB2C3180020EA
:10958000236010600A4A5018C0212A4605F0F2F9FB
:109590000120294605F0F8FA0120BDE8384005F021
:1095A00061BA38BD140900201C09002018090020E8
:1095B00014080020094908B50020094B0122088041
:1095C00003201A7005F00CFB064B02461880064873
:1095D0004FF48871BDE8084005F0E3B9CC070020DE
:1095E000C8070020CA070020CE070020074B1868D4
:1095F000052809D1064B1A68511C052A196003D1A8
:1096000000201860FDF72ABC704700BF0819002031
:10961000A81800203A4A38B511683A4B88B23A4D3A
:1096200018801C882988214001F4007084B244B15C
:109630004FF6FF5515609A78511CC8B29870FFF725
:10964000D5FF304C304B25881A882A4002F400415F
:1096500088B225461C4608B105F0C6F82A8823883A
:10966000134003F4806188B230B1254B27494FF68F
:10967000FF321A6048688047224A234B11881B88B2
:10968000194001F4005081B219B11D494DF6FF7027
:1096900008601288134003F4805398B230B1184A1E
:1096A0004EF6FF711160002003F04CFD154B16497A
:1096B00018880A88024002F4006398B260B1144925
:1096C0000A7812B103F01EFD02E0022003F03AFD19
:1096D0000B4B4FF2FF7018600A490B480A88038849
:1096E000134003F480718AB242B1054B4FF6FF601C
:1096F00018600720BDE8384003F024BD38BD00BF26
:10970000445C0040AC180020C82200200003002068
:10971000D0030020034B987A10B1034905220A6058
:10972000704700BFA422002008190020014B04222A
:109730001A60704708190020034B1A78202A01D1BB
:1097400000201870704700BFB0180020704700005C
:10975000212810B508D111480368197801F07F025B
:10976000212A11D0022010BD2028FBD10B4B1968F3
:109770000A780B4902F07F030A4A212B0CBF0B46E3
:10978000002310700BB9EDE7074B044C2068002450
:109790008361448220469847204610BDC4220020A1
:1097A000F9970008B0180020E1970008074B1968E6
:1097B0000A7802F07F03212B05D1022801D1002075
:1097C00070472228FBD00220704700BFC42200202F
:1097D00009B1022070470128FBD8084670470000F5
:1097E00020B9034B082219680A8270470148704764
:1097F000C4220020C802002020B9034B08221968A7
:109800000A82704701487047C4220020C802002025
:10981000054B1968CA78042A04D8044B03EBC2012B
:1098200004F062BD00207047C4220020D002002056
:10983000014904F059BD00BFF0020020014904F0C5
:1098400053BD00BFF8020020334A344BD179186869
:1098500010B5002441728472C472204605F0B4F839
:1098600020464FF4007105F0B7F81021204605F0AE
:10987000BFF84021204605F05BF98021204605F025
:1098800047F9204605F010F9254B204693F864105F
:1098900005F088F9204605F0F6F80120214605F08C
:1098A0009BF80120C02105F033F90120202105F0AB
:1098B0009FF80120214605F0B8F802204FF4C0615E
:1098C00005F08AF802204FF4807105F021F902209A
:1098D000214605F0AAF80220202105F089F803208E
:1098E000214605F079F803204FF4887105F020F93E
:1098F0000320402105F056F903204FF4405105F0B4
:1099000094F80320214605F073F8204604F0FEFE8B
:10991000044A0120106010BD0D740108C42200200B
:10992000C80200200819002010B5FDF7E3FA054B26
:1099300000241868847203F0CDFB05F067F9024932
:109940000C6010BDC42200200819002038B5044660
:109950000D46FFF71DF8204625614FF41651FFF71D
:1099600021F8204638BD000013B5084C00210091B5
:109970000A460B462046FEF7C3F90549054A20462C
:1099800002B0BDE8104009F0CDBD00BFB418002002
:109990002D6000082809002070B506460D460024F9
:1099A00028460BF073FC844208D2295D3046FEF74E
:1099B000E3FF012002F08CFA0134F1E770BD0000F2
:1099C000F8B504460E46174600252046FEF7DAFF96
:1099D0000028FADD2046FEF7D9FFBD42C1B206D10C
:1099E0000023337020461149FFF7D6FF14E00D29FC
:1099F000F6D00A29F4D0082901D07F2904D1002DFE
:109A0000E3D0013E013D02E006F8011B013520468E
:109A1000EDB2FEF7B1FFD8E72046FEF7B3FF00280E
:109A200003DD2046FEF7B2FFF6E7F8BD059F01080B
:109A3000F0B585B00446FEF7A5FF002840F39D80F1
:109A40002046FEF7A3FFC0B2772867D104F11406C1
:109A500000212122304604F135050BF013FB0021D3
:109A6000412228460BF00EFB04F17607002284F811
:109A7000762020467A704249FFF78EFF2046314615
:109A80002022FFF79DFF20463E49FFF785FF39461C
:109A900001222046FFF794FF94F87630A3F13001BD
:109AA0000329F0D8312B0BD120463749FFF774FF3B
:109AB00020463649FFF770FF20463549FFF76CFF17
:109AC00094F87600B0F1300708D020463149FFF70E
:109AD00063FF204629464022FFF772FF20462E49A9
:109AE000FFF75AFF23693A463046294698472046F1
:109AF0002A49FFF751FF20462949FFF74DFF20462D
:109B00002849FFF749FF20462749FFF745FF204630
:109B10002649FFF741FF2046254929E069282CD135
:109B2000244A01AB10685168002503C391682046A0
:109B300019602149FFF730FF01AEAE5D300900F139
:109B40003001392988BF00F1570106F00F06204681
:109B5000FEF712FF06F13001392988BF06F15701DF
:109B600020460135FEF708FF0C2DE5D113492046AC
:109B700005B0BDE8F040FFF70FBF05B0F0BD00BF76
:109B8000599D0108609D01088D9D0108C39D010834
:109B9000EE9D0108349E01083F9E0108829E010847
:109BA000A29E0108D59E0108089F0108479F010851
:109BB000789F0108E8F7FF1F8E9F0108059F0108A5
:109BC000002100F004B80E4B5B58435004310D489F
:109BD0000D4B42189A42FFF4F6AF0C4A00F003B85E
:109BE000002342F8043B0A4B9A42FFF4F9AF03F01A
:109BF000F3F9FCF737FFFDF7B9F9FCF781FF704780
:109C0000B4A40108000000208C0400208C04002073
:109C1000D4220020FFF7FEBF01700B0A0A0C090EC8
:109C200043708270C170043070470170090A41703E
:109C30000230704743185A78405C00EB022188B22A
:109C4000704710B543189A78DC78415C120402EB37
:109C500004625878521802EB002010BD73B54479A5
:109C60000023022C01930FD0032C19D0012C2BD1EF
:109C7000164D28692E4620B1296901A88847024659
:109C8000B8B9B16801201BE0104DE8682E4620B13C
:109C9000E96801A88847024658B9B16802200FE078
:109CA0000A4D6A692E464AB16B6901A89847024677
:109CB00020B1A9682046BDF8043003E0B168032054
:109CC0000022134600F02CFC7CBD00BF0C1A0020C3
:109CD000072830B512D8012910D8EFF3108472B6D6
:109CE000012505FA00F501FA00F0054B1A6822EA91
:109CF000050202431A60E30700D462B630BD00BF1C
:109D000058030020F0B5012187B00546FFF792FF08
:109D100000F48043044698B250B3B4F5824F27D183
:109D200028460521FFF786FF0026074607353446FB
:109D3000BE4208D028460221FFF77CFF01362418D6
:109D40000435B6B2F4E7744B188E21188AB21A861D
:109D5000D86B2418DC63D96B9A6B914240F0CE80AB
:109D600093F84000002800F0C9809B69992033E0F7
:109D700024F4FF4121F07F0290B2002800F09B8084
:109D800048F2100294422AD00CD8B4F5004F40F2A9
:109D9000C08048F202039C4217D9991C8C4240F0C3
:109DA000B88012E048F2800084420ED005D848F214
:109DB0004002944240F0AD8051E0B4F5024F04D02F
:109DC000B4F5084F40F0A5806CE05349886900283D
:109DD00000F094808B69204600210A4669E0002348
:109DE000EA1851790DF803100133042BF8D1687A81
:109DF0002B7BAA7AE97A8DF804008DF807308DF86C
:109E000005208DF8061005F10D00002306AAD218D2
:109E1000C15C0133042B02F8101CF7D105F11100CD
:109E2000002306AAD218C15C0133042B02F80C1CD3
:109E3000F7D105F11500002300AAD218C15C013347
:109E4000042B1174F8D1344928798A698DF81400EB
:109E5000002A53D08B6920466946152229E0053532
:109E600000212846FFF7EDFE042100902846FFF769
:109E7000E8FE082101902846FFF7E3FE0C2102903E
:109E80002846FFF7DEFE102103902846FFF7D9FE93
:109E9000214B04909969002930D09B69204669467E
:109EA000142206E01C48826942B38369691D20467A
:109EB0000122984722E041F203039C4205D00C3373
:109EC0009C4202D0591E8C421AD16C1D042120469E
:109ED000FFF7B7FE39301CD12D790F480021C5623C
:109EE0002046FFF7AEFE042105462046FFF7A9FEF7
:109EF000393003D128460121FFF7EAFE012009E0AD
:109F0000054A138899B28C4204D0B4F5805FF5D12C
:109F100000E0002007B0F0BD0C1A002038B5104B4F
:109F20005D88ADB2CDB158680478211F4A4252EB2A
:109F300001042CB1FFF7E6FE003018BF012000E05D
:109F40002046054620B944B1054B93F8411021B98C
:109F500003480022428001F0EDFD284638BD00BFD5
:109F60000C1A00202DE9FF4704468946904602F06E
:109F7000F9FE00250190BA4B5A8890B2002840F0B3
:109F8000928003F075FC02F0EDFE029002990198B8
:109F90000A1A0392039B002B03DA019902984218D4
:109FA0000392B04B19680029E5D003988842E2D3A8
:109FB000AB4A41F20700138899B2814224D8421E6D
:109FC00091425FD240F2022399425BD00DD80C2916
:109FD00006D8082956D200294DD0062952D959E071
:109FE0000D294CD040F201220BE041F202008142E7
:109FF0004BD8B1F5805F45D8B1F5017F3FD940F22C
:10A000000722914237D13AE041F21103994236D00A
:10A0100014D841F20B00814234D005D841F2090234
:10A0200091422FD031D82AE041F20F0399422CD02F
:10A0300028D841F20D0081421DD126E042F20602ED
:10A0400091421CD007D8B1F5005F14D942F2040345
:10A05000994214D921E0B1F5804F00F0F28105D882
:10A06000A1F500500838012805D808E044F20B0299
:10A07000914200F0E6810B2003F0A8F8E1E1FF2116
:10A080002170DEE14FF0FF3105E04FF0FF3121603C
:10A090006160D6E100212160D3E1204600213A220F
:10A0A0000AF0F0FFCDE15E683178042940F07E814E
:10A0B00001213046FFF7BEFD05463046FFF722FE80
:10A0C0000146002840F0688141F20700771D854273
:10A0D00050D8411E8D4280F0AF8040F2022295425E
:10A0E00000F0AA8011D80C2D09D8082D80F0A4808A
:10A0F000002D00F05181062D40F29E80EAE00D2DEA
:10A1000000F0978040F201237EE041F202039D427D
:10A1100018D8B5F5805F00F28F80B5F5017F40F269
:10A12000888040F207218D4240F03681307900214D
:10A1300004F8010B3846FFF784FD01462046FFF77F
:10A140006BFD29E141F20402954200F0998040F252
:10A15000B08038460021FFF774FD042120603846A6
:10A16000FFF76FFD6060083406F10D07234606F126
:10A170001D017EE041F2110295425AD02CD841F2E5
:10A180000B039D4258D01CD841F209018D4253D097
:10A1900000F29B8000213846FFF753FD0421206028
:10A1A0003846FFF74EFD082160603846FFF749FD4D
:10A1B0000C21A0603846FFF744FD04F10C0AE06072
:10A1C000E9E041F20F02954273D03BD841F20D0312
:10A1D0009D4240F0E18053E042F20500854200F0EC
:10A1E0009D8008D841F2120295423DD0B5F5005F3E
:10A1F00040F2D2801DE042F209018D4208D84F1E84
:10A20000BD4216D242F206039D4240F0C58010E0E6
:10A2100044F20B00854240F0BF807279DFF840A025
:10A2200038460121AAF83020FFF704FDAAF83200D1
:10A23000B2E031792170AFE038460021FFF701FD2F
:10A240002060A9E000213846FFF7FBFCA2464AF84F
:10A25000040B04213846FFF7F4FC60609BE000BF6C
:10A260000C1A0020BC1800203846FFF7E3FC2080C1
:10A2700092E057F8040B8F4243F8040BF9D18BE0BE
:10A2800000213846FFF7DDFC042120603846FFF747
:10A29000D8FC082160603846FFF7D3FC04F1080AB7
:10A2A000A060E46814F1390375D10121FFF710FDB6
:10A2B00071E000213846FFF7C4FC042120603846D5
:10A2C000FFF7BFFC6060083466E0307920713F68BA
:10A2D000276061E038460021FFF7B3FC04212060CD
:10A2E0003846FFF7AEFC082160603846FFF7A2FC55
:10A2F0000A21A0603846FFF79DFCC4F80A000C3420
:10A3000006F11103274606F1350153F8040B8B4281
:10A3100047F8040BF9D11A883A803DE077187B7929
:10A32000635401310429F9D106F109000027C15D08
:10A33000E2190137042F1171F9D106F10D00002344
:10A34000C15CE2180133042B1172F9D106F1110737
:10A350000022B85CA1180132042A0873F9D106F171
:10A3600015070023F85CE1180133042B0874F9D1B8
:10A3700006F119070021785C621801310629107571
:10A38000F9D106F11F070023F85CE2180133202BF6
:10A390009076F9D100E054462C4F388882B295422D
:10A3A00036D100233B8087F8413031E0DF8EBBB2ED
:10A3B00073B33046032196F802A0FFF73BFC074633
:10A3C000B9F1000F0CD00421701DFFF73AFC0246D2
:10A3D000C8F8000006F115014846D2B20AF02FFE77
:10A3E000CAEB0707781EB0F5806F07D20AF10501A6
:10A3F000204671183A460AF022FE01E04FF0FF377E
:10A40000B8F1000F01D088F80070104B0022DA86F6
:10A410000E4F0020788001F08DFB3278042A05D1A0
:10A42000B5F5805F02D13046FFF718FC3B8899B242
:10A4300000297FF4A0AD0548C28E93B2002B7FF4B3
:10A440009AAD002004B0BDE8F08700BF0C1A0020D0
:10A4500007284FF001030ED8EFF3108272B603FA0B
:10A4600000F006490B6818420CBF00200120D307FA
:10A4700002D462B670471846704700BF58030020E8
:10A48000034B1880084600210A46FFF76BBD00BF4A
:10A490000C1A002010B5034B0124DC86BDE81040E7
:10A4A000FFF760BD0C1A002038B50346154601229F
:10A4B0004A710C46881D1946FFF7B7FB291D057028
:10A4C000204601F0A5FB002038BD38B5BDF814507A
:10A4D0000C469B18A071E81885B202216171E271E7
:10A4E000294604F10800FFF7A0FB6A1D204691B23F
:10A4F00001F08EFB002038BD38B59B180C469DB28C
:10A5000002216171A071E271294604F10800FFF790
:10A510008CFB6A1D204691B2BDE8384001F078BB43
:10A520002DE9F0471D4605F1020A032301F1070951
:10A530001FFA8AFA88714B710C46484651461746F5
:10A54000FFF773FBB5F57A7F804613D82946FFF7EE
:10A550006CFB29464046FFF768FB394604F10B00C7
:10A560002A460AF06CFDA91D204689B2BDE8F047D5
:10A5700001F04EBB4FF47A76B5FBF6F10AEB4102DF
:10A5800091B2FFF752FB31464046FFF74EFB39468A
:10A5900004F10B0032460AF052FDA5F57A7520460B
:10A5A00040F2EE31ADB2BF1901F032FBB5F57A7F62
:10A5B00005D9A5F57A7085B24FF47A7601E02E467A
:10A5C0000025A046394628F8056F484632460AF06D
:10A5D00036FDB31C404699B2BF1901F019FB002D9E
:10A5E000E4D1BDE8F0870000F7B51A4C1E46A46818
:10A5F000FF238DF807300025475D63190135042DD1
:10A600005F72F9D100200D5C2318013004285D73BE
:10A61000F9D10021505C6318013104295874F9D133
:10A6200004F115000021FFF7F7FA0022B35C835410
:10A630000132042AFAD12146142242F20100FFF726
:10A6400033FF42F201000DF10701FFF719FF9DF9F9
:10A650000700FEBD0C1A00202DE9F34106460C460A
:10A660001E4831681546D0F808804A1E1F46FF2351
:10A67000082A8DF8073008F1090001D80A23336051
:10A6800021684A1E082A01D80A23236029684A1E25
:10A69000082A01D80A232B6039684A1E082A01D8E3
:10A6A0000A233B603168FFF7B7FA2168FFF7B4FA75
:10A6B0002968FFF7B1FA3968FFF7AEFA414614226C
:10A6C00042F20900FFF7F0FE42F209000DF1070126
:10A6D000FFF7D6FE9DF90700BDE8FC810C1A0020AB
:10A6E00038B5074B42F2050405469968204600221A
:10A6F000FFF7DAFE20462946BDE83840FFF7C0BE26
:10A700000C1A00202DE9F341864613480D46866851
:10A7100071461F4602ACFF2306F1090004F8053D0F
:10A720009046FFF779FA2946FFF776FA40F20125BD
:10A730004146FFF771FA0C2231462846FFF7B4FE76
:10A7400028462146FFF79CFE3846002101AAFFF764
:10A75000A1FE0198BDE8FC810C1A00202DE9F3410F
:10A76000864616480C4686687146984602AD4FF0FC
:10A77000FF3306F10A0045F8043D1746FFF74CFA8F
:10A780000C21FFF749FA2146FFF746FA3946FFF751
:10A7900043FA4146224606F11A000AF050FC902086
:10A7A00031461022A3B2FFF7A7FE40F2022029464D
:10A7B000FFF766FE0198BDE8FC8100BF0C1A00207F
:10A7C00037B50B4B40F2072504469968002228460E
:10A7D000FFF76AFE28466946FFF752FE9DF8030020
:10A7E0009DF80410207061709DF800003EBD00BF10
:10A7F0000C1A002037B50D4A034695680C4605F142
:10A8000009001946FFF708FA214640F20324FFF732
:10A8100003FA294608222046FFF746FE20460DF19E
:10A820000701FFF72DFE9DF807003EBD0C1A002022
:10A830002DE9F0430023CA5CC2540133102BFAD136
:10A840000022334B467B991891F8018004789F19B8
:10A85000F97A88EA0405847B85EA01081D194178A4
:10A86000EF7A90F80CC04F40C17B80F810805D18E3
:10A8700095F80B908578634489EA050593F80B9069
:10A88000C378477489EA030390F80490FFB288EA1A
:10A89000090890F80590857487EA090790F80690F2
:10A8A000EDB285EA090590F80790C374DBB283EA3C
:10A8B000090390F8089080F814805FFA88F888EA15
:10A8C000090890F809904775FFB287EA090790F8E0
:10A8D0000A908575EDB285EA090590F80B90C3756D
:10A8E000DBB283EA090388EA0C0C7E406C405940D5
:10A8F000013280F8188047768576C37680F81CC0D0
:10A9000046778477C17710300A2A9AD1BDE8F08360
:10A910006274010810F0800F4FEA400018BF80F009
:10A920001B00C0B2704700002DE9F04F037891F88A
:10A93000A0A004468AEA030A80F800A091F8A120AA
:10A940004078A77882EA0005657091F8A260E07807
:10A9500086EA0703A37091F8A32097B0059582EAD1
:10A960000005E57091F8A4902679069389EA060916
:10A9700084F8049091F8A5706379079587EA03023B
:10A98000627191F8A600A579E37980EA0506A671BF
:10A9900091F8A7700C9287EA030B84F807B0227A2B
:10A9A00091F8A880607A88EA020884F8088091F813
:10A9B000A97008964740677291F8AA50A67AE07A83
:10A9C00085EA0603A37291F8AB20267B82EA000594
:10A9D000E57291F8ACC009938CEA060C84F80CC0BF
:10A9E00091F8ADE0637BA27B8EEA030E84F80DE064
:10A9F0000D9591F8AE50E07B5540A57391F8AF20CE
:10AA00004B4B4240E2739A4491F890009AF80B61E4
:10AA100099444640267091F8940099F80BA1984407
:10AA20008AEA0006267191F8980098F80B919C44E8
:10AA300089EA000626729CF80BA191F89C009E44BE
:10AA40008AEA00062673DF199EF80B8197F80BC17E
:10AA500091F8910091F89D6088EA00098CEA06005F
:10AA600060730C9FDDF814A0DE1996F80B0191F8C5
:10AA70009970DDF8208080EA0706667203EB0A0011
:10AA800091F8956090F80B7184F8019087EA0600C0
:10AA9000607103EB0800DDF818E090F80B9109985D
:10AAA00003EB0E0703EB000E9EF80BC191F892002A
:10AAB00091F89A6097F80B718CEA000A77405D195B
:10AAC00091F89E6084F802A091F8960095F80B81A9
:10AAD000A772079F88EA000589EA0606A673A57192
