:020000040800F2
:105000000050002005860008D97C0008DB7C0008E1
:10501000E57C0008EF7C0008F97C00080000000037
:10502000000000000000000000000000037D0008F8
:10503000057D000800000000077D0008097D0008CC
:105040005986000859860008598600085D7F0008C7
:105050005986000859860008697D0008897D000886
:10506000A97D0008DD7D0008FD7D00085986000847
:10507000598600085986000859860008C57F00082F
:105080005986000859860008197D000859860008CD
:10509000C97F000859860008598600081D7E00084F
:1050A000598600085986000859860008E57E0008E0
:1050B0002D7F00083D7F00084D7F0008397D0008E6
:1050C000497D00085986000859860008597D000866
:1050D0005986000859860008297D0008598600086D
:1050E0006D7E0008857F00085986000800000000DA
:1050F00000000000000000000000000000000000B0
:0C51000000000000000000005FF808F153
:10511000844641EA000313F0030349D1403A23D304
:105120000B6803604B6843608B688360CB68C36027
:105130000B6903614B6943618B698361CB69C3610F
:105140000B6A03624B6A43628B6A8362CB6AC362F7
:105150000B6B03634B6B43638B6B8363CB6BC363DF
:1051600040304031403ADBD230320BD30B68036021
:105170004B6843608B688360CB68C360103010312C
:10518000103AF3D20C3205D351F8043B40F8043BFB
:10519000043AF9D2043208D0D2071CBF11F8013BFF
:1051A00000F8013B01D30B8803806046704700BFC5
:1051B000082A13D38B07B1D010F00303AED0C3F18C
:1051C0000403D21ADB071CBF11F8013B00F8013BB6
:1051D000A4D331F8023B20F8023B9FE7043AD9D32D
:1051E000013A11F8013B00F8013BF9D20B7803704A
:1051F0004B7843708B78837060467047014B036037
:10520000704700BFC8310108024A4261024A026089
:10521000704700BFC8310108E031010810B5034BE9
:105220000446036000F022FD204610BDC83101088D
:1052300010B5044B04464361034B036000F016FDB8
:10524000204610BDC8310108E031010808B50A2028
:10525000002101F095F80B20002101F091F80E20BB
:10526000002101F08DF80F20002101F089F81020B5
:10527000002101F085F81120002101F081F80020C3
:10528000014601F07DF8BDE808400120002101F051
:1052900077B800002DE9F043142889B0054600F2E4
:1052A000A680544F182404FB0074A368002B00F060
:1052B0009E80A07BE0B1042840F099804E48A289EE
:1052C000008800FB0111FF2091FBF0F189B20AB9BF
:1052D00099868CE0042A01D1198788E0082A01D137
:1052E000998784E00C2A40F08280A3F840107EE089
:1052F000414E424BB6F800801A6808FB0111404B42
:105300000120B2FBF3F9FF2391FBF3F8014607F00C
:105310003BF82846042101F033F8A36809F1FF396E
:10532000B3F1804F1FFA89F91FFA88F802D10120E2
:10533000014609E0334A934208BF022003D0324AB3
:10534000934203D10420012107F02AF8182404FB1A
:1053500005743388A068002601A9ADF80830ADF8BF
:105360000A60ADF80660ADF8049007F003F9602319
:10537000ADF810300123ADF81230ADF81860ADF87B
:105380001680A68946B9A06804A907F03DF9A0686F
:10539000082107F079FA1FE0042E08D1A06804A9BB
:1053A00007F076F9A068082107F076FA14E0082ED5
:1053B00008D1A06804A907F0AFF9A068314607F04A
:1053C00075FA09E00C2E07D1A06804A907F0E6F9E8
:1053D000A068082107F072FA182303FB0575012164
:1053E000A86807F045FAA868012107F01EFA09B07D
:1053F000BDE8F0831C00002000000020780300209E
:1054000000366E01000400400008004038B5034635
:105410000C460B2019461546FFF73CFF21460E208F
:10542000FFF738FF29460F20BDE83840FFF732BFAD
:1054300008B50B4B0021988800F0A2FF09484FF4F3
:10544000165101F0F5FFFFF701FF074B32221A60FA
:105450005A609A600520BDE8084001F019B800BF05
:1054600000000020B41E0020D00B0020052001F019
:105470000FB8000030B5002104468BB0454810221B
:105480000DF0CCF92346434C03F110051868596818
:10549000224603C20833AB421446F7D13E4C68465D
:1054A00001F052FA63693D481A148DF805201A126A
:1054B000190E8DF806200A228DF807308DF8041099
:1054C00001F010FB9DF805100A22344801F00AFB98
:1054D0009DF806100A22314801F004FB2F489DF880
:1054E00007100A2201F0FEFA237B012B48D800F0B6
:1054F000CDFF2369E0612A4902A8236201F052FA34
:105500009DF80D309DF80C201B0443EA02639DF8C2
:105510000F2006A813439DF80E2004F11C0543EA52
:105520000223636200F014FD04F128000699089A32
:10553000FFF7EEFD1B4B04F140000493019B04A90F
:105540000593194B1A8901F09DFC04F51E733C3438
:105550002A4603CAA24218605960154603F108039F
:10556000F6D1106824221860104800F50E7101F081
:10557000E2FC0E4801F0A1FC06A801F025FB07E0C3
:10558000022B05D1237E2360637E6360A37EA3602C
:105590000BB030BDDC0B0020D00B0020B41E00206F
:1055A000441D0020C831010800000020100C00201C
:1055B00010B50F4801F01FFD0446B8B1102805D002
:1055C000BDE810400B480C4901F056BA22460021B4
:1055D0000A480DF023F90648224600F5177101F03C
:1055E000B7FCBDE810400548FFF744BF10BD00BF41
:1055F000100C0020B41E00200C5C01086C0E002072
:1056000037B5274C20782179227AFFF7FFFE6846CC
:10561000244994F8AC5201F0C5F99DF8043043B91F
:105620009DF805302BB99DF8063013B99DF8073069
:1056300003B101231C491D4884F8AC3201F01CFA67
:105640009DF804100A22194801F04CFA9DF8051043
:105650000A22164801F046FA9DF806100A2213485D
:1056600001F040FA11489DF807100A2201F03AFAB9
:1056700094F8AC3233B14DB90D4B0E48998901F015
:105680008CFC03E015B10B4801F04BFC94F8AC32F4
:1056900013B1FFF78DFF01E0FFF7E8FE03B030BD67
:1056A000D00B0020441D0020BE5C0108B41E002069
:1056B00000000020100C0020F7B50F4D002405F568
:1056C0002C760E4F2346214622460094304601F0A8
:1056D00049F93A460A4930460CF022FC4035094B5C
:1056E00028461C7001F02AFD074928463A4603B0B7
:1056F000BDE8F0400CF014BCD00B0020F40F0020EB
:10570000FD5100085E1F002009520008013101EB25
:10571000420291420BD0030F092B94BF3033373331
:1057200001F8013C0023000101F8023BF1E770475A
:105730001F4B10B51A88032A04D80420014618808C
:1057400006F052FB4FF000604FF4A04106F042FB20
:105750000124184B184821461C7006F051FD05F035
:10576000D1FB05F0B7F82146402006F001FE6FF0AE
:105770007F4005F021FAE72005F09AFA0F4B1C70E4
:1057800005F0F2F87D2006F017FE18B10C4B1C70E6
:1057900006F026FE40F6B83005F040F905F096FE1A
:1057A00006F020F9074A01231370074A137010BD51
:1057B000D41F0020B01F002000043000E01E002095
:1057C00078290020681F00205E1F002038B52F4C6C
:1057D0002388042B04D805210420218006F004FB33
:1057E0002B4D2B7813B12B4802F068F82B7853B16E
:1057F0002388052B05D8254B06210420198006F0A7
:10580000F3FA02F0DFF82B7863B1234B1B784BB926
:10581000224B1B7833B1224B1B781BB9214B1B78D1
:10582000002BE3D0204B1B78002BDFD11F4B1B78C4
:10583000002BDBD11B4B1B78012B0FD01C4B6BB10A
:105840002388062B05D8114B07210420198006F068
:10585000CBFAFFF7EDFD134B01221A70154B002B0D
:10586000C4D02388072B05D8084B082104201980B1
:1058700006F0BAFAFFF7C4FE2388082BB6D8034B0C
:1058800009210420198006F0AFFAAFE7D41F0020E9
:10589000681F0020896000081D1F00205E1F002077
:1058A000DE1E00208C0E0020DF1E00207829002044
:1058B0003154000801560008F8B5524B1A6812B16D
:1058C0001A68013A1A60504B504D1B783BB1504B4F
:1058D0001B78002B28D04F4B002B47D124E04E4C97
:1058E0002368264613B12368013B0FE04B4B1B781E
:1058F000D3B94B4B1B78BBB94A4B1B78A3B94A4F62
:105900003B782BB1E72005F047FA142323600BE026
:105910002B78002B2DD1E72005F0F8F9434B1B78AD
:10592000002B34D0322333602B7833B1404C2378B2
:105930001BB92EE05A6801325A603E4B1A68B2F524
:105940007A7F0FD300221A6006F0B2FC3A4B4FF672
:10595000FF711A888A4254D019800420BDE8F840AB
:1059600006F042BA1A6801321A60F8BD00F0D6FBA0
:10597000DAE7324B1B78002BCDD04FF6FF7005F0E5
:105980001BF9E72005F094F901233B70CCE7642371
:10599000C9E7234B1B788BB1294B47F22F5259682B
:1059A0009142C7D9BFF34F8F264A274BD16801F4E4
:1059B000E0610B43D360BFF34F8FFEE7174D2B78A9
:1059C00003F0FF0633B9304605F0FCFA40F6B73372
:1059D00098420DD8002005F0F5FA41F65733984269
:1059E000ABD9002005F0F6FA184B01221A70A4E793
:1059F000304605F0EFFA2378002B9ED101232B705F
:105A00009BE7F8BD80290020901F0020681F002020
:105A1000281200201D6100087C2900200E1F002094
:105A2000DF1E0020E11E0020E01E0020DD1E002001
:105A30001D1F002084290020D41F0020DE1E00200E
:105A40008C0E002000ED00E00400FA050C1F002081
:105A500008B5094B186005F0DFFC002005F028FDB3
:105A6000064804F05BFF05F0EFFC05F00DFDBDE816
:105A7000084007F09BBB00BF84020020A086010005
:105A8000074B1B68052B08D1064B1A7A012A04D153
:105A9000987A1B7BC01AC0B270470020704700BFC5
:105AA000D81F00208C0E00200D4B10B51B68052B55
:105AB00013D10C4C237A012B0FD16289A389D31AFD
:105AC000012B04D100230320237207F0C6FCA38915
:105AD0005A1CA2811C44A07B10BD4FF0FF3010BDAA
:105AE000D81F00208C0E002008B50C4B1B68052B1E
:105AF00012D10B4B1A6D99180132B2F5807F08BF95
:105B0000002281F854001A6505F054FB20B164208E
:105B1000BDE8084004F002BF08BD00BFD81F002048
:105B20008C0E0020F8B5234B93F85421012A3FD066
:105B3000D3F85821196DB2F5807F04BF0022C3F855
:105B40005821D3F858411B4A8C4203D1002382F8D4
:105B50005431F8BD8CBFC4F58071C4EB0101C2F8AB
:105B60005C11D3F85C61134D402EA2B207D94034CA
:105B7000403EC5F85841C5F85C61402706E0344412
:105B80000021B7B2C5F85841C5F85C110A48012494
:105B90001044C0213A4683F8544107F0D9FB20460F
:105BA000394607F0DDFC2046BDE8F84007F042BC6E
:105BB000F8BD00BF8C0E0020E00E0020094B10B590
:105BC00093E8140008331B68D0180AD0064908224D
:105BD000FFF79CFD204605490422BDE81040FFF771
:105BE00095BD10BDE8F7FF1F3302002043020020DF
:105BF00013B5084C002100910A460B46204600F0E0
:105C0000B1FE0549054A204602B0BDE810400CF03F
:105C100087B900BFEC0F0020FD510008F40F0020F1
:105C200038B504460D46AC4203D254F8043B9847BD
:105C3000F9E738BD08B507480749FFF7F1FF0748FE
:105C40000749FFF7EDFFBDE8084006480649FFF7A2
:105C5000E7BF00BFA45F0108A45F0108A45F0108BB
:105C60000060010800600108006001080CF098BAAB
:105C700008B5072005F0DAFFFEE70000074A08B57F
:105C8000136818441060064A904204D9082005F0B1
:105C9000CDFF0CF04BF9184608BD00BF10000020E6
:105CA000004800204FF0FF3070470120704708B5D2
:105CB0000C2005F0BBFFFEE7014B1868704700BFE2
:105CC000F80F0020064B0246582000FB013101F17D
:105CD000080303CB1060516018689060704700BFE4
:105CE000F80F0020014BD3F864017047F80F002033
:105CF000064B0246142000FB013101F5B67303CBBD
:105D00001060516018689060704700BFF80F002065
:105D100038B50546064C28B104F0F0FF012384F89D
:105D2000303238BD04F098FF84F8305238BD00BFDF
:105D3000F80F00200E4B2DE9F041D3F86471804636
:105D40000024BC4211DA14256543094E414606F58C
:105D5000B67028440C220DF0A1F820B93544D5F8CE
:105D60006801BDE8F0810134EBE70020BDE8F08177
:105D7000F80F0020044B01221A70044B00224FF44C
:105D8000C0201A6005F028BCDF1E0020900E002005
:105D9000034A00231370034A136005F07BBC00BF65
:105DA000DF1E0020900E0020024B00221A6005F03A
:105DB0003BBC00BF900E00202DE9F04788B0804624
:105DC00068460D4600F042FF1E4B0024D3F800A0A9
:105DD00054452DDA55B3582666431A4F414607F10C
:105DE000080030440C2207F104090DF057F8E8B917
:105DF00028460DF023F806F11003402834BF024670
:105E00004022294609EB0300FFF782F93E440123B3
:105E100086F85830694604A8746800F039FF04A871
:105E2000A047044604A800F0CFFE03E00134CFE70A
:105E30004FF0FF34684600F0C7FE204608B0BDE8CA
:105E4000F08700BFF80F002010B5064C206803F063
:105E50001DF82368013303D0431E5842584110BD3A
:105E6000012010BD1400002038B50B4B05461B78EF
:105E70000C466BB9094B1B7853B9FFF7E5FF034696
:105E800030B9074A29461068224603F0F1FF38BDB1
:105E90004FF0FF3038BD00BF1C1F00201D1F002029
:105EA000140000202DE9F041264B86B01B78804677
:105EB0000F46002B41D1244B1B78002B3DD1FFF71F
:105EC000C3FF0446002838D1204D8DF80C008DF812
:105ED0000D008DF80E008DF80F00286806AA4609FF
:105EE00002EB8606012100F01F02914056F80C2CAF
:105EF00001300A4346F80C2C41F28832059204AA7C
:105F0000009203A922462346049403F087FE00284A
:105F100015DD2B6806AA590902EB810151F80C5CCA
:105F200003F01F02154115F0010008D01846414644
:105F30003A46234603F012FF01E04FF0FF3006B06F
:105F4000BDE8F0811C1F00201D1F00201400002050
:105F5000F0B5144985B0064600F078FE124B01AC4E
:105F600093E8070084E807000025675D30463B0999
:105F700003F13001392988BF03F1570107F00F07FA
:105F800000F0A8FE07F13001392988BF07F1570159
:105F90003046013500F09EFE0C2DE6D1304605B0AE
:105FA000F0BD00BFD95D0108E8F7FF1F30B51F48FD
:105FB000ADF57B7D07F03DFB002834D11C4B17A8C5
:105FC00005931C4B61AD06931B4B049007931B4B31
:105FD0000EAC08931A4B039509931A4B0A931A4B6C
:105FE0000B931A4B0C931A4B0D931A4B0E931A4B9F
:105FF0000F931A4B10931A4B11931A4B12931A4B7F
:1060000013931A4B14931A4B15931A4B169305F0CE
:1060100087FB284605F08AFB00940448164903AA2A
:1060200005AB07F00DFB0DF57B7D30BD2C1200207C
:10603000695E0008A55E0008755D0008915D0008B6
:106040005DB70008A95D0008115D00088D640008B7
:10605000B96D0008B95C0008C55C0008B95D0008AE
:10606000E55C0008F15C000829630008355D000864
:1060700039B700084DB70008E8F7FF1F014808F0DE
:1060800013BA00BF2C12002030B502208DB001469B
:10609000112203F0D7FC051E28DB07A8144907F0DE
:1060A0001FFC0223ADF80C3016238DF80E3033237D
:1060B0008DF80F30E0238DF8103000238DF811306B
:1060C00001238DF81230BB238DF81330032403AB6A
:1060D000009310230193284607A91322002303F0FD
:1060E000D1FE013CF3D1284603F0DCFC0DB030BDFD
:1060F000E8F7FF1F38B5084CFFF758FF204607F0B8
:106100009BFA204607F075FE0546FFF7BDFF2046C7
:1061100007F0DEFD284638BD2C12002038B5114CA2
:10612000D4F8585B2DB1D4F8583B013BC4F8583B28
:1061300038BDD4F85C3B0C4A52F8230004F064FDEF
:10614000E72004F0B5FD6423084AC4F8583BD4F8AE
:106150005C3B526801339342C4F85C3BA8BFC4F86F
:106160005C5B38BDF80F002070310108140000207E
:106170007FB502200121062203F064FC041E24DB0B
:106180000223ADF8003000238DF8023035238DF85E
:1061900003304FF4FA5008238DF804308DF80530A1
:1061A0008DF806308DF8073001F080FB694610222B
:1061B0000546204603F004FD0646284601F076FB1E
:1061C000204603F06FFC304601E04FF0FF3004B092
:1061D00070BD000010B5064C2068002805DB03F0F8
:1061E00061FC4FF0FF33236010BD002010BD00BFE5
:1061F00014000020F0B5A7B0FFF7ECFF022001214A
:10620000062203F01FFC324F0028386050DB314D6E
:106210000223A5F8603B162385F8623B05A83323CB
:1062200085F8633B05F048FA002300939DF814308D
:106230003BB1012B17D0284B01AC03F1100E2246C5
:1062400002E0069B009313E018685968264603C6CF
:10625000083373453446F7D10FCA06AC07C424F897
:10626000023B1B0C23700A24009B0BB9013C22D17A
:10627000009B0BB9194B0093009B4FF4FA501A0E78
:1062800085F8642B1A0C85F8652B1A0A85F8673B8C
:1062900085F8662B01F00AFB114904461022386884
:1062A00003F08EFC0546204601F000FB28460CE07A
:1062B0004FF0FF3009E006A87E210CF049FE6A4647
:1062C00081B206A803F042FCCEE727B0F0BD00BFC4
:1062D00014000020F80F00201B5C010804E5D036F4
:1062E000581B00200F4B2DE9F041D3F86471804614
:1062F0000024BC4211DA142565430A4E414606F5D6
:10630000B67028440C220CF0C9FD20B9354495F82C
:106310007801BDE8F0810134EBE74FF0FF30BDE8D4
:10632000F08100BFF80F002008B5FFF7DBFF013850
:1063300008289DBF024BC018007F022008BD00BF87
:106340007031010837B50B4C002104F537650B4659
:1063500000910A46284600F005FB28460649074AF0
:106360000BF0DEFD04F50D7003B0BDE8304007F022
:106370004BB900BFF80F0020FD510008F40F0020BA
:1063800014282DE9F34104460E4675D8FF2973D031
:1063900000F0E2FB18B1A4F10D03022B6CD900F060
:1063A00067FA08B1012C67D900F0DAFF18B1A4F13F
:1063B0001203012B60D918236343314DEA18EF58BB
:1063C000304BB2F804809F4201D1042003E02E4BF1
:1063D0009F4203D10820012105F0D6FFADF80480CB
:1063E000062E45D8DFE806F0040F171F27313C00C2
:1063F00010238DF8073003238DF80630182303FB94
:106400000454002333E004238DF80730182303FBE2
:10641000045401232BE048238DF80730182303FB95
:106420000454022323E028238DF80730182303FBAC
:10643000045403231BE0182303228DF8073003FBC9
:1064400004548DF80620042311E01C238DF8073036
:1064500003238DF80630182303FB0454052306E0BC
:1064600000238DF80730182303FB04540623A3737D
:10647000384601A905F06CFE02B0BDE8F08100BF0E
:106480001C00002000080140000C014005F0A0B9EC
:1064900030B54FF47A7385B01C4C009323680546E1
:1064A0000344236005F094F9019005F001FF05F025
:1064B0008FF90290029A019BD31A0393039B002B3E
:1064C00003DA019B029A13440393039BAB421AD253
:1064D0000F4B1B78002BE8D00E4B1B78002BE4D120
:1064E000039A009B9A4203D22368B3F57A7FDCD3E8
:1064F000039B03F57A73009301F064FA064B1B7853
:10650000002BF9D1D1E705B030BD00BF181F002026
:10651000681F00201D1F0020DF1E002013B5084C3F
:10652000002100910A460B46204600F01BFA05495F
:10653000054A204602B0BDE810400BF0F1BC00BF98
:106540009C1B0020FD510008F40F002038B5184BAB
:1065500005461C8803F580631B88A4B29BB22BB947
:106560004EF6EE62A21A18BF012205E0F4B94EF60B
:10657000EE629B1A5A425A4192020E4B02F100649B
:1065800004F5804413449C420ED22268013209D1A2
:10659000204605F0C1FD042809D1A01C294605F0BC
:1065A000BBFD38BD0434EEE7802038BDAB2038BDDC
:1065B00000400008FE43000808B5084805F08EFDBD
:1065C00004280AD10548002105F0A6FD042804D1BD
:1065D000BDE80840024805F081BD08BD0040000844
:1065E00000440008104B10B51C8803F580631B881D
:1065F000A4B29BB21CB10BB1AB2010BD01240B4B5C
:10660000A40223440A4A224493420AD91A8892B225
:10661000824204D133F8023C00200B8010BD043BC1
:10662000F0E7012010BD00BF00400008FE43000855
:1066300002400008F8B5444E05F010FD434D348883
:106640004EF6EE61A4B22B888C429BB24FF6FF72DD
:1066500010D0944202D0002C73D142E00BB93046E6
:106660006CE08B426DD1304605F038FD04286AD1CC
:10667000284632E04BBB1C461646354B354A1B8834
:1066800032F814509BB2AB4208BFA6B233B29C4260
:1066900003D10134642CF0D10FE02E4F284607F1CE
:1066A000C801FFF79FFF0128F3D02846B7F8C810AC
:1066B000FFF74CFF0428ECD0F8BD2348002105F07B
:1066C0002BFD04283FD1214838E0934239D1284698
:1066D00005F004FD042836D13046002105F01CFDEC
:1066E000F8BD73B3934201D1284627E016461A4BF2
:1066F000184A1B8832F814509BB2AB4208BFA6B2AE
:1067000033B29C4203D10134642CF0D10FE0114F1D
:10671000284607F1C801FFF765FF0128F3D0284696
:10672000B7F8C810FFF712FF0428ECD0F8BD0748EF
:10673000002105F0F1FC042805D1034805F0CEFC4A
:10674000F8BDFFF739FFF8BD00400008004400081D
:1067500006400008A41B00200644000810B50446AB
:10676000FFF768FF0023044A22F813300133642B3B
:10677000F9D1204610BD00BFA41B00200148FFF73F
:10678000EDBF00BF6E1C0020024B18785B78C01A6A
:10679000704700BF701C0020064B5A781978914250
:1067A00004D99918013288785A7070474FF0FF3039
:1067B000704700BF701C0020044B5A781978914232
:1067C00086BF9B1898784FF0FF307047701C0020F0
:1067D00070470000014B0360704700BFE0310108C3
:1067E00010B5034B04460360FFF740FA204610BD86
:1067F000E0310108F8B5094B054693F822301646FA
:1068000053B10C468F18BC4206D02B6828469B68B3
:1068100014F8011B9847F6E73046F8BD701C0020BD
:1068200010B50C4B012293F822408CB193F8234011
:106830001F2C02D94260002010BD93F824001C18C0
:1068400084F82510411CC9B283F8241083F8231062
:10685000104610BD701C0020002242604FF47A7276
:106860008260014A02607047A0310108704770479A
:10687000014B93F859007047701C002073B50E4C03
:10688000002104F164050D4E0B4600910A4628468E
:1068900000F068F86C343246094928460BF040FB9A
:1068A0002046FFF7D9FF07492046324602B0BDE82F
:1068B00070400BF035BB00BF701C0020F40F0020AF
:1068C000FD510008D567000808B5034B53F8203088
:1068D00003B1984708BD00BFEC1C002013B5084C5D
:1068E000002100910A460B46204600F03BF805497E
:1068F000054A204602B0BDE810400BF011BB00BFB6
:106900002C1D0020FD510008F40F00202DE9F0415E
:10691000002407460E4625463B1919790A223046BF
:1069200000F0DEF82E218046304600F094F8013465
:106930004044032C0544EFD13046F9790A2200F097
:10694000CFF82844BDE8F08110B5054A044600217F
:1069500040F8042B04220BF061FF204610BD00BF5D
:10696000C831010830B58371034D9DF80C300560C6
:1069700001714271C37130BDC83101080548064B31
:1069800006490360064A0023037143718371C37192
:106990000BF0C6BA341D0020C8310108FD510008B3
:1069A000F40F002037B5064C0546E178A2786378ED
:1069B00024780094FFF7D6FF284603B030BD00BF0F
:1069C000241F002013B5084C002100910A460B46F5
:1069D0002046FFF7C7FF0549054A204602B0BDE83B
:1069E00010400BF09DBA00BF3C1D0020FD51000877
:1069F000F40F0020014B0360704700BFE031010835
:106A0000F8B506460C468F180025BC4207D03368FF
:106A100030469B6814F8011B98470544F5E7284663
:106A2000F8BD000010B5034B04460360FFF71EF9E4
:106A3000204610BDE031010838B505460C46084631
:106A400041B10CF0FBF92B680246DB682846214671
:106A5000984738BD38BD08B503689B68984708BD9E
:106A600038B50D210546FFF7F6FF0A2104462846F2
:106A7000FFF7F1FF204438BD38B50446FFF7DCFFCF
:106A800005462046FFF7ECFF284438BD30B500230B
:106A90008BB08DF82430012A98BF0A220DF123040F
:106AA000B1FBF2F303FB1211CDB2092D94BF3035C7
:106AB0003735EDB2214604F801590BB11946EFE71D
:106AC000FFF7BAFF0BB030BD10B522B90268C9B2EA
:106AD0009268904710BDD2B2BDE81040FFF7D6BF14
:106AE000FFF7F2BF38B50446FFF7EEFF0546204634
:106AF000FFF7B6FF284438BD13B5084C00210091BC
:106B00000A460B462046FFF72DFF0549054A204659
:106B100002B0BDE810400BF003BA00BF4C1D0020CE
:106B2000FD510008F40F002013B5084C002100911E
:106B30000A460B462046FFF715FF0549054A204641
:106B400002B0BDE810400BF0EBB900BF541D0020AF
:106B5000FD510008F40F0020014B587D704700BF25
:106B60005C1D00207047000013B5084C0021009107
:106B70000A460B462046FFF7F5FE0549054A204622
:106B800002B0BDE810400BF0CBB900BF741D00206F
:106B9000FD510008F40F002013B5084C00210091AE
:106BA0000A460B462046FFF7DDFE0549054A20460A
:106BB00002B0BDE810400BF0B3B900BF801D00204B
:106BC000FD510008F40F002010B5044600680BF0DA
:106BD000E7FA204610BD10B50446006808B10BF076
:106BE000DFFA00232360A360636010BD38B504465C
:106BF0000D46006801310BF07FFE10B184E82100E2
:106C0000012038BD036810B5044613B143688B42B8
:106C100007D22046FFF7EAFF20B1A3680BB922682C
:106C20001370012010BD70B50E461146044615467E
:106C3000FFF7E8FF18B92046FFF7CDFF04E0A56095
:106C4000206831460CF09CF8204670BD38B5002312
:106C5000044603604360836003730D4639B1084600
:106C60000CF0ECF8294602462046FFF7DCFF2046F0
:106C700038BD884210B50B46044607D0096819B1E3
:106C80009A68FFF7D0FF01E0FFF7A5FF204610BD8F
:106C900010B5002304460360436083600373FFF76D
:106CA000E8FF204610BD70B5044685680E4609B958
:106CB000002070BD62B115442946FFF7A3FF0028EC
:106CC000F6D02068A368314618440CF059F8A56046
:106CD000012070BD07B500238DF80410012201A921
:106CE0008DF80530FFF7DFFF03B05DF804FB00000F
:106CF00013B5084C002100910A460B462046FFF7C9
:106D000031FE0549054A204602B0BDE810400BF0AF
:106D100007B900BF881D0020FD510008F40F0020B6
:106D200013B5084C002100910A460B462046FFF798
:106D300019FE0549054A204602B0BDE810400BF097
:106D4000EFB800BF901D0020FD510008F40F002097
:106D500038B5184C94F92C305BB394F82D3043B30C
:106D600005F066FB94F82C2094F82D5051B20029C0
:106D700095FBF1F106DD01290BDC013A84F82C20AA
:106D8000002307E0013104DB013284F82C200223C8
:106D900000E0012394F82D20013A84F82D20C41836
:106DA00005F078FB204605F055FBBDE8384005F0BE
:106DB00071BB38BD981D002010B5044605F038FBA6
:106DC000001B00F17F02FE2A08D905F063FB204674
:106DD00005F040FBBDE8104005F05CBB054A80EAC9
:106DE000E073A3EBE0735B0082F82C0082F82D3097
:106DF00010BD00BF981D002013B5084C0021009164
:106E00000A460B462046FFF7ADFD0549054A2046D8
:106E100002B0BDE810400BF083B800BFC81D0020D1
:106E2000FD510008F40F002013B5084C002100911B
:106E30000A460B462046FFF795FD0549054A2046C0
:106E400002B0BDE810400BF06BB800BFD41D0020AD
:106E5000FD510008F40F002008B503689B6B9847AC
:106E600008BD0000024A02608A694260704700BFA4
:106E7000C8310108808B7047B0F83622B0F8340270
:106E8000101A70474B6802218283C18380F8212049
:106E9000110AC3F30722836180F8223080F823208F
:106EA000C3F307421B0E80F82530102380F8201012
:106EB00080F824200363012070470120704713B538
:106EC000026802AB03F8011DD46819460122A047ED
:106ED00002B010BD036810B51B690446984740B165
:106EE000B4F834325A1CA4F834221C4494F8340008
:106EF00010BD4FF0FF3010BD036810B51B6904468C
:106F0000984728B1B4F834321C4494F8340010BDCA
:106F10004FF0FF3010BD0023A0F83432A0F8363215
:106F2000704710B50446007C082801D002F0BAFD75
:106F30000823237410BD13B5034603F11E04007C1F
:106F400000941B6B0193002302F09CFF02B010BD64
:106F5000036870B51B6904460E4615469847C0B1D4
:106F6000236820461B699847854204D92368204638
:106F70001B6998470546B4F8341230462144343131
:106F80002A46FEF7C5F8B4F834322B44A4F834325C
:106F900001E04FF0FF35284670BD7FB504460D4631
:106FA00000F070FA0228064620D10146112202F0B4
:106FB00049FD23682074DB69204698470021102290
:106FC000658268460BF02AFC2B0A207C6946102259
:106FD000ADF800608DF802308DF8035002F088FDA6
:106FE000002805DA236820465B6A9847002000E005
:106FF000012004B070BD30B5036887B01B6904463A
:107000009847054600285CD100F03CFA022858D188
:10701000207C082855D0430906AA02EB83030121EE
:1070200000F01F0291408DF80C508DF80D508DF836
:107030000E508DF80F5053F80C2C01300A4343F8D2
:107040000C2C41F28833059304AB009303A92A4624
:107050002B46049502F0E2FD002832DD207C06ABD1
:10706000420903EB820252F80C2C00F01F0342FA93
:1070700003F3DB0725D504F11E03009304F130036D
:10708000019304F134014FF400722B4602F071FEBB
:10709000002816DD94F8202094F82130A4F834520A
:1070A00043EA0223A38394F82230A4F8360223761D
:1070B00094F82330637694F82430A37694F825303E
:1070C000E376236820461B69984707B030BD00006F
:1070D0002DE9F04188B006460F46904600F0D2F9FF
:1070E00002284FF0000422D108AD384645F8144D6F
:1070F0000BF0A4FE2A4681B2384602F027FDA042DA
:1071000015DD039B04A8DAB20092190EC3F30742FF
:10711000C3F30723FFF726FC336830469C6A064B0F
:1071200006A90693059B42460793A04700E0204628
:1071300008B0BDE8F08100BFC8310108002310B5D8
:1071400043604FF47A738360044B04460360082362
:1071500003741430FFF7F8FB204610BDF831010826
:1071600013B5084C002100910A460B462046FFF754
:10717000F9FB0549054A204602B0BDE810400AF077
:10718000CFBE00BFDC1D0020FD510008F40F002021
:10719000014B0360704700BFE03101080369186CC0
:1071A0005B6CC01A00F03F0070470369196C5A6CA1
:1071B00091421ABF5A6C985C4FF0FF3070470369D8
:1071C000196C5A6C914207D05A6C985C5A6C013217
:1071D00002F03F025A6470474FF0FF3070470000E2
:1071E00010B5034B04460360FEF740FD204610BD7A
:1071F000E0310108436910B50446196C5A6C91429C
:10720000FBD1237E13B90023237610BD0348402110
:1072100005F08DFB0028F6D1F3E700BF00440040E5
:1072200070B504460E462C4840F2277105F085FBE8
:1072300020B963691A6C5B6C9A4211D163691D6C49
:10724000013505F03F0563695A6C95420FD0EFF3A5
:107250001082D20732D5196C5A6C914207D12DE0B9
:107260001D4840F22771012205F041FBE6E71A486C
:1072700040F2277105F061FB0028E4D01648802118
:1072800005F055FB0028DED0134840F2277100229C
:1072900005F02DFB636910485A6C511C5964995CC8
:1072A00005F03DFB63690C485A6C40F2277102F00F
:1072B0003F025A64012205F01AFBC4E71A6C064823
:1072C0009E54636940F227711D64012525762A4684
:1072D00005F00DFB284670BD0044004010B51E4867
:1072E00040F2255105F029FB78B11B4805F01BFB46
:1072F0001A4BC0B25A6D996D013202F03F028A42B8
:1073000003D0596D5A6519440875134840F2277126
:1073100005F013FBF8B1114CD4F89C20D4F8A03040
:107320009A4207D1BDE810400B4840F22771002275
:1073300005F0DDBAD4F8A03007485A1C234493F86E
:107340005C10C4F8A02005F0EAFAD4F8A03003F0ED
:107350003F03C4F8A03010BD00440040E41D0020ED
:10736000014B187C704700BFE41D0020F7B5164C98
:10737000002504F1A406154F2B4629462A46009500
:107380003046FFF7EFFA3A46304611490AF0C8FD99
:107390004FF47A73C4F8B4300E4B0F49C4F8AC30D4
:1073A00004F11403C4F8BC3004F1AC0004F15C0334
:1073B0003A46C4F8B050C4F8C03084F8C45003B0A2
:1073C000BDE8F0400AF0ACBDE41D0020F40F002041
:1073D000FD510008483201089171000870474FF0D4
:1073E000FF307047014B0360704700BFE031010878
:1073F00010B5034B04460360FEF738FC204610BD71
:10740000E0310108FEF750BB08B5FEF739FB08BDB7
:1074100008B50846FEF768FB012008BD002242605F
:107420004FF47A728260014A02607047703201083C
:107430000846FEF70DBB000037B50D4C00210D4D81
:107440000B4600910A462046FFF78CFA2A460A4965
:10745000204608340AF064FD2046FFF7DFFF0749A5
:1074600020462A4603B0BDE830400AF059BD00BFAF
:10747000AC1E0020F40F0020FD510008E573000849
:1074800070470000054B1B7803F0FF002BB1044B45
:107490001B78002B14BF0220012070470D1F002015
:1074A000DC1E002037B50B4C00210B4D0B46009124
:1074B0000A462046FFF756FA2A46204607490AF0B0
:1074C0002FFD074904F108002A4603B0BDE830400B
:1074D0000AF026BDC41E0020F40F0020FD51000854
:1074E000817400080023036018467047002303607E
:1074F0001846704700230360184670472DE9F04195
:107500000B7890B004460D4616462BB1032A54D88A
:10751000DFE802F002113C3C20460BF08FFC012317
:107520000246002000930190029003900490059081
:10753000214603463DE008460BF080FC00264FEA5A
:1075400050088DF81E60464505F1020508AF0FD0C2
:1075500015F8023C07A88DF81C3015F8013C0021F5
:1075600010228DF81D300BF0A3FDB8550136EAE767
:1075700020460BF063FC0023024601208DE8410009
:107580000293039304970593214612E00BF056FCF7
:10759000074628460BF052FC012118221E234FF00B
:1075A000020E8DE80E4005900495304621463A467D
:1075B000002302F09FFD044B1870034B01225A7008
:1075C00010B0BDE8F08100BFD01E0020034610B50A
:1075D00048F21004A34208464CD00DDC48F20102E8
:1075E000934224D048F2020293422AD0992B64D1CC
:1075F000324B01229A7410BD48F28004A3420FD08E
:10760000B3F5084F49D048F24000834255D12B4C86
:1076100004F11400FDF77CFDA36A0133A36210BDE1
:10762000264B01229A70DA7000221A7110BD234C89
:1076300001236371FEF72AFF00F5EA403030A060B5
:1076400010BD1E4C637963B1FEF720FF00F5EA40E0
:107650003030A0604FF47F4003F0AEFAE72003F033
:1076600027FB0023637123736373A373E373237492
:10767000637410BD0A7D114B62B99A604FF47F406C
:1076800001221A731A7403F097FABDE81040E7203C
:1076900003F00EBB00221A7310BD002100F0F3FFAF
:1076A0000121044601F036F8054B1B689C4204D1C9
:1076B000024B0022DA739A735A7310BDD01E002059
:1076C000140000201FB54FF461504FF461610A228D
:1076D00000238DE80F00064B44F620621A606846CE
:1076E00001A902AA03AB01F0D7FC05B05DF804FBC9
:1076F0008C1F00201FB50023009301930293039376
:1077000001A8694602AA03AB01F08CFC05B05DF844
:1077100004FB000070B500210A4C0E2001F08EFD24
:10772000102510210E2001F089FD2A462046002157
:107730000BF074F8294623460E200022BDE8704065
:1077400001F030BDFC1E002030B5524D00249FB02A
:10775000FF20AC70EC706C706C712C73AC746C733B
:10776000AC73EC732C7403F027FAE72003F0A0FA53
:1077700021462246204602F099FC2B46012103F8BF
:107780002D4F0E200A4601F00DFD6B79012B05D11E
:10779000642003F0BBF801F0DDF8F6E710210C20BF
:1077A00001F04CFD3C4802F009F93C4802F0F2FDC2
:1077B000012002F0D3FD6846394900F0E9FDAB78BD
:1077C0006A78344C1A4317D194F83C30002B57D0C8
:1077D000FF2002F075FD002852D11A24013C06D08A
:1077E000E72003F093FA322003F090F8F6E7FFF772
:1077F00091FF85F83C40E2E7E72003F059FA04F1F5
:107800002C030E200121002201F09EFCA37813B16D
:1078100002F0E0FD20702B780121013385F82C3037
:107820000022204B0E2001F0BDFC00200124014667
:10783000012202F03BFC214622461B4B0E2085F81C
:107840002D4001F0AFFC02F0B5FB642003F05EF8C0
:10785000002002F079FB85F83D404FF47F40002482
:107860002C7403F0A9F9E72003F022FA48F204206F
:1078700002F042FDFFF726FF85F83E401FB030BD05
:10788000E72003F043FAFA2003F040F8684600F0DE
:10789000DBFD94E7D01E0020903201081802002082
:1078A000FD740008FC1E0020FD1E0020024B1A681B
:1078B00018601046704700BF8C1F00207FB5364C03
:1078C0000025206403F0D8FC03F018FC334B344A45
:1078D0000093344B34490193344B35480293354B74
:1078E0000393354B02F018FB642003F00FF80020DF
:1078F00002F02AFB012348F2042084F83D3025746D
:1079000002F0FAFC2D4B1A881E46012A31D00E20B7
:1079100010212A4604F12C0301F016FC102828D16E
:1079200023791D4DABB995F82C301BB9012385F88F
:107930003E300EE095F82D0058B90146012202F0C4
:10794000B5FB01212B4603F82D1F0E200A4601F03E
:1079500029FC2379BBB9104B93F83E309BB11848F2
:1079600001F052FCFFF7C6FE04B0BDE87040FFF71F
:10797000A9BEFF2002F0A4FCFFF7CCFE0023338059
:1079800003F0D2FDCCE74FF47F4003F015F9E72078
:1079900003F08EF9E3E700BFD01E0020B5B1000868
:1079A000ED740008C9B10008E574000835B200089C
:1079B000CD7500085DB20008F5740008660300206C
:1079C000141F00202DE9F341AE4C04F071FC00239C
:1079D000A36494F84C304BB994F84D3033B9A36894
:1079E0007BB3FEF753FDA36898422AD394F83D3049
:1079F000A44D002B40D000266E71AE602E732E6514
:107A000085F84C60012785F83D606E73AE73EE73A8
:107A10006E7402F0CFFA6FF07F402F7403F0CCF851
:107A2000E72003F045F9642002F070FF95F83E303E
:107A300013B3304602F088FA85F83D70FFF784FEF4
:107A40001AE094F83D308F4DB3B92B792BB9FEF77E
:107A50001DFD00F5EA403030A860002002F074FA05
:107A6000012384F83D304FF47F400023237403F05A
:107A7000A3F8E72003F01CF994F83E30814E13B1CF
:107A8000FFF762FE05E033791BB1337B03F0FF059E
:107A9000FBB1E2787B4B012A13D11A7B012A10D16A
:107AA0005B79012B0DD1032577480BF0C7F9013D18
:107AB00082B27549012002F0F1F915F0FF05F3D10A
:107AC000E570237B6F4DE3B195F84D30002B74D0FA
:107AD00017E029462A462846B56002F0E7FA6B48C7
:107AE0000BF0ACF96A4F804638460BF0A7F90097C7
:107AF0000190791F032042462B4602F071FA35713E
:107B0000C7E794F8573023B1624800213A220AF0BF
:107B100085FE94F88E205B4B32B95A7B002A58D1EF
:107B20009B7B002B55D1BBE01A7BFAB193F84D201B
:107B3000E2B95A7B002A5CD018E02B4603F82F2FBD
:107B40000E200121032201F02DFB00264FF6FF70CD
:107B5000267403F031F8E72003F0AAF8FEF74AFB99
:107B6000B042484D65DB01232E656B73637B454D49
:107B7000002B00F09580AB7BBBB9FEF7BBFA002869
:107B800011D002DA4FF47F0007E0012801D142480A
:107B900003E0022803D14FF0FF1003F00DF8E720B7
:107BA00003F086F801E00123AB73FEF767FA0028C3
:107BB00076D1E073A073607372E095F85730002BB4
:107BC000A7D1642002F0A2FE05F1540001F0AAFA48
:107BD0009FE7FEF7FFFA00234FF47F40E373A373A0
:107BE000637302F0E9FFE72002B0BDE8F04103F063
:107BF0005FB85B7C002BA8D04FF47F0002F0DCFF65
:107C0000637C204D03F0FF02002B96D0E72003F0A9
:107C10004FF84FF4FA7002F079FEE72003F056F8BF
:107C20004FF4FA7002F072FE6B7C013BDBB26B74B6
:107C3000E6E795F84C309BBB2B6D0133022B2B658F
:107C400004BF012385F84C30FEF792FA00280ADAC7
:107C5000236D0133022B236503D10A4B012283F8E4
:107C60004C20022300E003236374637C0E2084F81D
:107C70002F300121094B032201F094FA0023637392
:107C800074E700BFD01E00201B020020220200204B
:107C900027020020241F00200060FF00FF1E00209C
:107CA00002B0BDE8F08100BF13B5084C002100917F
:107CB0000A460B462046FEF755FE0549054A204672
:107CC00002B0BDE810400AF02BB900BF601F0020D1
:107CD000FD510008F40F0020704708B5012003F0A3
:107CE000A5FFFEE708B5032003F0A0FFFEE708B5F7
:107CF000042003F09BFFFEE708B5052003F096FF84
:107D0000FEE770477047704708B503F059FDBDE8BE
:107D10000840FDF7D1BD000008B5024B0BB1AFF331
:107D2000008008BD0000000008B5024B0BB1FFF752
:107D3000D5FA08BDDD72000808B5024B0BB1FEF79D
:107D400095FD08BD6D68000808B5024B0BB1FEF744
:107D50008EFD08BD6F68000808B5024B0BB1FEF739
:107D600001FF08BD656B000808B5012004F062F949
:107D700038B1012004F06CF9024B13B10020FEF77A
:107D8000A3FD08BDC968000808B5022004F052F937
:107D900038B1022004F05CF9024B13B10120FEF768
:107DA00093FD08BDC968000808B5042004F042F935
:107DB00078B1042004F04CF90020064B01461880ED
:107DC00003F02CF8BDE8084003481021012204F01C
:107DD00046BD08BDAC1F0020002C014008B508209E
:107DE00004F028F938B1082004F032F9024B13B13D
:107DF0000320FEF769FD08BDC968000808B510201A
:107E000004F018F938B1102004F022F9024B13B134
:107E10000420FEF759FD08BDC968000808B52020F8
:107E200004F008F938B1202004F012F90E4B13B118
:107E30000520FEF749FD402004F0FCF838B1402051
:107E400004F006F9084B13B10620FEF73DFD802033
:107E500004F0F0F838B1802004F0FAF8024B13B1C6
:107E60000720FEF731FD08BDC968000808B54FF4CA
:107E7000005004F0DFF840B14FF4005004F0E8F88F
:107E8000174B13B10D20FEF71FFD4FF4804004F097
:107E9000D1F840B14FF4804004F0DAF8104B13B140
:107EA0000E20FEF711FD4FF4004004F0C3F840B17E
:107EB0004FF4004004F0CCF8094B13B10F20FEF74B
:107EC00003FD4FF4006004F0B5F838B14FF40060E2
:107ED00004F0BEF8BDE8084002F0A2BC08BD00BF37
:107EE000C968000808B50F48102104F0F1FCC0B1C2
:107EF0000C48102104F0F7FC002003F053F828B9D7
:107F0000094B1A880A3292B21A8008BD054810211E
:107F1000002204F0A4FCBDE808400020012102F08A
:107F20007DBF08BD002C0140AC1F002008B5024BEE
:107F30001B6803B1984708BD6C1F002008B5024BB1
:107F40005B6803B1984708BD6C1F002008B5024B61
:107F50009B6803B1984708BD6C1F002008B501203D
:107F600004F0AEFA50B1012004F0BAFA044B0BB1A0
:107F7000FEF7EEFEBDE8084004F08CBA08BD00BF75
:107F8000516D000808B5022004F09AFAB0B10C4B0C
:107F900000224FF400301A7004F05AF8012004F067
:107FA000B1F910B1012004F0B7F904F073FA02201E
:107FB00004F096FABDE8084004F06CBA08BD00BFB2
:107FC0001D1F002002F0BEBB00F064B838B5144994
:107FD0000B78012B23D1134A13680BB90B7038BDF2
:107FE000114C402B206881B205D94030403B2060C5
:107FF0001360402504E09DB2034423600023136016
:108000000A482A460844C02105F0A2F90120294661
:1080100005F0A6FABDE83840012005F00BBA38BDDE
:10802000E00F0020E80F0020E40F0020E00E002009
:1080300008B5094B01221A70084B002203201A8050
:1080400005F0BCFA064B024618804FF488710548CB
:10805000BDE8084005F094B9940E0020980E002069
:10806000960E00209A0E0020084B1B68052B0BD1A2
:10807000074B1A68052A02F1010101D01960704707
:1080800000221A60FDF74EBD704700BFD81F0020C8
:10809000781F002070B52B4D2B4C2B682B4E9BB2BC
:1080A0002380228833881340990508D54FF6FF5363
:1080B0002B60A3780133DBB2A370FFF7D5FF2288D2
:1080C000338813401A0401D505F08CF822883388D0
:1080D00013405B0505D54FF6FF332B601C4B5B68E7
:1080E0009847228833881A40900444BF4DF6FF72A7
:1080F0002A6022881340D90405D54EF6FF732B6001
:10810000002003F051FD2288338813401A050BD557
:10811000104B1B7813B103F027FD02E0022003F09F
:1081200043FD4FF2FF732B60228833881340DB0539
:1081300007D54FF6FF632B600720BDE8704003F0C2
:1081400033BD70BD445C00407C1F0020C42900206A
:108150008C0200208C030020034B9B7A13B1034B4D
:1081600005221A60704700BFA0290020D81F0020F8
:10817000014B04221A607047D81F0020034B1A7865
:10818000202A04BF00221A70704700BF801F002001
:1081900070470000212810B508D1114B1B681B78CF
:1081A00003F07F03212B10D0022010BD2028FBD12B
:1081B0000B4B0C4A1B681B78107003F07F03212BBC
:1081C000094B18BF00230BB9EEE7084B044A002403
:1081D00012682046936154829847204610BD00BF24
:1081E000C0290020801F00203D8200082582000851
:1081F000074B1B681B7803F07F03212B06D100F08F
:10820000DF0002280CBF00200220704702207047C8
:10821000C029002021B9022834BF00200220704765
:108220000220704720B9034B08221B681A8270474E
:1082300001487047C02900208402002020B9034B68
:1082400008221B681A82704701487047C029002025
:108250008402002010B5FDF7B1FC054B00241B681B
:108260009C7203F069FC05F0BFF9024B1C6010BD65
:10827000C0290020D81F0020334B344A1B68D27914
:1082800010B500245A729C72DC72204605F08AF800
:1082900020464FF4007105F08DF82046102105F0BE
:1082A00097F82046402105F02FF98021204605F05F
:1082B0001BF9204605F0E4F8254B204693F83410CE
:1082C00005F05CF9204605F0C8F80120214605F0CC
:1082D00071F80120C02105F007F90120202105F0E7
:1082E00077F80120214605F08CF802204FF4C06198
:1082F00005F060F802204FF4807105F0F5F80220D7
:10830000214605F07EF80220202105F061F80320C7
:10831000214605F04FF803204FF4887105F0F4F87A
:108320000320402105F02AF903204FF4405105F0C5
:1083300068F80320214605F04BF8204604F0E6FEDD
:10834000044B01221A6010BDC0290020FD32010833
:1083500084020020D81F0020014904F0D3BC00BFD4
:10836000BC020020014904F0CDBC00BFC4020020C3
:10837000054B1B68DB78042B04D8044901EBC301CF
:1083800004F0C0BC00207047C0290020CC020020AF
:1083900038B504460D46FFF741F8204625614FF4F5
:1083A0001651FFF745F8204638BD70B506460D4614
:1083B000002428460AF042FD844208D2295D304656
:1083C000FFF726F8012002F0A1FA0134F1E770BDB1
:1083D0002DE9F04104460E46904600252046FFF761
:1083E00013F80028FADD2046FFF70CF84545C1B226
:1083F00006D10023337020461249FFF7D6FF15E05F
:108400000D29F6D00A29F4D0082901D07F2904D1FA
:10841000002DE3D0771E013D02E0771C317001355D
:108420002046EDB2FEF7F4FF3E46D7E72046FEF7C2
:10843000EBFF002803DD2046FEF7E4FFF6E7BDE88A
:10844000F08100BFD75D0108F0B585B00446FEF7A6
:10845000DBFF002840F39B802046FEF7D3FFC0B22D
:10846000772867D104F1140600212122304604F157
:1084700035050AF0D3F94122002128460AF0CEF949
:1084800004F17607002384F87630204641497B705A
:10849000FFF78BFF204631462022FFF799FF204649
:1084A0003D49FFF782FF012220463946FFF790FF42
:1084B00094F87630A3F13002032AF0D8312B0BD197
:1084C00020463649FFF771FF20463549FFF76DFF1B
:1084D00020463449FFF769FF94F87620B2F130075F
:1084E00008D020463049FFF760FF20462946402249
:1084F000FFF76EFF20462D49FFF757FF23693A46E5
:1085000030462946984720462949FFF74EFF204626
:108510002849FFF74AFF20462749FFF746FF204634
:108520002649FFF742FF20462549FFF73EFF204638
:10853000244927E069282AD1234B01AD93E807009D
:1085400085E8070020462149FFF72FFF0026AF5D91
:1085500020463B0903F13001392988BF03F1570157
:1085600007F00F07FEF754FF07F13001392988BFE4
:1085700007F1570120460136FEF74AFF0C2EE6D1DF
:108580001349204605B0BDE8F040FFF70EBF05B027
:10859000F0BD00BF2B5C0108325C01085F5C010884
:1085A000955C0108C05C0108065D0108115D0108C9
:1085B000545D0108745D0108A75D0108DA5D0108DA
:1085C000195E01084A5E0108E8F7FF1F605E0108B6
:1085D000D75D010813B5084C002100910A460B46EF
:1085E0002046FEF7BFF90549054A204602B0BDE81E
:1085F000104009F095BC00BF841F0020FD51000809
:10860000F40F0020002100F004B80E4B5B584350DB
:1086100004310D480D4B42189A42FFF4F6AF0C4A54
:1086200000F003B8002342F8043B0A4B9A42FFF4DF
:10863000F9AF03F007FAFDF77BF8FDF7FBFAFDF75A
:10864000C5F870470060010800000020D00B002032
:10865000D00B0020D0290020FFF7FEBF0B0A0170CD
:1086600043700B0C090E8370C170043070470170A9
:10867000090A41700230704743185A78435C03EB93
:10868000022080B2704710B543189A78DC78415CBC
:10869000120402EB046258780A4402EB002010BD79
:1086A00073B544790023022C01930FD0032C19D009
:1086B000012C2BD1164D2B692E4623B12B6901A815
:1086C00098470246B8B9B16801201BE0104DEB682D
:1086D0002E4623B1EB6801A89847024658B9B16805
:1086E00002200FE00A4D6B692E464BB16B6901A861
:1086F0009847024620B1A9682046BDF8043003E03F
:10870000B16803200022134600F028FC02B070BDBF
:1087100008210020072830B512D8012910D8EFF31E
:10872000108472B60125854001FA00F0054B1A68E5
:1087300022EA050202431A602346DB0700D462B630
:1087400030BD00BF1403002070B5012186B005467E
:10875000FFF792FF4304044629D5B0F5824F26D196
:1087600028460521FFF788FF05EB8000EE1D002459
:10877000C51DAE4206D030460221FFF77DFF04360C
:108780000444F6E7724B1A8E224492B21A86DA6BD0
:108790001444DC63D96B9A6B914240F0CA8093F821
:1087A0004020002A00F0C5809B69992031E024F424
:1087B000FF4020F07F0080B2002800F0978048F250
:1087C00010039C4228D00CD8B4F5004F40F2BC8076
:1087D00048F202039C4215D948F204039C4211D08E
:1087E000B2E048F280039C420CD004D848F2400327
:1087F0009C424FD0A8E0B4F5024F03D0B4F5084F27
:108800006BD0A1E0524B9A69002A00F092809B69DC
:10881000204600210A4667E00023EA1852790DF845
:1088200003200133042BF8D16B7A05F10D008DF88C
:108830000430AB7A8DF80530EB7A8DF806302B7B5F
:108840008DF80730002300AA1A44C15C0133042BC1
:108850001172F8D105F11100002300AA1A44C15C7D
:108860000133042B1173F8D105F11500002300AA80
:108870001A44C15C0133042B1174F8D12B798DF8A3
:108880001430334B9A69002A53D09B6920466946BD
:10889000152229E0053500212846FFF7F4FE0421C2
:1088A00000902846FFF7EFFE082101902846FFF7C9
:1088B000EAFE0C2102902846FFF7E5FE1021039006
:1088C0002846FFF7E0FE224B04909A69002A30D038
:1088D0009B6920466946142206E01D4B9A6942B303
:1088E0009B692046691D0122984722E041F203035B
:1088F0009C4205D0A4F580530E3B9BB2012B1AD8A5
:108900006C1D20460421FFF7BEFE39301CD12A79A8
:108910000F4B00212046DA62FFF7B5FE0421054621
:108920002046FFF7B0FE393003D128460121FFF77A
:10893000F1FE012009E0064B1B889BB29C4204D04B
:10894000B4F5805FF5D100E0002006B070BD00BF37
:108950000821002070B50E4C6688B6B2B6B16068CA
:1089600005782B1F5D425D412DB1FFF7EDFE003014
:1089700018BF012000E02846064618B935B194F822
:1089800041301BB90023638001F0F2FD304670BD19
:10899000082100202DE9F04F85B004468A46914613
:1089A00002F016FF00250190DFF80883B8F80230C6
:1089B00046469BB2002B40F0938003F079FC02F016
:1089C00007FF0290029A019BD31A0393039B002B8B
:1089D00003DA019B029A13440393B54B1B68002BE7
:1089E000E2D0039A9A42DFD3338841F207029BB266
:1089F000934227D841F20602934261D240F202220A
:108A000093425DD00FD80C2B08D8082B58D2002BDE
:108A10004FD0062B88BF00235AD851E00D2B4CD0E5
:108A200040F201220BE041F2020293424BD8B3F52F
:108A3000805F45D8B3F5017F3FD940F207229342CA
:108A400037D13AE041F21102934236D014D841F2C4
:108A50000B02934234D005D841F2090293422FD041
:108A600031D82AE041F20F0293422CD028D841F2AB
:108A70000D02934227D01CE042F2060293421CD022
:108A800007D8B3F5005F14D942F20402934221D80B
:108A900013E0B3F5804F00F0F38105D8A3F5005340
:108AA000083B012B09D904E044F20B02934200F089
:108AB000E7810B2003F0BAF8E2E1FF232370DFE146
:108AC0004FF0FF3304E04FF0FF3323606360D7E1E2
:108AD0002360D5E1204600213A2209F09FFECFE134
:108AE000D8F804603378042B40F07D8101213046B2
:108AF000FFF7C2FD05463046FFF726FE0146002877
:108B000040F0668141F207039D4206F1050752D805
:108B100041F206039D4280F0AC8040F202239D4268
:108B200000F0A78011D80C2D09D8082D80F0A18065
:108B3000002D00F04D81062D00F2E88099E00D2D0A
:108B400000F0948040F201237EE041F202039D4256
:108B500018D8B5F5805F00F28C80B5F5017F40F242
:108B6000858040F207239D4240F0328133793846B8
:108B700004F8013B0021FFF786FD01462046FFF780
:108B80006DFD25E141F204039D4200F0958040F225
:108B9000AB8000213846FFF776FD0421206038467F
:108BA000FFF771FD083444F8040C06F10D0322466A
:108BB00006F11D0175E041F211039D4256D02BD8FC
:108BC00041F20B039D4254D01CD841F209039D424F
:108BD0004FD000F2968000213846FFF754FD042163
:108BE00020603846FFF74FFD082160603846FFF7E8
:108BF0004AFD0C21A0603846FFF745FD04F10C0B3F
:108C0000E060E4E041F20F039D426DD037D841F2BD
:108C10000D039D4250D0DBE042F205039D4200F07F
:108C2000998007D841F212039D4235D0B5F5005F17
:108C30001CD8CDE042F209039D4208D842F2080355
:108C40009D4213D242F206039D420FD0C0E044F28F
:108C50000B039D4240F0BC80737938460121A8F88F
:108C60003030FFF709FDA8F83200B1E03379237006
:108C7000AEE038460021FFF706FD2060A8E00021A5
:108C80003846FFF700FDA3464BF8040B0421384695
:108C9000FFF7F9FC60609AE03846FFF7EDFC2080B2
:108CA00096E053F8040B8B4242F8040BF9D18FE0A5
:108CB0008C1F00200821002000213846FFF7E3FC2C
:108CC000042120603846FFF7DEFC0821606038464A
:108CD000FFF7D9FCE36804F1080B3933A06076D1C3
:108CE0000121FFF717FD72E000213846FFF7CBFCAA
:108CF000042120603846FFF7C6FC083444F8040C11
:108D000066E0337923713B68236061E000213846D7
:108D1000FFF7B9FC042120603846FFF7B4FC0821B6
:108D200060603846FFF7A8FC0A21A0603846FFF7CC
:108D3000A3FC0C3444F8020C06F11103224606F1A0
:108D4000350153F8040B8B4242F8040BF9D11B8810
:108D500013803DE073185B79635401310429F9D124
:108D600006F109000023C15CE2180133042B1171E4
:108D7000F9D106F10D000023C15CE2180133042B88
:108D80001172F9D106F111000023C15CE218013320
:108D9000042B1173F9D106F115000023C15CE21810
:108DA0000133042B1174F9D106F119000023C15CC1
:108DB000E2180133062B1175F9D106F11F000023CB
:108DC000C15CE2180133202B9176F9D100E05C46BA
:108DD000B8F800202C4B92B2954237D100221A806D
:108DE00083F8412032E0B8F836309BB273B3304696
:108DF000032196F802B0FFF73FFC0746BAF1000FD7
:108E00000CD00421701DFFF73EFC0246C9F800009B
:108E100006F115015046D2B2FCF77AF9CBEB070701
:108E20007B1EB3F5806F07D20BF10501204631445C
:108E30003A46FCF76DF901E04FF0FF37B9F1000F4A
:108E400001D089F800700023A8F836300023A8F874
:108E5000023001F08DFB3378042B05D1B5F5805F2E
:108E600002D13046FFF71CFCB8F800309BB2002B53
:108E70007FF49AAD044BDB8E9BB2002B7FF494AD54
:108E8000002005B0BDE8F08F0821002007284FF032
:108E900001030FD8EFF3108272B603FA00F0064B0D
:108EA0001968134608420CBF00200120DB0702D4DA
:108EB00062B670471846704714030020034B1880B1
:108EC000084600210A46FFF765BD00BF08210020C3
:108ED00010B5034B0124DC86BDE81040FFF75ABDF6
:108EE0000821002038B50346154601224A710C4678
:108EF000881D1946FFF7BBFB291D0570204601F0B0
:108F0000A7FB002038BD38B5BDF814500C462B44E3
:108F1000D518ADB202216171A071E271294604F148
:108F20000800FFF7A4FB691D204689B201F090FB01
:108F3000002038BD38B513440C469DB20221617142
:108F4000A0712946E27104F10800FFF790FB691D4A
:108F5000204689B2BDE8384001F07ABB2DE9F84FD0
:108F60001C4604F1020B032301F107091FFA8BFBD6
:108F700088710D464B71484659461646FFF777FBF8
:108F8000B4F57A7F824605F10B0812D82146FFF727
:108F90006EFB21465046FFF76AFB314640462246AB
:108FA000FCF7B6F8A11D284689B2BDE8F84F01F0DC
:108FB0004FBB4FF47A77B4FBF7F30BEB430189B265
:108FC000FFF755FB39465046FFF751FB3146404607
:108FD0003A46FCF79DF8A4F57A74284640F2EE3143
:108FE000A4B23E4401F034FBB4F57A7F84BFA4F50B
:108FF0007A74A7B2A84688BF4FF47A74314628F82D
:10900000054F4846224698BF0027FCF781F8A11C6F
:10901000404689B2264401F01BFB0FB13C46E3E712
:10902000BDE8F88FF7B51E46FF238DF80730194BC2
:1090300000259C68475D63190135042D5F72F9D1E5
:1090400000200D5C2318013004285D73F9D1002144
:10905000505C6318013104295874F9D104F11500EA
:109060000021FFF7FBFA0022B35C83540132042A8B
:10907000FAD12146142242F20100FFF733FF42F2F7
:1090800001000DF10701FFF719FF9DF9070003B07B
:10909000F0BD00BF082100202DE9F3411F46FF234A
:1090A0008DF807301E4B0646D3F8088033680C460F
:1090B000013B082B9CBF0A2333600B6808F10900B1
:1090C000013B082B9CBF0A230B6013681546013B2C
:1090D000082B9CBF0A2313603B68013B082B9CBFF5
:1090E0000A233B603168FFF7B9FA2168FFF7B6FA47
:1090F0002968FFF7B3FA3968FFF7B0FA414614223E
:1091000042F20900FFF7EEFE42F209000DF10701FD
:10911000FFF7D4FE9DF9070002B0BDE8F08100BF63
:109120000821002010B5074B0446996842F205005B
:109130000022FFF7D7FE214642F20500BDE81040AD
:10914000FFF7BCBE082100202DE9F3411F4602AC09
:10915000FF2304F8053D124B86469D680E4605F137
:10916000090071469046FFF779FA3146FFF776FA23
:109170004146FFF773FA29460C2240F20120FFF71F
:10918000B1FE214640F20120FFF798FE384600214B
:1091900001AAFFF79DFE019802B0BDE8F08100BF73
:1091A000082100202DE9F341984602AD4FF0FF332E
:1091B00045F8043D134B86469E680C4606F10A00AE
:1091C00071461746FFF74AFA0C21FFF747FA214686
:1091D000FFF744FA3946FFF741FA4146224606F1C5
:1091E0001A00FBF795FF31461022A3B29020FFF73B
:1091F000A1FE40F202202946FFF760FE019802B06E
:10920000BDE8F0810821002013B50B4B0446996896
:10921000002240F20720FFF765FE40F20720694672
:10922000FFF74CFE9DF803309DF8000023709DF879
:109230000430637002B010BD0821002037B50E4A1B
:10924000034694680D4604F109001946FFF706FA33
:109250002946FFF703FA2146082240F20320FFF7D0
:1092600041FE40F203200DF10701FFF727FE9DF8B4
:10927000070003B030BD00BF082100202DE9F043F6
:109280000023CA5CC2540133102BFAD10022344BA4
:10929000467B991891F801800178847B88EA01085F
:1092A0009919C97A90F80CC088EA01081919CF7A7F
:1092B000417880F810804F40C17B47745D1895F865
:1092C0000B908578634489EA050593F80B90C37881
:1092D000FFB289EA030390F80490857488EA0908CC
:1092E00090F80590EDB287EA090790F80690C374EC
:1092F00085EA090590F80790DBB283EA090390F844
:10930000089080F814805FFA88F888EA090890F8D5
:1093100009904775FFB287EA090790F80A908575AA
:10932000EDB285EA090590F80B90C375DBB283EACC
:109330000903013288EA0C0C7E406C4059400A2A2D
:1093400080F8188047768576C37680F81CC046770B
:109350008477C17700F1100099D1BDE8F08300BF98
:109360005233010810F0800F4FEA400018BF80F020
:109370001B00C0B2704700002DE9F04F91F8A030FB
:1093800090F800A042788AEA030A80F800A091F8D9
:10939000A13097B0534043708278079391F8A23080
:1093A00090F8049053408370C278059391F8A330ED
:1093B00046795340C370069391F8A430827989EAC4
:1093C000030980F8049091F8A53090F808805E4079
:1093D000467191F8A630477A53408371C279089359
:1093E00091F8A73004465340C3710C9391F8A8300C
:1093F0004FF0000B88EA030880F8088091F8A93044
:109400005F404772827A91F8AA3053408372099381
:10941000C07A91F8AB3094F80CC04340E3720D93DE
:1094200091F8AC3094F80DE08CEA030C84F80CC091
:1094300091F8AD30A57B8EEA030E84F80DE091F82B
:10944000AE30E27B5D40A57391F8AF305A40464B99
:10945000E2739A449AF80B0191F890A0994480EA3B
:109460000A00207099F80BA191F8949098448AEA28
:10947000090984F8049098F80B9191F898809C441D
:1094800089EA080884F808809CF80B8191F89CC050
:109490009E4488EA0C0C84F80CC09EF80BC191F82D
:1094A00091E01F448CEA0E0E97F80BC191F89D7065
:1094B0001E448CEA0707677396F80B7191F8996060
:1094C0001D447E406672079E0D981E4496F80B71EF
:1094D00091F8956084F801E07E406671059E18441D
:1094E0001E4496F80B7191F89A607740089E1E44CE
:1094F00096F80BE191F89E608EEA0606DDF824E00E
:109500009E449EF80BC191F892E08CEA0E0E84F80E
:1095100002E095F80BE191F89650A7728EEA0505E6
:10952000A571069DA6731D4495F80B6191F89F5097
:1095300075400C9E1E4496F80B7191F8936013448D
:109540007E40E67090F80B6191F897007040E071F2
:1095500093F80B2191F89B30CDF81CB05340E57384
:10956000E3720D4602E000BF52330108A77894F879
:109570000090103D87EA0900FFF7F4FEFFF7F2FEC6
:10958000E67894F801B0824686EA0B00FFF7EAFE1F
:10959000FFF7E8FE2179A37980EA060880EA0B0B41
:1095A00083EA010003910293FFF7DCFEFFF7DAFE86
:1095B0008AEA0909E6798AEA070A6779024686EAA9
:1095C00007000492FFF7CEFEFFF7CCFE049A029B41
:1095D00003995340DBB294F808C00693A37A514034
:1095E0004640C9B24740F6B283EA0C000293CDF878
:1095F00004C005910896FFF7B5FEFFF7B3FE617A48
:10960000E67A024686EA010003910492FFF7AAFE79
:10961000FFF7A8FE049ADDF804C00399029B82EAD2
:109620000C0C53404140C9B25FFA8CFCDBB20A918A
:10963000CDF824C00B9394F80CC0A37B4640F6B23F
:1096400083EA0C000293CDF804C00C96FFF78AFE63
:10965000FFF788FE617BE67B024686EA0100039104
:109660000492FFF77FFEFFF77DFE049A029BDDF870
:1096700004C00399534082EA0C0C5FFA89F95FFA3F
:109680008BFB5FFA8AFA5FFA88F84140DBB246400A
:10969000C9B28BEA09005FFA8CFC0F93F6B288EA34
:1096A0000A030E910293CDF834C0109683EA0006A7
:1096B000FFF758FE89EA000086EA000C5FFA8CFC8E
:1096C00084F800C08AEA0B00CDF804C0FFF74AFE18
:1096D0008BEA0000029B86EA000B5FFA8BFB1846C0
:1096E00084F801B0CDF844B0FFF73CFE8AEA0000F0
:1096F00086EA000A5FFA8AFA88EA090084F802A07A
:10970000CDF848A0FFF72EFE88EA0000059BDDF8A3
:1097100018B0DDF820A04640FFB2F6B287EA030099
:109720008AEA0B08E670139688EA0006FFF71AFE2D
:10973000059948407040C0B2149020718BEA070030
:10974000FFF710FE784086EA0007FFB267714046D7
:109750001597FFF707FE8BEA0000059A7040C0B22C
:109760000690A0718AEA0200FFF7FCFD8AEA000079
:109770000B990A9BDDF824A0DDF830B04640F6B224
:1097800083EA0A000596E6718BEA010686EA00077D
:10979000FFF7E8FD8AEA00000A9B0B9A87EA0008B7
:1097A0005FFA88F882EA030084F80880FFF7DAFDA0
:1097B000DDF828A08AEA000087EA00095FFA89F943
:1097C000304684F80990FFF7CDFDDDF82CB00C99F8
:1097D0008BEA0000099A87EA000B5FFA8BFB81EAAB
:1097E000020084F80AB0FFF7BDFD0C9B0D99DDF86F
:1097F00038A05840109A47408AEA0100DDF83CA0A2
:10980000FFB282EA0A03E77283EA000A0293FFF7D3
:10981000A9FD0D990F9A48408AEA00060E99F6B202
:1098200082EA01002673FFF79DFD0E9A029B5040CD
:109830008AEA0001C9B2617318460391FFF792FDED
:109840000F9BDDF834E058408AEA0002109BD2B248
:10985000A27383EA0E000492FFF784FD109BDDF8EB
:1098600004C058408AEA000A494B5FFA8AFA84F831
:109870000FA003EB0C0090F80BC195F890001E446C
:109880008CEA0000207014981F44184490F80BC113
:1098900095F894008CEA0000207103EB080090F822
:1098A0000BC195F898008CEA0000207295F89C0096
:1098B00096F80B61039970402073194491F80B01DD
:1098C00095F89110049A414003EB090090F80B6160
:1098D00095F89D001A44704060731598184490F8EC
:1098E0000B6195F89900704060721198184490F8D7
:1098F0000B6195F895006170129970406071194480
:1099000091F80B0195F89A1048400699194491F87E
:109910000B6195F89E10714003EB0B0696F80BC196
:1099200095F892608CEA0606A67092F80B6195F89D
:109930009620A0727240139EA1731E4496F80B11DC
:10994000A271059E95F89F201E4496F80B014A408F
:1099500095F8931053444140E17095F8971097F8AB
:109960000B01DDF81CA04140E17193F80B1195F853
:109970009B30AAF1100A4B401AF1900FE372E27388
:10998000CDF81CA07FF4F2AD17B0BDE8F08F00BF9A
:109990005233010838B5054C05462046FFF76EFCEA
:1099A00028462146BDE83840FFF7E6BC14200020D9
:1099B000034610210C200022FFF7C6BB03461021EE
:1099C0000C200022FFF7EEBB30B585B0054601F054
:1099D000FFFE0190194CE36A4BB108F0B9FAE36A53
:1099E00003600023E36208F0B3FA008823E028460E
:1099F000FFF74CFA10B14FF6FF701CE001F0E8FEE3
:109A00000290029A019BD31A0393039B002B03DA63
:109A1000019B029A13440393094B039A1B689A42D1
:109A2000E9D2228E054B92B2002AD3D01A8E0020A2
:109A3000013A92B21A8600B205B030BD082100206A
:109A40008C1F0020F7B5174602AC4FF0FF3244F8E8
:109A5000042D134A034695680E4605F10900194680
:109A6000FEF7FCFD3146FEF7F9FD3946FEF7F6FD3F
:109A70000C22294641F20100FFF734FA214641F257
:109A80000100FFF71BFA08F063FA019B0021036055
:109A90001846FEF73FFEBDF9040003B0F0BD00BF5D
:109AA0000821002073B54FF0FF3302AC44F8043DA9
:109AB0000E4B05469E68294606F10900FEF7CEFDCD
:109AC0000422314641F20B00FFF70CFA214641F225
:109AD0000B00FFF7F3F908F03BFA019B012103604B
:109AE0002846FEF717FE019802B070BD082100203D
:109AF00037B54FF0FF320192134A034694680D4682
:109B000004F109001946FEF7A9FD0821FEF7A6FD9C
:109B10000821FEF7A3FD0023EA5CC2540133082BA1
:109B2000FAD11422214641F20200FFF7DBF901A924
:109B300041F20200FFF7C2F908F00AFA019B036044
:109B4000184603B030BD00BF08210020F7B50C4611
:109B50000746164608F0FCF94FF0FF33E62C036089
:109B600025D8164B08219D6805F10900FEF776FD02
:109B70002146FEF773FD0346191A09B2A14203DA22
:109B80007A5C03F8012BF7E704F10802D2B2294608
:109B900041F21000FFF7A6F941F210006946FFF705
:109BA0008DF908F0D5F9009B0360019B336008F044
:109BB000CFF9008800B203B0F0BD00BF082100203B
:109BC00037B54FF0FF320192134A034694680D46B1
:109BD00004F109001946FEF741FD0821FEF73EFD9C
:109BE0000821FEF73BFD0023EA5CC2540133082B39
:109BF000FAD11422214641F20700FFF773F901A9B7
:109C000041F20700FFF75AF908F0A2F9019B03603F
:109C1000184603B030BD00BF082100202DE9FF41E8
:109C20001D46314B8646D3F808800F4608F10900DF
:109C3000714616460A9CFEF711FD1421FEF70EFD33
:109C40001421FEF70BFD1421FEF708FD1421FEF789
:109C500005FDD4F1010138BF0021FEF7FFFC0FB173
:109C6000396800E03946FEF7F9FC0EB1316800E0D2
:109C70003146FEF7F3FC0DB1296800E02946FEF7F6
:109C8000EDFC74B1216839B9636841F287329342BF
:109C9000DCBF41F288336360FEF7E0FC6168FEF7E9
:109CA000DDFC41462C2241F20800FFF71BF941F28E
:109CB00008006946FFF702F9009B002B0ADB0FB191
:109CC000019838600EB1029830600DB10398286099
:109CD00098B205E008F03CF9009B03604FF6FF7076
:109CE00000B204B0BDE8F081082100202DE9FF4159
:109CF0009846194B86469E6815460F4606F10900A0
:109D000071460B9CFEF7AAFC2946FEF7A7FC4146CC
:109D1000FEF7A4FCBDF8305031460C222846FFF770
:109D2000E1F8284601A9FFF7C9F8029B002B0ADDDC
:109D300038460A996A46FFF7CBF8009B04B12360C6
:109D4000002BD8BF029308F003F9029B036018B2FE
:109D500004B0BDE8F08100BF082100201FB5002439
:109D60000094019441F204040294FFF7BFFF04B091
:109D700010BD1FB5069C0094079C019441F20D0490
:109D80000294FFF7B3FF04B010BD00002DE9F04FBF
:109D9000844689B000B2CDF808C0039115469B46B1
:109DA000139E149CFFF710FEDDF808C0002859D15F
:109DB0002E4B812C9A6B02F101029A63D3F8089022
:109DC00009F10A0307D0832C0AD105F1080A09F129
:109DD0002208182704E009F11A08102706461290F5
:109DE00061461846FEF73AFC391FFEF737FC294654
:109DF000FEF734FC5946FEF731FC832C05D1514661
:109E0000FEF72CFC0821FEF729FC4346C8EB0301B2
:109E100009B2A94204DA039A515C03F8011BF5E781
:109E2000832C18460ED0129BB6B200930196E0B276
:109E300049463A46ABB2FFF766F8832C0BD141F2A4
:109E40000F000AE0191A09B2B142ECDA129A515C19
:109E500003F8011BF6E741F2030005A9FFF72EF80E
:109E6000BDF8180000B209B0BDE8F08F082100204D
:109E70001FB500240094019481240294FFF786FF0B
:109E800004B010BD1FB5069C0094079C0194832468
:109E90000294FFF77BFF04B010BD0000202A73B5C9
:109EA00003460E46144627D8164A1946956805F10A
:109EB0000900FEF7D3FB0821FEF7D0FB2146FEF791
:109EC000CDFB03461A1A12B2A24203DAB25C03F8BF
:109ED000012BF7E704F10C022946D2B241F211003E
:109EE000FFF700F841F211000DF10701FEF7E6FF60
:109EF0009DF9070080B201E04FF6FF7000B202B09A
:109F000070BD00BF08210020024B01225A8058601A
:109F1000FEF720BD0821002010B50A4CE160226147
:109F20006361029BE361039B2362049B6362059B65
:109F3000A3620123A06184F84030002384F84130FB
:109F400010BD00BF0821002070B5174B174D00242D
:109F500006461748AC63EC632C802C866C86AC8676
:109F6000EC86EC626C806C60AB6000F0C9FAA642D3
:109F7000A9680CBF234602234B7201224FF4804094
:109F8000FEF7B0FF21464FF48040FEF797FFA96827
:109F9000224644F20B00FEF7A5FF214644F20B00D7
:109FA000BDE87040FEF78ABF742100200821002020
:109FB000099F000838B5094C0020A36A9847254638
:109FC000EB69064C98470028FAD0A3680BB1002330
:109FD000A360BDE8384000F0BBBA00BF08210020F4
:109FE0002DE9F04F994685B04FF0FF3301932E4B8A
:109FF0001546D3F808A00024834688460AF10900D4
:10A000001C210F9E0E9F0294ADF80C40FEF726FB1C
:10A010002946FEF723FB5946FEF720FB05F1100108
:10A02000FEF71CFB3146FEF719FB2146FEF71FFB2E
:10A03000B9F1000F08D019F8043003550134062C8B
:10A04000F9D10630034607E04B4602AA9A5CC25497
:10A050000133062BF9D1F4E71A1A12B2AA4204DA34
:10A0600018F8022003F8012BF6E7194646B13FB174
:10A070005A1A12B2B24203DABA5C03F8012BF7E7BC
:10A080001C367219D2B251460120FEF72BFF01A9EE
:10A090000120FEF713FF07F05BFF019B03601846EA
:10A0A00005B0BDE8F08F00BF08210020F7B51746C6
:10A0B00002AC4FF0FF3244F8042D0D4A0346956878
:10A0C0000E4605F109001946FEF7C8FA3146FEF7BB
:10A0D000C5FA3946FEF7C2FA29460C220420FEF7DB
:10A0E00001FF04202146FEF7E9FE019803B0F0BD10
:10A0F000082100202DE9F04F144685B0002202927D
:10A10000ADF80C206D4A8046D2F808A00F460AF13F
:10A11000090041469B460F9D139EFEF79FFAB8F13A
:10A12000030F00F2BD80DFE808F0022C75751421E2
:10A13000FEF794FA2146FEF791FA0021FEF797FA0E
:10A14000BBF1000F07D000221BF80210815401322E
:10A15000062AF9D106E05B4602AA9A5CC254013392
:10A16000062BF9D106300E99FEF778FA03461A1A33
:10A1700012B2A24203D2BA5C03F8012BF7E71834FB
:10A180008CE02021FEF76AFA2146FEF767FA0021EB
:10A19000FEF76DFABBF1000F07D000221BF802108A
:10A1A00081540132062AF9D106E05B4602AA9A5C84
:10A1B000C2540133062BF9D10E990630FEF74EFA40
:10A1C00004F10C01FEF74AFA2946FEF747FA109906
:10A1D000FEF744FA03461A1A12B2A24203D2BA5C3C
:10A1E00003F8012BF7E7129804211A46D61A36B263
:10A1F000AE4203D2865D02F8016BF7E701392844CD
:10A2000001D01346F1E704EB850909F124091FFA8F
:10A2100089F945E02821FEF721FA2146FEF71EFACA
:10A220000021FEF724FABBF1000F07D000221BF833
:10A23000021081540132062AF9D106E05B4602AAD7
:10A240009A5CC2540133062BF9D10E990630FEF701
:10A2500005FA2946FEF702FA1099FEF7FFF911995F
:10A26000FEF7FCF904F10801FEF7F8F93146FEF7B4
:10A27000F5F903461A1A12B2A24203D2BA5C03F8E5
:10A28000012BF7E719465A1A12B2B24204D21298B9
:10A29000825C03F8012BF6E72C3634441FFA84F96C
:10A2A00051465FFA89F20520FEF71CFE052001A940
:10A2B000FEF704FE019805B0BDE8F08F08210020EC
:10A2C00037B50C4B01469D6802AC05F10900FEF75D
:10A2D000C5F94FF0FF3344F8043D29460422062017
:10A2E000FEF700FE06202146FEF7E8FD019803B0C8
:10A2F00030BD00BF0821002037B548F2080248F2FF
:10A30000080102408A42034613490BD100209342C0
:10A3100081F840001ED023F4004323F0080343F4E7
:10A32000004302E0012281F840208D684FF0FF32A7
:10A33000194602AC05F1090044F8042DFEF78EF928
:10A34000294604220820FEF7CDFD08202146FEF70D
:10A35000B5FD019803B030BD0821002073B50C4B4A
:10A3600001469D684FF0FF3602AC05F109000196E9
:10A37000FEF774F944F8046D294604220A20FEF71A
:10A38000B1FD0A202146FEF799FD019802B070BD8B
:10A390000821002013B50E4A4FF0FF330193916856
:10A3A00098B154230370437083700022845C8B182F
:10A3B0000132032A5C72F9D10C20FEF793FD0C20C8
:10A3C00001A9FEF77BFD019800E0184602B010BD20
:10A3D00008210020F0B52F4887B0FFF7E9FA0246C0
:10A3E000002855D12C4D0D2043212B46FEF7ACFE05
:10A3F000432802D04FF0FF304AE02E782549F71C61
:10A400007C192046FFF7C6FA2B782B445B78102B7B
:10A4100004D904F110001F49FFF7BCFAE37F1BB118
:10A42000EB5D1F2B03D100E0EB5D013400E0202346
:10A430002A781544AA78032A29D8DFE802F0020E08
:10A4400019190020012300930190029003900490B9
:10A45000059012493246034616E001208DE80900B6
:10A46000002302930393049405930C4932460BE0B6
:10A47000012018211E2202258DE827000749059397
:10A480000494032032460023FFF734FE00E000204E
:10A4900007B0F0BD4C210020C4200020C5200020C2
:10A4A00000F0010383F0010003B962B670470000B9
:10A4B0002DE9F0410546EFF3108872B60E4C237A71
:10A4C00027469D4209D0052D01D0012606E00B4B01
:10A4D000DB6998470028F8D1257200264046FFF72F
:10A4E000DFFF16B16369002BE5D07869D0F1010078
:10A4F00038BF0020BDE8F0815C2100200821002049
:10A500000F4B10B500220F490F4C1A721961DA80F7
:10A51000DA609A8018601046A36A98470B4800F0EA
:10A52000FDF9236A98474FF47A7000F0F7F9A36AAF
:10A5300001209847BDE810400120FFF7B9BF00BFD8
:10A540005C2100207425002008210020E0930400F5
:10A5500010B5054C636A9847A36A00209847034BDF
:10A5600000221A6110BD00BF082100205C210020DC
:10A57000024B4FF480725A60704700BF00E100E068
:10A580002DE9F84380460F4614461E46EFF310802F
:10A5900072B61F4DA4B295F80890FFF781FF002016
:10A5A00000F0F0FD5FFA89F90120B8F1000F06D143
:10A5B0003946224600F06EFD4046164905E02969FD
:10A5C000224600F067FD00203946224600F062FD79
:10A5D00011480221012201F0CCFC012000F0D2FD43
:10A5E0009EB1EFF3108072B62C7AFFF759FFE4B2F8
:10A5F000A14503D1064B5B69002BF2D06869D0F10D
:10A60000010038BF0020BDE8F8833046BDE8F8837C
:10A610005C2100201803002058000240CB074CBFEB
:10A620000B464B1C10B5C3F3072444700024C470C0
:10A630000471054C01220270837084F84120034AA2
:10A64000D0609180581D10BD082100205C210020A1
:10A650002DE9F84305460E46EFF3108072B6384CEC
:10A66000277AFFB2FFF71CFF17B1012F05D02AE0B0
:10A670000120FFF71DFF00285DD0EFF3108872B6B0
:10A680000323277A237200F043FE4046FFF708FFBA
:10A6900028463146FFF7C2FFFFB20446002F4AD0DA
:10A6A000322000F03BF90120294604220346FFF73F
:10A6B00067FF00283FD03220A4B200F02FF901201C
:10A6C000291D221F2DE00220FFF7F2FE002832D0C4
:10A6D000EFF3108872B6277ABB1E5F425F4157B115
:10A6E000EFF3108972B6237A0423237200F010FE70
:10A6F0004846FFF7D5FE4046FFF7D2FE17B963691B
:10A70000002BE5D06369B3B928463146FFF786FFD1
:10A7100004460520FFF7CCFE68B1A4B2012029460B
:10A7200022460346FFF72CFF002814BF20464FF0B7
:10A73000FF30BDE8F8834FF0FF30BDE8F88300BF7D
:10A740005C21002070B54FF4003001F01BFC314C4F
:10A7500005464FF4005001F015FC237A033B052B0E
:10A7600052D8DFE803F03B513B510329002D50D074
:10A7700000284ED04FF4083001F012FC0823237259
:10A780002369B3F80330C3F3072545EA0325ADB2C7
:10A79000002D3ED0EB075CBF0135ADB2B5F5806F43
:10A7A00002D90A2001F042FA002021692A46034614
:10A7B000BDE87040FFF7E4BE58B34FF4083001F035
:10A7C000EFFB02232372144B4FF48072C3F88420F2
:10A7D00000F0E8FC23682069984770BDCDB10F48B0
:10A7E000802101F0C0FE0028F9D14FF4083001F0BB
:10A7F000D7FB237A074D032B01D1052302E000F09C
:10A80000D1FC02232B7270BD0B20BDE8704001F01B
:10A810000DBA70BD5C21002000E100E0003800406E
:10A820000F4B70B5DB6998470546B8B90D4C237AD4
:10A83000DBB2022B04D0042B0ED07BB901230CE039
:10A840000723237200F064FD284621692B46052268
:10A85000BDE87040FFF794BE0523237270BD00BFB2
:10A86000082100205C210020BFF34F8F044A054BD4
:10A87000D16801F4E0610B43D360BFF34F8FFEE773
:10A8800000ED00E00400FA050D4B0E4A197839B9C5
:10A89000D98889B21187198989B291879B8806E086
:10A8A000D98989B21187198A89B291879B899BB20C
:10A8B0009386054B63221A70FF225A70704700BFBF
:10A8C000901F0020002C0140200300204FF4407016
:10A8D00001F042BA0A4BF0211A684FF47A73B2FBC6
:10A8E000F3F2084B013A5A60074A82F8231000211C
:10A8F000996007211960D02382F82330704700BF88
:10A900007803002010E000E000ED00E0024B18604A
:10A910001A68002AFCD170478029002007B50F4B28
:10A920005B6800930E4B1A680E4BB2FBF3F34FF0CB
:10A93000FF32B2FBF3F2904228BF1046434301932B
:10A94000064B5968009A019B8A1A9A4202D201F07A
:10A95000AFFCF5E703B05DF804FB00BF001000E0BA
:10A960007803002040420F007FB54FF4003001F023
:10A970006FFB4FF4003302930823002501240DEBF5
:10A9800003008DF80D308DF80C508DF80E4001F05D
:10A9900011FB04230DEB030003268DF805308DF821
:10A9A00004608DF806508DF8074001F0DFF9292387
:10A9B00001A88DF804308DF805608DF806508DF8EB
:10A9C000074001F0D3F9022001F09CFC28B10220DD
:10A9D00001F0A2FC01F066FD18E0204601F0AAFC9F
:10A9E000412001F0E9FC0028FAD04FF4807001F01A
:10A9F000B1FC012001F0B6FC01F054FD01F04AFD6C
:10AA000047F6FF7001F036FD01F044FD03200121FF
:10AA100001F0EEFC01F03EFD04B070BD10B504463F
:10AA200045F2555001F032FC062001F035FC28209B
:10AA3000604340F6FF73000A984228BF184680B270
:10AA400001F030FC01F034FCBDE8104001F038BCEE
:10AA5000082814D8012908D10B4B0C4A03EB8003BA
:10AA60005B6832F810201A610BE051B9064B074AB7
:10AA700003EB80035B6832F810205A6101E0FF208D
:10AA800000E0002040B2704720030020603501083C
:10AA900073B50F4E8500731904460121186901F042
:10AAA00073FC36F8143001A9ADF8043010238DF88A
:10AAB000073003238DF80630064B1D44686801F00B
:10AAC00047FB20460021FFF7C3FF02B070BD00BF67
:10AAD000603501082003002070B5012188B04FF4D3
